:100000000C943C010C940A040C9459010C94590171
:100010000C9459010C9459010C9459010C94CF0380
:100020000C9459010C9459010C944C070C948A07B8
:100030000C9459010C9459010C9459010C945901D8
:100040000C9459010C9459010C9459010C945901C8
:100050000C9459010C9459010C9459010C945901B8
:100060000C9459010C9459010C9459010C945901A8
:100070000C9459010C9459010C9459010C94590198
:100080000C94FB020C9459010C9459010C945901E5
:100090000C9459010C9459010C9459010C94590178
:1000A0000C9459010C9459010C9459016E616E0025
:1000B000696E660000407A10F35A00A0724E18096B
:1000C0000010A5D4E80000E87648170000E40B54BF
:1000D000020000CA9A3B000000E1F505000080968E
:1000E0009800000040420F000000A08601000000C0
:1000F000102700000000E80300000000640000007A
:1001000000000A00000000000100000000002C7642
:10011000D888DC674F0823DFC1DFAE59E1B1B7965D
:10012000E5E3E453C63AE651997696E8E6C28426BA
:10013000EB898C9B62ED407C6FFCEFBC9C9F40F296
:10014000BAA56FA5F490055A2AF75C936B6CF96712
:100150006DC11BFCE0E40D47FEF520E6B500D0EDD7
:10016000902E0300943577050080841E080000203F
:100170004E0A000000C80C333333330F986E1283DD
:100180001141EF8D2114893BE65516CFFEE6DB18B1
:10019000D1844B381BF77C1D901DA4BBE424203276
:1001A00084725E228100C9F124ECA1E53D274D3225
:1001B0002072656164790D0A004D322072656164B8
:1001C000790D0A00000100005B0212000200001815
:1001D0000243000300001402040103090400021298
:1001E00002030904F8010603030904EE01080803E9
:1001F000340031003000000006034D0032000000E2
:1002000012034A002E0020004600690065006E00BF
:10021000650000000403090409024300020100C054
:10022000320904000001020201000524001001054A
:1002300024010101042402060524060001070582A9
:100240000310004009040100020A00000007050332
:100250000240000007058402400000120100020273
:10026000000010C0167A040001010203010001C160
:10027000120180360181360011241FBECFEFDAE073
:10028000DEBFCDBF11E0A0E0B1E0EAE5FFE102C0D2
:1002900005900D92A235B107D9F721E0A2E5B1E0B2
:1002A00001C01D92AF35B207E1F70E94A5020C9480
:1002B000AB0F0C940000109290008CE080939100A2
:1002C00081EE94E0909399008093980082E080936F
:1002D00071000895CF93DF93EC0103C021960E9433
:1002E000F80688818111FACFDF91CF9108952F927E
:1002F0003F924F925F926F927F928F929F92AF92B6
:10030000BF92CF92DF92EF92FF920F931F93CF9302
:10031000DF93CDB7DEB7C05BD1090FB6F894DEBF6F
:100320000FBECDBFAE014B555F4FBE016D557F4F28
:10033000CE018F559F4F0E94A305CF55DF4F688197
:100340007981C15AD040072E000C880B990B0E946E
:10035000150920E030E040E85DE30E945009C955EE
:10036000DF4F6883C75AD040C855DF4F7883C85ADB
:10037000D040C755DF4F8883C95AD040C655DF4F9C
:100380009883CA5AD040CD55DF4F68817981C35ACE
:10039000D040072E000C880B990B0E94150920E015
:1003A00030E040E85DE30E945009C555DF4F6883A7
:1003B000CB5AD040C455DF4F7883CC5AD040C35578
:1003C000DF4F8883CD5AD040C255DF4F9883CE5A35
:1003D000D040CB55DF4F68817981C55AD040072E78
:1003E000000C880B990B0E94150920E030E040E8D2
:1003F0005DE30E945009C155DF4F6883CF5AD0405A
:10040000C055DF4F7883C05BD040182F092F0E9462
:100410007403F82EE92E0E948403D82EC92E0E9460
:100420009403B82EA92E0E949803982E892E0E941C
:100430009C03782E692E0E944504562E472E382E96
:10044000292E0E9450049F938F937F936F932F9236
:100450003F924F925F926F927F928F929F92AF9254
:10046000BF92CF92DF92EF92FF920F931F93C055EE
:10047000DF4F8881C05BD0408F93C155DF4F98819B
:10048000CF5AD0409F93C255DF4F8881CE5AD0407B
:100490008F93C355DF4F9881CD5AD0409F93C45559
:1004A000DF4F8881CC5AD0408F93C555DF4F98815C
:1004B000CB5AD0409F93C655DF4F8881CA5AD0404F
:1004C0008F93C755DF4F9881C95AD0409F93C85525
:1004D000DF4F8881C85AD0408F93C955DF4F98812C
:1004E000C75AD0409F9387E091E09F938F931F92CC
:1004F00080EA8F938E010F5F1F4F1F930F930E940F
:100500001D0F0FB6F894DEBF0FBECDBFC8010E940D
:100510006A010E943C07C055DF4F0FB6F894DEBF5A
:100520000FBECDBFDF91CF911F910F91FF90EF9044
:10053000DF90CF90BF90AF909F908F907F906F9003
:100540005F904F903F902F9008952FEF31EE84E011
:10055000215030408040E1F700C000000E94DC06DE
:100560000E94F5068823E1F389EB91E00E94FB08E5
:100570000E94E6050E94A0030E941F0381E00E94E2
:100580001B0681E00E94250680E00E94380681E07B
:100590000E9442068FE39FE10197F1F700C000003F
:1005A00088EE93E00E944C0688EE93E00E94A2063B
:1005B00094E52DEC3DE283E09150204030408040B6
:1005C000D9F700C000C000000E94CE068EEA91E07C
:1005D0000E94FB080E9487040E946105811101C0EE
:1005E000FFCF0E945B0178948FE99FE00197F1F7BC
:1005F00000C00000F9CF1F920F920FB60F92112486
:100600002F933F934F935F936F937F938F939F931A
:10061000AF93BF93EF93FF930E947701FF91EF9108
:10062000BF91AF919F918F917F916F915F914F910A
:100630003F912F910F900FBE0F901F901895ECE7F0
:10064000F0E080E480838081807F8083EBE7F0E0CE
:1006500080818F7D808387E880937A0083E7809311
:100660007E000895883080F4ECE7F0E09081907F80
:10067000892B8083EBE7F0E080818F7D808320E011
:1006800040E050E0BA0123C0ECE7F0E09081907FB9
:100690008850892B8083EBE7F0E080818062808343
:1006A00020E040E050E0BA0112C0EAE7F0E09081BB
:1006B0009064908390917A0096FDFCCF80917800B1
:1006C00090917900480F591F611D711D2F5F2430D3
:1006D00060F3DB01CA01B695A79597958795B69506
:1006E000A79597958795089580E00E9432039C0115
:1006F000ACE4B4E00E94AD0D2FEF33E040E050E0F9
:100700000E948B0DC901089581E00E9432039C0173
:10071000ACE4B4E00E94AD0D2FEF33E040E050E0D8
:100720000E948B0DC901089584E00E943203089550
:1007300085E00E943203089586E00E943203089506
:100740008AB18B7F8AB98AB1877F8AB98BB184607D
:100750008BB98BB188608BB9EAE6F0E0808180616B
:10076000808380818F7D80838DB380648DBB84B1D5
:100770008F7B84B984B18F7784B985B1806485B962
:1007800085B1806885B9E9E6F0E080818160808389
:1007900080818D7F80838DB381608DBB08951F9292
:1007A0000F920FB60F9211248F939F93AF93BF9325
:1007B0004B9B14C08091560190915701A091580114
:1007C000B09159010197A109B10980935601909305
:1007D0005701A0935801B093590113C0809156015D
:1007E00090915701A0915801B09159010196A11D16
:1007F000B11D8093560190935701A0935801B09377
:100800005901BF91AF919F918F910F900FBE0F90A3
:100810001F9018951F920F920FB60F9211248F936D
:100820009F93AF93BF931F9B14C0809152019091EF
:100830005301A0915401B09155010197A109B1094B
:100840008093520190935301A0935401B0935501AA
:1008500013C08091520190915301A0915401B09125
:1008600055010196A11DB11D809352019093530132
:10087000A0935401B0935501BF91AF919F918F9177
:100880000F900FBE0F901F901895F894609156012D
:100890007091570180915801909159017894089571
:1008A000F89460915201709153018091540190919C
:1008B00055017894089594EA9093BC009091BC00FF
:1008C0009923E4F79091B900987F983011F0903116
:1008D000C1F48093BB0084E88093BC008091BC008D
:1008E0008823E4F78091B900887F883121F0803433
:1008F00021F491E003C091E001C090E0892F817064
:10090000089580E0089584E98093BC000895E9EBA0
:10091000F0E080818C7F808388E48093B80084E05D
:100920008093BC0008950F931F93CF93DF93EB0147
:10093000142F880F0E945B04082F811119C01DC05D
:10094000FE01E90FF11D80818093BB0084E8809354
:10095000BC008091BC008823E4F78091B900887FB7
:10096000883221F00E94830400E007C09F5F01C02D
:1009700090E0911728F30E948304802FDF91CF919C
:100980001F910F9108950F931F93CF93DF938B01C6
:10099000C42F90E0880F991F81600E945B04D82FBC
:1009A00081112FC033C0492F50E02C2F30E021504F
:1009B00031094217530711F484E801C084EC809395
:1009C000BC008091BC008823E4F7421753072CF445
:1009D0008091B900887F803541F44217530749F46C
:1009E0008091B900887F883521F00E948304D0E08F
:1009F0000DC0F801E90FF11D8091BB0080839F5F5E
:100A000001C090E09C1778F20E9483048D2FDF9143
:100A1000CF911F910F910895CF93DF9300D0CDB761
:100A2000DEB789836A8342E0BE016F5F7F4F88E251
:100A30000E9493040F900F90DF91CF910895682F3B
:100A40008DE30E940C0508950F931F93CF93DF93BE
:100A50001F92CDB7DEB789838B0141E0BE016F5F86
:100A60007F4F88E20E949304882329F041E0B80177
:100A700088E20E94C3040F90DF91CF911F910F91E4
:100A80000895FF920F931F93CF93DF931F92CDB7DB
:100A9000DEB789838B01F42E41E0BE016F5F7F4F8B
:100AA00088E20E949304882329F04F2DB80188E240
:100AB0000E94C3040F90DF91CF911F910F91FF907F
:100AC00008951F93CF93DF931F92CDB7DEB70E9497
:100AD00087041982BE016F5F7F4F80E00E9424056A
:100AE000182F882351F18981803A31F580E00E94E6
:100AF0001F052FE788E391E0215080409040E1F707
:100B000000C0000060E28FE30E940C052FEF8CEB29
:100B10009FE1215080409040E1F700C000008CE050
:100B20000E941F052FEF89EF90E0215080409040F8
:100B3000E1F700C0000001C010E0812F0F90DF91AD
:100B4000CF911F910895CF92DF92EF92FF920F9372
:100B50001F93CF93DF9300D000D000D0CDB7DEB786
:100B60006C017B018A0146E0BE016F5F7F4F8AE125
:100B70000E9441058823D9F029818A8190E0982F2D
:100B80008827822BF601918380832B818C8190E0D2
:100B9000982F8827822BF701918380832D818E8166
:100BA00090E0982F8827822BF801918380832696E6
:100BB0000FB6F894DEBF0FBECDBFDF91CF911F916E
:100BC0000F91FF90EF90DF90CF9008958AB18068E9
:100BD0008AB98AB180648AB987B1806487B984B1DF
:100BE000806284B984B1806184B980B3806880BB3D
:100BF0008BB180688BB98BB180648BB988B18F7BE6
:100C000088B985B1806285B985B1806185B981B3C4
:100C10008F7781BB1092C00084E08093C20081E096
:100C20008093C3001092C10080E48093800088E02C
:100C3000809381000895882321F088B1806488B969
:100C4000089588B18F7B88B90895882321F081B3F6
:100C5000806881BB089581B38F7781BB0895CF935E
:100C6000C82F0E941B068C2F0E942506CF91089545
:100C7000882321F08BB180648BB908958BB18F7B71
:100C80008BB90895882321F085B1806185B90895D5
:100C900085B18F7E85B90895CF93DF93EC019C01D8
:100CA000A8ECB0E00E94AD0D2CE330E040E050E055
:100CB0000E948B0DE1ECF0E08081807F8083C53F56
:100CC000D140F8F0012E19E0220F331F441F551FA9
:100CD0001A95D1F7102D60E074E284EF90E00E9445
:100CE0008B0D215020935A012093D10080915A01FD
:100CF00086958093D200E1ECF0E08081896080836A
:100D00001EC0012E1CE0220F331F441F551F1A95D1
:100D1000D1F7102D60E074E284EF90E00E948B0D1B
:100D2000215020935A012093D10080915A01869539
:100D30008093D200E1ECF0E080818C608083DF91D1
:100D4000CF9108959C01A8ECB0E00E94AD0D2CE37A
:100D500030E040E050E00E948B0D012E1BE0220F9E
:100D6000331F441F551F1A95D1F7102D60E074E210
:100D700084EF90E00E948B0DDA01C9010197A1096F
:100D8000B1099093890080938800E1E8F0E08081C8
:100D9000887F8083808185608083089580E00E94C1
:100DA0002F06E1E8F0E08081887F8083E1ECF0E0CD
:100DB0008081807F8083089581E08093D70080EADE
:100DC0008093D80082E189BD09B400FEFDCF80E99F
:100DD0008093D8001092E00010925E0110925B01A7
:100DE0008CE08093E2007894089580915E010895EC
:100DF00090915E019923E1F19FB7F89424E020934C
:100E0000E90020915C01222349F02091E80025FDB2
:100E100003C09FBF8FEF089510925C013091E400F2
:100E2000375E2091E80025FD14C09FBF9091E4003B
:100E3000391305C081E080935C018FEF0895909194
:100E40005E019923B9F09FB7F89424E02093E9005C
:100E5000E8CF8093F1008091E80085FD03C08AE32C
:100E60008093E80085E080935D019FBF80E0089556
:100E70008FEF08958FEF08958FB7F89490915D01EB
:100E8000992341F094E09093E9009AE39093E8006D
:100E900010925D018FBF08951F920F920FB60F92AF
:100EA00011248F939F93EF93FF93E1EEF0E0808105
:100EB000108283FF11C01092E90091E09093EB0043
:100EC0001092EC0092E19093ED0098E09093F00086
:100ED00010925E0110925B0182FF13C080915E014F
:100EE000882379F080915D01882359F081508093A7
:100EF0005D01811106C084E08093E9008AE380935C
:100F0000E800FF91EF919F918F910F900FBE0F908E
:100F10001F9018951F920F920FB60F9211242F93C6
:100F20003F934F935F936F937F938F939F93AF9371
:100F3000BF93CF93DF93EF93FF931092E9008091DB
:100F4000E80083FF42C1E1EFF0E0B081A0812081A1
:100F5000808190E0982F8827822B4081208130E08B
:100F6000322F2227B901642B4081208130E0322FBB
:100F70002227F901E42BAF0122EF2093E800A630ED
:100F800009F051C0A0E024EC31E0A63020F081E26D
:100F90008093EB001DC1F901C591D4918C179D0779
:100FA00019F0295F3F4F1CC0F9013296C591D491C9
:100FB0006C177D0719F0295F3F4F12C0F901349675
:100FC00085919491F901369664919A014F3F5105AC
:100FD00019F010F02FEF30E0621720F0622F02C0FE
:100FE000AF5FD3CF2091E800322F3570D9F322FDC7
:100FF000EFC0362F613108F030E1232F09C0AC017A
:101000004F5F5F4FFC0184918093F1002150CA0132
:101010002111F5CF631B2EEF2093E8006111E2CF81
:10102000303101F3D5C0A53059F42EEF2093E800FC
:101030002091E80020FFFCCF80688093E300C8C0C7
:10104000A93079F5B1112DC080935E0110925B013A
:1010500010925D018EEF8093E80081E02DE632E092
:1010600018C08093E900A9014F5F5F4FF901949187
:101070009093EB00992359F0FA0144914093EC00CE
:101080003196E4912D5F3F4FE093ED0001C09A014E
:101090008F5F853030F3EAEEF0E08EE180831082DE
:1010A00097C0A83071F4B03861F48091E80080FFF7
:1010B000FCCF80915E018093F1008EEF8093E80079
:1010C00087C0A132A9F4B13A99F48091E80080FF79
:1010D000FCCFE0E0F1E080E005C090819093F1006A
:1010E0008F5F31968730C8F38EEF8093E80070C031
:1010F000A032C1F4B132B1F48091E80082FFFCCF9C
:10110000E0E0F1E080E005C09091F10090838F5F16
:1011100031968730C8F3E8EEF0E08BEF80838EEFF6
:10112000808356C0A23261F4B13251F480935B01E6
:101130008091E80080FFFCCF8EEF8093E80048C0EC
:10114000A1111BC08091E80080FFFCCFB23861F490
:101150006093E9008091EB0085FD02C080E001C052
:1011600081E01092E90001C080E0E1EFF0E08083CF
:1011700010828EEF8093E8002BC0A13011F0A330D5
:1011800021F5B23011F5892B01F5262F2F778FEF3E
:10119000820F8430D0F48EEF8093E8002093E90032
:1011A000A33021F481E28093EB0012C089E18093A7
:1011B000EB0081E090E002C0880F991F2A95E2F7CA
:1011C000EAEEF0E08083108203C081E28093EB00BE
:1011D000FF91EF91DF91CF91BF91AF919F918F914F
:1011E0007F916F915F914F913F912F910F900FBE23
:1011F0000F901F9018950F931F93CF93FC018F01B1
:101200000F5F1F4FC491CC2351F0CA3019F48DE009
:101210000E94F8068C2F0E94F806F801F0CFCF91BB
:101220001F910F910895E89409C097FB3EF49095A3
:101230008095709561957F4F8F4F9F4F9923A9F0AF
:10124000F92F96E9BB279395F6958795779567953E
:10125000B795F111F8CFFAF4BB0F11F460FF1BC082
:101260006F5F7F4F8F4F9F4F16C0882311F096E915
:1012700011C0772321F09EE8872F762F05C06623C3
:1012800071F096E8862F70E060E02AF09A95660F7C
:10129000771F881FDAF7880F9695879597F9089535
:1012A0000E9463090C94D4090E94C60938F00E9478
:1012B000CD0920F0952311F00C94BD090C94C309BD
:1012C00011240C94080A0E94E50970F3959FC1F35C
:1012D000950F50E0551F629FF001729FBB27F00DE4
:1012E000B11D639FAA27F00DB11DAA1F649F662739
:1012F000B00DA11D661F829F2227B00DA11D621F88
:10130000739FB00DA11D621F839FA00D611D221F41
:10131000749F3327A00D611D231F849F600D211D25
:10132000822F762F6A2F11249F5750409AF0F1F0A8
:1013300088234AF0EE0FFF1FBB1F661F771F881F11
:1013400091505040A9F79E3F510580F00C94BD0983
:101350000C94080A5F3FE4F3983ED4F386957795A2
:101360006795B795F795E7959F5FC1F7FE2B880FB7
:10137000911D9695879597F9089597F99F6780E84D
:1013800070E060E008959FEF80EC089500240A94D7
:101390001616170618060906089500240A94121650
:1013A0001306140605060895092E0394000C11F483
:1013B000882352F0BB0F40F4BF2B11F460FF04C030
:1013C0006F5F7F4F8F4F9F4F089557FD9058440F89
:1013D000551F59F05F3F71F04795880F97FB991F94
:1013E00061F09F3F79F08795089512161306140651
:1013F000551FF2CF4695F1DF08C0161617061806DE
:10140000991FF1CF86957105610508940895E894B8
:10141000BB2766277727CB0197F90895A0E1B0E0B5
:10142000E4E1FAE00C94BC0D7C011B016A01FC01B3
:1014300017821682838181FF44C39E012F5F3F4F35
:101440003901F7019381F10193FD859193FF81911A
:101450001F01882309F431C3853239F493FD859146
:1014600093FF81911F01853239F4B70190E00E940A
:10147000E10E56016501E5CF10E0512C912CFFE102
:10148000F915D8F08B3279F038F4803279F0833264
:10149000A1F4F92DF0612EC08D3261F0803369F432
:1014A000292D21602DC0392D3260932E892D846025
:1014B000982E2AC0E92DE86015C097FC2DC020EDBC
:1014C000280F2A3088F496FE06C03AE0139F200DBC
:1014D0001124122F19C08AE0589E200D1124522E7B
:1014E000E92DE0629E2E10C08E3231F496FCE5C2EA
:1014F000F92DF0649F2E08C08C3621F4292D206828
:10150000922E02C0883641F4F10193FD859193FF3C
:1015100081911F018111B3CF9BEB980F933020F481
:10152000992D9061805E07C09BE9980F933008F079
:1015300066C1992D9F7E96FF16E09F73992E853682
:1015400019F49064992E08C0863621F4392F30683A
:10155000932E02C01111115097FE07C01C3350F496
:1015600044244394410E27E00BC0183038F027E0A4
:1015700017E005C027E09CE3492E02C0212F412C33
:10158000560184E0A80EB11CF60160817181828150
:101590009381042DA3010E94F30D6C01F981FC8756
:1015A000F0FF02C0F3FF06C091FC06C092FE06C029
:1015B00000E205C00DE203C00BE201C000E08C8533
:1015C0008C7019F001115AC29BC297FE10C04C0CCE
:1015D000FC85F4FF04C08A81813309F44A94141411
:1015E00074F528E0241578F588E0482E2CC096FC88
:1015F0002AC0812F90E08C159D059CF03CEFC3160E
:101600003FEFD30674F0892D8068982E0AC0E2E07F
:10161000F0E0EC0FFD1FE10FF11D8081803319F424
:1016200011501111F4CF97FE0EC044244394410E83
:10163000812F90E0C816D9062CF41C1904C044244C
:10164000439401C010E097FE06C01C141D0434F43E
:10165000C601019605C085E090E002C081E090E0FF
:1016600001110196112331F0212F30E02F5F3F4F00
:10167000820F931F252D30E08217930714F4581A18
:1016800001C0512C892D897049F4552039F0B701DA
:1016900080E290E00E94E10E5A94F7CF002329F0F7
:1016A000B701802F90E00E94E10E93FC09C0552005
:1016B00039F0B70180E390E00E94E10E5A94F7CF31
:1016C00097FE4CC04601D7FE02C0812C912CC6016A
:1016D00088199909F301E80FF91FFE87ED87960134
:1016E00024193109388B2F87012F10E011950195AE
:1016F00011093FEF8316930629F4B7018EE290E0BB
:101700000E94E10EC814D9044CF08F859889881581
:10171000990524F4ED85FE85818101C080E3F1E027
:101720008F1A91082D853E852F5F3F4F3E872D876D
:10173000801691062CF0B70190E00E94E10ED9CFFF
:10174000C814D90441F49A81963320F4953319F4DE
:101750003C8534FF81E3B70190E04EC08A8181333C
:1017600019F09C859F7E9C87B70190E00E94E10E56
:10177000111105C094FC18C085E690E017C0B701B0
:101780008EE290E00E94E10E1E5F82E001E0080F11
:10179000F301E80FF11D8081B70190E00E94E10E96
:1017A000802F0113F3CFE6CF85E490E0B7010E94CC
:1017B000E10ED7FC06C0C114D10441F4EC85E4FF6E
:1017C00005C0D194C194D1088DE201C08BE2B7016C
:1017D00090E00E94E10E80E32AE0C216D1042CF0D2
:1017E0008F5FFAE0CF1AD108F7CFB70190E00E94DF
:1017F000E10EB701C601C0960E94E10E54C18336C6
:1018000031F0833779F0833509F056C020C0560196
:1018100032E0A30EB11CF6018081898301E010E063
:10182000630112C05601F2E0AF0EB11CF601C08098
:10183000D18096FE03C0612F70E002C06FEF7FEF92
:10184000C6010E94D60E8C01F92DFF7714C05601F7
:1018500022E0A20EB11CF601C080D18096FE03C02A
:10186000612F70E002C06FEF7FEFC6010E94CB0EC8
:101870008C01F92DF0689F2EF3FD1AC0852D90E0A4
:1018800008171907A8F4B70180E290E00E94E10E62
:101890005A94F4CFF60197FC859197FE81916F01E0
:1018A000B70190E00E94E10E51105A9401501109C5
:1018B0000115110579F7F7C0843611F0893661F505
:1018C000560197FE09C024E0A20EB11CF60160810A
:1018D0007181828193810AC0F2E0AF0EB11CF601E2
:1018E00060817181072E000C880B990BF92DFF7612
:1018F0009F2E97FF09C090958095709561957F4FB9
:101900008F4F9F4FF0689F2E2AE030E0A3010E9486
:101910004D0FC82EC6183FC0092D853721F40F7E04
:101920002AE030E01DC0097F8F3691F018F4883529
:1019300059F0C3C0803719F0883711F0BEC000617C
:1019400004FF09C0046007C094FE08C0066006C01A
:1019500028E030E005C020E130E002C020E132E0C4
:10196000560107FF09C084E0A80EB11CF601608192
:1019700071818281938108C0F2E0AF0EB11CF60143
:101980006081718180E090E0A3010E944D0FC82E1C
:10199000C6180F77902E96FE0BC0092D0E7FC1162C
:1019A00050F494FE0AC092FC08C0092D0E7E05C0BA
:1019B000DC2C092D03C0DC2C01C0D12E04FF0DC08E
:1019C000FE01EC0DF11D8081803311F4097E09C008
:1019D00002FF06C0D394D39404C0802F867809F008
:1019E000D39403FD11C000FF06C01C2DD51480F454
:1019F000150D1D190DC0D51458F4B70180E290E003
:101A00000E94E10ED394F7CFD51410F45D1801C0F5
:101A1000512C04FF10C0B70180E390E00E94E10E5A
:101A200002FF17C001FD03C088E790E002C088E50F
:101A300090E0B7010CC0802F867859F001FF02C0FA
:101A40008BE201C080E207FD8DE2B70190E00E94C9
:101A5000E10EC11638F4B70180E390E00E94E10E78
:101A60001150F7CFCA94F301EC0DF11D8081B7013D
:101A700090E00E94E10EC110F5CF15C0F4E0F5151D
:101A800060F584E0581A93FE1FC0011127C02C8511
:101A900023FF2AC00CEA10E0392D3071932EF80193
:101AA0008491811124C0552009F4E4CCB70180E26F
:101AB00090E00E94E10E5A94F6CFF701868197815B
:101AC00026C08FEF9FEF23C0B70180E290E00E9415
:101AD000E10E5A945110F8CFD8CF512CB701802F76
:101AE00090E00E94E10ED3CF00EB10E0D5CF911033
:101AF0008052B70190E00E94E10E0F5F1F4FCFCFE1
:101B000023E0251510F483E0BDCF512CC0CF6096A3
:101B1000E2E10C94D80DA1E21A2EAA1BBB1BFD0119
:101B20000DC0AA1FBB1FEE1FFF1FA217B307E407BC
:101B3000F50720F0A21BB30BE40BF50B661F771F14
:101B4000881F991F1A9469F76095709580959095F4
:101B50009B01AC01BD01CF010895A29FB001B39FCD
:101B6000C001A39F700D811D1124911DB29F700DA6
:101B7000811D1124911D08952F923F924F925F92E3
:101B80006F927F928F929F92AF92BF92CF92DF928D
:101B9000EF92FF920F931F93CF93DF93CDB7DEB7F2
:101BA000CA1BDB0B0FB6F894DEBF0FBECDBF099486
:101BB0002A88398848885F846E847D848C849B84DD
:101BC000AA84B984C884DF80EE80FD800C811B81EB
:101BD000AA81B981CE0FD11D0FB6F894DEBF0FBE1A
:101BE000CDBFED010895283008F027E03327DA0152
:101BF000990F311D87FD916000966105710539F4DB
:101C000032602E5F3D9330E32A95E1F708959F3FC0
:101C100030F080387105610509F03C5F3C5F3D9311
:101C2000913008F08068911DDF93CF931F930F933D
:101C3000FF92EF92192F987F9695E92F969596959A
:101C4000E90FFF27E25FFE4F99273327EE24FF2499
:101C5000A701E70105900894079428F4360FE71EC2
:101C6000F81E491F511D660F771F881F991F069484
:101C7000A1F70590079428F4E70EF81E491F561F98
:101C8000C11D770F881F991F661F0694A1F7059045
:101C9000079428F4F80E491F561FC71FD11D880F3F
:101CA000991F661F771F0694A1F70590079420F4EB
:101CB000490F561FC71FD81F990F661F771F881F10
:101CC0000694A9F784911095177041F0D695C795A1
:101CD00057954795F794E7941A95C1F7E4EBF0E030
:101CE00068941590159135916591959105907FE2D5
:101CF0007395E118F10A430B560BC90BD009C0F7D5
:101D0000E10CF11E431F561FC91FD01D7EF4703316
:101D100011F48A95E6CFE894015030F0080F0AF4E8
:101D20000027021708F4202F2395022F7A3328F07A
:101D300079E37D932A95E9F710C07D932A9589F67A
:101D4000069497956795379517951794E118F10ABA
:101D5000430B560BC90BD00998F023957E917395D0
:101D60007A3308F070E37C932013B8F77E917061AA
:101D70007D9330F0839571E37D9370E32A95E1F7CD
:101D80001124EF90FF900F911F91CF91DF91992730
:101D900087FD90950895FC010590615070400110F9
:101DA000D8F7809590958E0F9F1F0895FC01615084
:101DB000704001900110D8F7809590958E0F9F1F6D
:101DC00008950F931F93CF93DF93FB01238121FD90
:101DD00003C08FEF9FEF2CC022FF16C046815781B2
:101DE000248135814217530744F4A081B1819D01BC
:101DF0002F5F3F4F318320838C93268137812F5F64
:101E00003F4F3783268314C08B01EC01FB01008414
:101E1000F185E02D0995892BE1F6D80116968D9173
:101E20009C911797019617969C938E931697CE01C7
:101E3000DF91CF911F910F910895AEE0B0E0E3E202
:101E4000FFE00C94CA0D0D891E898F89988D26E0BC
:101E50002C831A83098397FF02C080E090E80197E2
:101E60009E838D83AE01455E5F4F698D7A8DCE0175
:101E700001960E940E0A4D815E8157FD0AC02F8196
:101E80003885421753070CF49A01F801E20FF31F4B
:101E900010822E96E4E00C94E60DFA01AA27283071
:101EA00051F1203181F1E8946F936E7F6E5F7F4F27
:101EB0008F4F9F4FAF4FB1E03ED0B4E03CD0670FA3
:101EC000781F891F9A1FA11D680F791F8A1F911DF6
:101ED000A11D6A0F711D811D911DA11D20D009F446
:101EE00068943F912AE0269F11243019305D319388
:101EF000DEF6CF010895462F4770405D4193B3E071
:101F00000FD0C9F7F6CF462F4F70405D4A3318F017
:101F1000495D31FD4052419302D0A9F7EACFB4E0C8
:101F2000A6959795879577956795BA95C9F7009780
:101F30006105710508959B01AC010A2E0694579521
:101F4000479537952795BA95C9F7620F731F841F78
:0A1F5000951FA01D0895F894FFCF1F
:101F5A0000E10000000008483A25362E3266205279
:101F6A003A25362E326620503A25362E3266202001
:101F7A0056423A25756D562F25756D5620202043F9
:101F8A006C6966663A2575202575202575202045D9
:101F9A006E633A2531316C642F2531316C640D0A38
:021FAA00000035
:00000001FF
