S01600006176725F636F6E74726F6C6C65722E7372656322
S11300000C9480010C949D010C949D010C94370573
S11300100C949D050C949D010C949D010C94030675
S11300200C949D010C9469060C94810A0C94BF0AEB
S11300300C949D010C949D010C949D010C949D01C4
S11300400C949D010C94DA080C949D010C949D0170
S11300500C949D010C949D010C949D010C949D01A4
S11300600C949D010C949D010C949D010C949D0194
S11300700C949D010C949D010C949D010C949D0184
S11300800C94B5080C949D010C949D010C949D0155
S11300900C949D010C949D010C9433040C949D01CB
S11300A00C949D010C949D010C949D017B056705A6
S11300B08E0567058E058E057B057B058E058E05F1
S11300C067058E0567057B05E105CD05F405CD05BE
S11300D0F405F405E105E105F405F405CD05F405A1
S11300E0CD05E105470633065A0633065A065A0675
S11300F0470647065A065A0633065A063306470683
S1130100B2069E06C5069E06C506C506B206B2061A
S1130110C506C5069E06C5069E06B2066E616E003D
S1130120696E660000407A10F35A00A0724E1809F6
S11301300010A5D4E80000E87648170000E40B544A
S1130140020000CA9A3B000000E1F5050000809619
S11301509800000040420F000000A086010000004B
S1130160102700000000E803000000006400000005
S113017000000A00000000000100000000002C76CE
S1130180D888DC674F0823DFC1DFAE59E1B1B796E9
S1130190E5E3E453C63AE651997696E8E6C2842646
S11301A0EB898C9B62ED407C6FFCEFBC9C9F40F222
S11301B0BAA56FA5F490055A2AF75C936B6CF9679E
S11301C06DC11BFCE0E40D47FEF520E6B500D0ED63
S11301D0902E0300943577050080841E08000020CB
S11301E04E0A000000C80C333333330F986E128369
S11301F01141EF8D2114893BE65516CFFEE6DB183D
S1130200D1844B381BF77C1D901DA4BBE424203201
S113021084725E228100C9F124ECA1E53D27636468
S1130220696E6F70737578585B00494D552046614F
S1130230696C65640D0A004D322072656164790D44
S11302400A004D322072656164790D0A00000100D4
S113025000E4021200020000A10243000300009D1A
S1130260020401030904890212020309048102063B
S11302700303090477020808033400310030000046
S11302800006034D003200000012034A002E002035
S1130290004600690065006E006500000004030963
S11302A00409024300020100C032090400000102F3
S11302B002010005240010010524010101042402A7
S11302C00605240600010705820310004009040105
S11302D000020A000000070503024000000705842D
S11302E0024000001201000202000010C0167A044D
S11302F00001010203010001C112018036018136AF
S113030011241FBECFEFDAE0DEBFCDBF11E0A0E0C5
S1130310B1E0EEE3F5E302C005900D92A235B1071A
S1130320D9F721E0A2E5B1E001C01D92A33FB207D5
S1130330E1F70E945D030C949D1A0C940000109246
S1130340C000E1ECF0E010821092C2001092C300F1
S11303501092BF001092BE008EE48093CF00A2E7FB
S1130360B0E08C9180648C9380818C60808308954C
S113037023E531E03F932F9327E531E03F932F931B
S11303802BE531E03F932F932DE531E03F932F93FD
S11303902FE531E03F932F9321E631E03F932F93F4
S11303A023E631E03F932F9327E631E03F932F93E9
S11303B027E031E03F932F939F938F930E940B1775
S11303C021E04DB75EB74C5E5F4F0FB6F8945EBF49
S11303D00FBE4DBF089709F020E0822F089521C079
S11303E00E94000A8A3011F08D3079F4E0916C019A
S11303F0EE23B9F0F0E0E359FE4F10828DE691E070
S11304000E94B80110926C010CC0E0916C01EF33B2
S113041040F491E09E0F90936C01F0E0E359FE4F9D
S113042080830E941E0A8111DBCF0895CF93DF934E
S1130430EC0103C021960E942D0A88818111FACF14
S1130440DF91CF9108952F923F924F925F926F92D6
S11304507F928F929F92AF92BF92CF92DF92EF9250
S1130460FF920F931F93CF93DF93CDB7DEB7C15B9A
S1130470D1090FB6F894DEBF0FBECDBFC955DF4F0B
S11304808883C75AD040AE014B555F4FBE016D55AE
S11304907F4FCE018F559F4F0E943908CF55DF4FB4
S11304A068817981C15AD040072E000C880B990BC2
S11304B00E94491020E030E040E85DE30E94FE1015
S11304C0C855DF4F6883C85AD040C755DF4F78837B
S11304D0C95AD040C655DF4F8883CA5AD040C55543
S11304E0DF4F9883CB5AD040CD55DF4F6881798157
S11304F0C35AD040072E000C880B990B0E94491058
S113050020E030E040E85DE30E94FE10C455DF4F78
S11305106883CC5AD040C355DF4F7883CD5AD0403E
S1130520C255DF4F8883CE5AD040C155DF4F9883E0
S1130530CF5AD040CB55DF4F68817981C55AD0401E
S1130540072E000C880B990B0E94491020E030E024
S113055040E85DE30E94FE10C055DF4F6883C05B36
S1130560D040CF54DF4F7883C15BD040182F092F80
S11305700E949B04B82EA92E0E94AB04982E892EAB
S11305800E94BB04782E692E0E94BF04582E492E67
S11305900E94C304382E292E0E94D406F62EE72E7C
S11305A0D82EC92E0E94DF061F92C955DF4F28811D
S11305B0C75AD0402F932F923F924F925F926F92DF
S11305C07F928F929F92AF92BF929F938F937F93CC
S11305D06F93CF92DF92EF92FF920F931F93CF54BA
S11305E0DF4F8881C15BD0408F93C055DF4F988126
S11305F0C05BD0409F93C155DF4F2881CF5AD04074
S11306002F93C255DF4F8881CE5AD0408F93C35564
S1130610DF4F9881CD5AD0409F93C455DF4F288136
S1130620CC5AD0402F93C555DF4F8881CB5AD04048
S11306308F93C655DF4F9881CA5AD0409F93C755B0
S1130640DF4F2881C95AD0402F93C855DF4F888186
S1130650C85AD0408F938FE191E09F938F931F925C
S113066080EA8F938E010F5F1F4F1F930F930E9499
S1130670DB160FB6F894DEBF0FBECDBFC8010E94D3
S113068016020E94710ACF54DF4F0FB6F894DEBFF2
S11306900FBECDBFDF91CF911F910F91FF90EF90CF
S11306A0DF90CF90BF90AF909F908F907F906F908E
S11306B05F904F903F902F9008952FEF31EE84E09C
S11306C0215030408040E1F700C000000E94E4095E
S11306D00E94FD098823E1F382E492E00E94300C39
S11306E00E947C080E94C7040E94460487E392E0AB
S11306F00E94300C0E941D070E94F707811104C05C
S11307008AE292E00E94300C0E949F01789481E07A
S11307100E94FF0881E00E94090981E00E941C09EF
S113072080E00E9426098FE39FE10197F1F700C062
S1130730000088E691E00E94300988E691E00E947A
S113074065099AEA26EE36E981E09150204030406E
S11307508040D9F700000E949C09D1E00E94EF017B
S11307600E94EA06C82F80915201882329F08C2F19
S11307700E94230210925201D111D0E0C111EECF98
S113078080916B01882309F45FC08090630190908D
S11307906401A0906501B0906601C501B4019F7722
S11307A02AE037ED43E25CE30E94F910181664F581
S11307B08091670190916801A0916901B0916A01EB
S11307C0BC01CD019F772FE632E143E85AE30E9452
S11307D0A10F8823CCF4C0905301D0905401E09031
S11307E05501F090560160915F017091600180E0C5
S11307F090E00E9447109B01AC0187017601C5017E
S1130800B4010E94760D1EC080905701909058014B
S1130810A0905901B0905A016091610170916201F8
S113082080E090E00E9447109B01AC016091670159
S1130830709168018091690190916A018501740148
S11308400E94480C10926B010E94310F882319F00A
S11308500E94160E83CF0E94730D882309F47ECF65
S11308600E94840C7BCF1F920F920FB60F9211241B
S11308708F931092BF001092BE0081E080935201CA
S11308808F910F900FBE0F901F901895ECE7F0E03A
S113089080E480838081807F8083EBE7F0E0808147
S11308A08F7D808387E880937A0083E780937E003E
S11308B00895883080F4ECE7F0E09081907F892BF4
S11308C08083EBE7F0E080818F7D808320E040E04F
S11308D050E0BA0123C0ECE7F0E09081907F8850AB
S11308E0892B8083EBE7F0E080818062808320E0C5
S11308F040E050E0BA0112C0EAE7F0E09081906471
S1130900908390917A0096FDFCCF8091780090912D
S11309107900480F591F611D711D2F5F243060F34A
S1130920DB01CA01B695A79597958795B695A795C6
S113093097958795089580E00E9459049C01ACE442
S1130940B4E00E946B152FEF33E040E050E00E94CA
S11309504315C901089581E00E9459049C01ACE447
S1130960B4E00E946B152FEF33E040E050E00E94AA
S11309704315C901089584E00E945904089585E04F
S11309800E945904089586E00E94590408958AB18A
S11309908B7F8AB98AB1877F8AB98BB184608BB91E
S11309A08BB188608BB9E9E6F0E080818061808357
S11309B080818F7D80838DB384608DBB80818064D2
S11309C0808380818F7780838DB388608DBB4A9BC1
S11309D002C022E001C020E099B193FB882780F98E
S11309E0822B8093AF018DB18F7B8DB98EB18064E2
S11309F08EB984B18F7E84B984B18F7784B985B17F
S1130A00806185B985B1806885B9EAE6F0E08081C6
S1130A108061808380818F7D80838DB380648DBB72
S1130A20E8E6F0E0808181608083EBE6F0E080819D
S1130A30806980831C9B02C022E001C020E09CB13D
S1130A4096FB882780F9822B8093AE011092B00127
S1130A501092B1011092B2011092B3011092B4013C
S1130A601092B5011092B6011092B70108951F9229
S1130A700F920FB60F9211242F933F938F939F934E
S1130A80AF93BF93EF93FF9339B129B123FB22278F
S1130A9020F932FB882780F990E0880F991F282BD2
S1130AA08091AF0190E0880F991F880F991FE22F62
S1130AB0E82B8E2FEE0F990BAA0BBB0BFC01319781
S1130AC0EE30F10558F5EA5AFF4F0C946515809104
S1130AD0B4019091B501A091B601B091B70101970D
S1130AE0A109B1098093B4019093B501A093B60113
S1130AF0B093B70113C08091B4019091B501A09156
S1130B00B601B091B7010196A11DB11D8093B40146
S1130B109093B501A093B601B093B7012093AF01B0
S1130B20FF91EF91BF91AF919F918F913F912F9141
S1130B300F900FBE0F901F9018951F920F920FB633
S1130B400F9211242F933F938F939F93AF93BF934F
S1130B50EF93FF9339B129B123FB222720F932FB0C
S1130B60882780F990E0880F991F282B8091AF0186
S1130B7090E0880F991F880F991FE22FE82B8E2F82
S1130B80EE0F990BAA0BBB0BFC013197EE30F1056C
S1130B9058F5EC59FF4F0C9465158091B401909170
S1130BA0B501A091B601B091B7010197A109B109AE
S1130BB08093B4019093B501A093B601B093B701AB
S1130BC013C08091B4019091B501A091B601B09188
S1130BD0B7010196A11DB11D8093B4019093B50195
S1130BE0A093B601B093B7012093AF01FF91EF91A9
S1130BF0BF91AF919F918F913F912F910F900FBE15
S1130C000F901F9018951F920F920FB60F921124F8
S1130C102F933F938F939F93AF93BF93EF93FF9340
S1130C2033B12CB126FB222720F934FB882780F925
S1130C3090E0880F991F282B8091AE0190E0880FD7
S1130C40991F880F991FE22FE82B8E2FEE0F990B17
S1130C50AA0BBB0BFC013197EE30F10558F5EE58A9
S1130C60FF4F0C9465158091B0019091B101A09152
S1130C70B201B091B3010197A109B1098093B00108
S1130C809093B101A093B201B093B30113C08091CA
S1130C90B0019091B101A091B201B091B30101965C
S1130CA0A11DB11D8093B0019093B101A093B20135
S1130CB0B093B3012093AE01FF91EF91BF91AF9137
S1130CC09F918F913F912F910F900FBE0F901F9086
S1130CD018951F920F920FB60F9211242F933F93E2
S1130CE08F939F93AF93BF93EF93FF931F9903C089
S1130CF021E02093AD0133B12CB126FB222720F94A
S1130D0034FB882780F990E0880F991F282B809165
S1130D10AE0190E0880F991F880F991FE22FE82BEE
S1130D208E2FEE0F990BAA0BBB0BFC013197EE3003
S1130D30F10558F5E058FF4F0C9465158091B0010A
S1130D409091B101A091B201B091B3010197A109B1
S1130D50B1098093B0019093B101A093B201B09313
S1130D60B30113C08091B0019091B101A091B2017F
S1130D70B091B3010196A11DB11D8093B001909370
S1130D80B101A093B201B093B3012093AE01FF91DE
S1130D90EF91BF91AF919F918F913F912F910F90C0
S1130DA00FBE0F901F901895F8946091B401709144
S1130DB0B5018091B6019091B70178940895F894A3
S1130DC06091B0017091B1018091B2019091B30131
S1130DD078940895F8948091AD011092AD017894BF
S1130DE0089594EA9093BC009091BC009923E4F791
S1130DF09091B900987F983011F09031C1F48093AC
S1130E00BB0084E88093BC008091BC008823E4F795
S1130E108091B900887F883121F0803421F491E0F9
S1130E2003C091E001C090E0892F8170089580E0B3
S1130E30089584E98093BC000895E9EBF0E0808193
S1130E408C7F808388E48093B80084E08093BC0026
S1130E5008950F931F93CF93DF93EB01142F880F03
S1130E600E94F106082F811119C01DC0FE01E90F6F
S1130E70F11D80818093BB0084E88093BC00809145
S1130E80BC008823E4F78091B900887F883221F080
S1130E900E94190700E007C09F5F01C090E091170E
S1130EA028F30E941907802FDF91CF911F910F9192
S1130EB008950F931F93CF93DF938B01C42F90E07A
S1130EC0880F991F81600E94F106D82F81112FC0CD
S1130ED033C0492F50E02C2F30E021503109421704
S1130EE0530711F484E801C084EC8093BC00809122
S1130EF0BC008823E4F7421753072CF48091B9000F
S1130F00887F803541F44217530749F48091B90032
S1130F10887F883521F00E941907D0E00DC0F801C0
S1130F20E90FF11D8091BB0080839F5F01C090E0B9
S1130F309C1778F20E9419078D2FDF91CF911F9192
S1130F400F910895CF93DF9300D0CDB7DEB7898397
S1130F506A8342E0BE016F5F7F4F88E20E942907E7
S1130F600F900F90DF91CF910895682F8DE30E9429
S1130F70A20708950F931F93CF93DF931F92CDB7CA
S1130F80DEB789838B0141E0BE016F5F7F4F88E24A
S1130F900E942907882329F041E0B80188E20E94D1
S1130FA059070F90DF91CF911F910F910895FF92F0
S1130FB00F931F93CF93DF931F92CDB7DEB789832F
S1130FC08B01F42E41E0BE016F5F7F4F88E20E94E7
S1130FD02907882329F04F2DB80188E20E94590778
S1130FE00F90DF91CF911F910F91FF9008951F9360
S1130FF0CF93DF931F92CDB7DEB70E941D071982EE
S1131000BE016F5F7F4F80E00E94BA07182F8823CC
S113101051F18981803A31F580E00E94B5072FE7CC
S113102088E391E0215080409040E1F700C0000047
S113103060E28FE30E94A2072FEF8CEB9FE1215027
S113104080409040E1F700C000008CE00E94B507AA
S11310502FEF89EF90E0215080409040E1F700C0ED
S1131060000001C010E0812F0F90DF91CF911F91FC
S11310700895CF92DF92EF92FF920F931F93CF9335
S1131080DF9300D000D000D0CDB7DEB76C017B0178
S11310908A0146E0BE016F5F7F4F8AE10E94D70755
S11310A08823D9F029818A8190E0982F8827822B80
S11310B0F601918380832B818C8190E0982F88277F
S11310C0822BF701918380832D818E8190E0982F6C
S11310D08827822BF8019183808326960FB6F89493
S11310E0DEBF0FBECDBFDF91CF911F910F91FF9057
S11310F0EF90DF90CF90089587B1806487B98AB16B
S113110080648AB984B1806484B984B1806284B90A
S11311108AB180618AB98AB180688AB988B18064E9
S113112088B98BB180648BB985B18F7B85B985B162
S1131130806285B98BB180618BB98BB18F778BB9A4
S113114090E49093900088E08093910090938000C5
S113115080938100E1E7F0E0808182608083EFE6A4
S1131160F0E080818260808308951F920F920FB611
S11311700F9211248F939F93AF93BF938091BC01DF
S11311809091BD01A091BE01B091BF010196A11D36
S1131190B11D8093BC019093BD01A093BE01B09397
S11311A0BF01BF91AF919F918F910F900FBE0F9090
S11311B01F9018951F920F920FB60F9211248F93C0
S11311C09F93AF93BF938091B8019091B901A0917F
S11311D0BA01B091BB010196A11DB11D8093B80164
S11311E09093B901A093BA01B093BB01BF91AF91A1
S11311F09F918F910F900FBE0F901F901895882389
S113120021F085B1806485B9089585B18F7B85B956
S11312100895882321F08BB180688BB908958BB130
S11312208F778BB90895CF93C82F0E94FF088C2F16
S11312300E940909CF910895882321F08BB180641D
S11312408BB908958BB18F7B8BB90895882321F0D6
S11312508BB180618BB908958BB18F7E8BB9089562
S11312609C01A8ECB0E00E946B152CE330E040E058
S113127050E00E944315012E1BE0220F331F441F30
S1131280551F1A95D1F7102D60E074E284EF90E0B9
S11312900E944315DA01C9010197A109B109009718
S11312A021E0A207B10520F08FEF9FEFA0E0B0E0AE
S11312B09093990080939800E1E9F0E08081887F21
S11312C0808380818560808308959C01A8ECB0E0D0
S11312D00E946B152CE330E040E050E00E9443157F
S11312E0012E1BE0220F331F441F551F1A95D1F7FF
S11312F0102D60E074E284EF90E00E944315DA015F
S1131300C9010197A109B1099093890080938800CC
S1131310E1E8F0E08081887F80838081856080833C
S11313200895CF93DF93EB010E943009CE010E9410
S11313306509DF91CF91089580E00E941309E1E8E7
S1131340F0E08081887F8083E1E9F0E08081887F1C
S1131350808308958FB7F8941092B8011092B90160
S11313601092BA011092BB011092BC011092BD01FF
S11313701092BE011092BF018FBF08952FB7F89449
S11313806091BC017091BD018091BE019091BF013B
S11313902FBF08952FB7F8946091B8017091B901E7
S11313A08091BA019091BB012FBF08950E94BE099C
S11313B0969587957795679508950E94CA0996959D
S11313C0879577956795089581E08093D70080EAA3
S11313D08093D80082E189BD09B400FEFDCF80E985
S11313E08093D8001092E0001092C3011092C001C3
S11313F08CE08093E200789408958091C30108956D
S11314009FB7F8948091C301811103C09FBF8FEFF0
S1131410089583E08093E9008091E80085FD03C08E
S11314209FBF8FEF08958091F1002091E80025FD82
S113143003C02BE62093E8009FBF08959FB7F8945C
S11314408091C301882331F083E08093E900809187
S1131450F20001C080E09FBF08959091C3019923D9
S1131460E1F19FB7F89424E02093E9002091C101B1
S1131470222349F02091E80025FD03C09FBF8FEF90
S113148008951092C1013091E400375E2091E80084
S113149025FD14C09FBF9091E400391305C081E07D
S11314A08093C1018FEF08959091C3019923B9F0FE
S11314B09FB7F89424E02093E900E8CF8093F100EB
S11314C08091E80085FD03C08AE38093E80085E00D
S11314D08093C2019FBF80E008958FEF08958FEF3E
S11314E008958FB7F8949091C201992341F094E044
S11314F09093E9009AE39093E8001092C2018FBFA1
S113150008951F920F920FB60F9211248F939F93F9
S1131510EF93FF93E1EEF0E08081108283FF11C02E
S11315201092E90091E09093EB001092EC0092E1AC
S11315309093ED0098E09093F0001092C301109204
S1131540C00182FF13C08091C301882379F0809188
S1131550C201882359F081508093C201811106C0D1
S113156084E08093E9008AE38093E800FF91EF919F
S11315709F918F910F900FBE0F901F9018951F92FF
S11315800F920FB60F9211242F933F934F935F93B3
S11315906F937F938F939F93AF93BF93CF93DF9377
S11315A0EF93FF931092E9008091E80083FF42C11A
S11315B0E1EFF0E0B081A0812081808190E0982F5C
S11315C08827822B4081208130E0322F2227B901E5
S11315D0642B4081208130E0322F2227F901E42B53
S11315E0AF0122EF2093E800A63009F051C0A0E03B
S11315F02DE432E0A63020F081E28093EB001DC19F
S1131600F901C591D4918C179D0719F0295F3F4FBB
S11316101CC0F9013296C591D4916C177D0719F05D
S1131620295F3F4F12C0F901349685919491F901D5
S1131630369664919A014F3F510519F010F02FEF3F
S113164030E0621720F0622F02C0AF5FD3CF209149
S1131650E800322F3570D9F322FDEFC0362F613107
S113166008F030E1232F09C0AC014F5F5F4FFC014C
S113167084918093F1002150CA012111F5CF631B9D
S11316802EEF2093E8006111E2CF303101F3D5C091
S1131690A53059F42EEF2093E8002091E80020FFB4
S11316A0FCCF80688093E300C8C0A93079F5B111FC
S11316B02DC08093C3011092C0011092C2018EEF1D
S11316C08093E80081E026EF32E018C08093E900BF
S11316D0A9014F5F5F4FF90194919093EB00992317
S11316E059F0FA0144914093EC003196E4912D5F56
S11316F03F4FE093ED0001C09A018F5F853030F3D6
S1131700EAEEF0E08EE18083108297C0A83071F495
S1131710B03861F48091E80080FFFCCF8091C30170
S11317208093F1008EEF8093E80087C0A132A9F482
S1131730B13A99F48091E80080FFFCCFE0E0F1E059
S113174080E005C090819093F1008F5F31968730DF
S1131750C8F38EEF8093E80070C0A032C1F4B132B8
S1131760B1F48091E80082FFFCCFE0E0F1E080E09A
S113177005C09091F10090838F5F31968730C8F354
S1131780E8EEF0E08BEF80838EEF808356C0A232C8
S113179061F4B13251F48093C0018091E80080FF7C
S11317A0FCCF8EEF8093E80048C0A1111BC080914C
S11317B0E80080FFFCCFB23861F46093E9008091C7
S11317C0EB0085FD02C080E001C081E01092E900D9
S11317D001C080E0E1EFF0E0808310828EEF80931F
S11317E0E8002BC0A13011F0A33021F5B23011F57F
S11317F0892B01F5262F2F778FEF820F8430D0F4B9
S11318008EEF8093E8002093E900A33021F481E275
S11318108093EB0012C089E18093EB0081E090E0BB
S113182002C0880F991F2A95E2F7EAEEF0E0808360
S1131830108203C081E28093EB00FF91EF91DF916E
S1131840CF91BF91AF919F918F917F916F915F9154
S11318504F913F912F910F900FBE0F901F901895AD
S11318600F931F93CF93FC018F010F5F1F4FC49100
S1131870CC2351F0CA3019F48DE00E942D0A8C2F2C
S11318800E942D0AF801F0CFCF911F910F91089576
S1131890EF92FF920F931F936093EF017093F00107
S11318A08093F1019093F2012093EB013093EC01CA
S11318B04093ED015093EE01E092E701F092E801CC
S11318C00093E9011093EA0184EE97EBABECB0E4EA
S11318D08093E3019093E401A093E501B093E601C2
S11318E00E94AA090E94D6096093DF017093E00167
S11318F08093E1019093E20181E08093DE011F91E6
S11319000F91FF90EF9008954F925F926F927F92A4
S11319108F929F92AF92BF92CF92DF92EF92FF92FB
S1131920CF93DF93CDB7DEB72C970FB6F894DEBF15
S11319300FBECDBF8091DE01882309F4BFC00E9491
S1131940D609C090DF01D090E001E090E101F09071
S1131950E2016C197D098E099F090E9447102091AC
S1131960E3013091E4014091E5015091E6010E94C8
S1131970A60F4B015C01C090EB01D090EC01E0900C
S1131980ED01F090EE01A7019601C701B6010E9496
S1131990FE102B013C016091E7017091E8018091F8
S11319A0E9019091EA019B01AC010E94350F6D831E
S11319B07E838F8398879B01AC01C301B2010E948F
S11319C0A60F69837A838B839C834090EF015090A8
S11319D0F0016090F1017090F2019B01AC01C30130
S11319E0B2010E94340F69877A878B879C8729818B
S11319F03A814B815C81C501B4010E94A10F882307
S1131A006CF42D813E814F815885C501B4010E943B
S1131A10FE100E9471116B017C011CC029853A855E
S1131A204B855C85C501B4010E94A10F882394F005
S1131A30A5019401C301B2010E94340F9B01AC01C2
S1131A406D817E818F8198850E94FE100E947111A4
S1131A506B017C0123E634E14DE154E4C701B60196
S1131A600E94A60F20E030E040E752E40E94FE10FE
S1131A7020E030E040E05FE30E94350F0E94181040
S1131A806B017C0181E00E941C0981E00E9426090F
S1131A90B601C6010E9491092091EF013091F00135
S1131AA04091F1015091F201C501B4010E94F91075
S1131AB0882324F00E949C091092DE012C960FB614
S1131AC0F894DEBF0FBECDBFDF91CF91FF90EF90B2
S1131AD0DF90CF90BF90AF909F908F907F906F904A
S1131AE05F904F9008958091DE0108954F925F9228
S1131AF06F927F928F929F92AF92BF92CF92DF921A
S1131B00EF92FF920F931F93CF934B015C01290136
S1131B103A016701780125E33AEF4EE85CE30E945D
S1131B20FE1020E030E844E853E40E94FE10DC019B
S1131B30CB01BF778093DA019093DB01A093DC01A2
S1131B40B093DD01C1E020E030E0A901C501B4019A
S1131B500E94F91018160CF0C0E0C093C40125E3EC
S1131B603AEF4EE85CE3C301B2010E94FE1020E0AC
S1131B7030E844E853E40E94FE10DC01CB01BF7757
S1131B808093D6019093D701A093D801B093D90143
S1131B9025E33AEF4EE85CE3C701B6010E94FE106C
S1131BA020E030E844E853E40E94FE10DC01CB015D
S1131BB0BF778093D2019093D301A093D401B093C3
S1131BC0D50184EE97EBABECB0E48093CE01909317
S1131BD0CF01A093D001B093D1010E94AA090E9421
S1131BE0D6096093CA017093CB018093CC01909382
S1131BF0CD010E94DD096093C6017093C7018093F3
S1131C00C8019093C90181E08093C501CF911F91D0
S1131C100F91FF90EF90DF90CF90BF90AF909F9087
S1131C208F907F906F905F904F9008954F925F9246
S1131C306F927F928F929F92AF92BF92CF92DF92D8
S1131C40EF92FF92CF93DF93CDB7DEB728970FB60D
S1131C50F894DEBF0FBECDBF8091C501882309F47F
S1131C60EBC00E94D609C090CA01D090CB01E0908D
S1131C70CC01F090CD014B015C018C189D08AE089D
S1131C80BF080E94DD09C090C601D090C701E09052
S1131C90C801F090C9019B01AC012C193D094E0902
S1131CA05F0969017A01C501B4010E94471080905F
S1131CB0CE019090CF01A090D001B090D101A501A8
S1131CC094010E94A60F2B013C01C701B6010E949A
S1131CD04710A50194010E94A60F9B01AC01C3010A
S1131CE0B2010E94350F20E030E040E05FE30E9443
S1131CF0FE104B015C01C090D601D090D701E0905A
S1131D00D801F090D901A7019601C701B6010E943C
S1131D10FE102B013C016091D2017091D30180919E
S1131D20D4019091D5019B01AC010E94350F6983C8
S1131D307A838B839C839B01AC01C301B2010E9413
S1131D40A60F6D837E838F8398879B01AC01C501A9
S1131D50B4010E94A10F88236CF429813A814B813C
S1131D605C81C501B4010E94FE100E9471116B01D7
S1131D707C012AC04090DA015090DB016090DC01C4
S1131D807090DD012D813E814F815885C301B201E0
S1131D900E94340F9B01AC01C501B4010E94A10F44
S1131DA0882394F0A5019401C301B2010E94340F69
S1131DB09B01AC0169817A818B819C810E94FE1018
S1131DC00E9471116B017C0123E634E14DE154E47E
S1131DD0C701B6010E94A60F20E030E040E752E4BC
S1131DE00E94FE1020E030E040E05FE30E94350FE7
S1131DF00E9418106B017C019091C40181E0892735
S1131E000E941C098091C4010E942609B601C601E2
S1131E100E9491092091DA013091DB014091DC01AB
S1131E205091DD01C501B4010E94F910882324F00A
S1131E300E949C091092C50128960FB6F894DEBF43
S1131E400FBECDBFDF91CF91FF90EF90DF90CF9089
S1131E50BF90AF909F908F907F906F905F904F90C6
S1131E6008958091C50108955058BB27AA270E9460
S1131E704C0F0C94BF100E94B11038F00E94B8109F
S1131E8020F039F49F3F19F426F40C94AE100EF4AC
S1131E90E095E7FB0C94A810E92F0E94D01058F3AA
S1131EA0BA17620773078407950720F079F4A6F53B
S1131EB00C94F2100EF4E0950B2EBA2FA02D0B010A
S1131EC0B90190010C01CA01A0011124FF27591B7B
S1131ED099F0593F50F4503E68F11A16F040A22F81
S1131EE0232F342F4427585FF3CF469537952795F2
S1131EF0A795F0405395C9F77EF41F16BA0B620BF1
S1131F00730B840BBAF09150A1F0FF0FBB1F661F37
S1131F10771F881FC2F70EC0BA0F621F731F841F7A
S1131F2048F4879577956795B795F7959E3F08F0A0
S1131F30B0CF9395880F08F09927EE0F9795879562
S1131F4008950E94841008F481E008950E94BA0F55
S1131F500C94BF100E94B81058F00E94B11040F0C9
S1131F6029F45F3F29F00C94A81051110C94F3103C
S1131F700C94AE100E94D01068F39923B1F355234A
S1131F8091F3951B550BBB27AA2762177307840788
S1131F9038F09F5F5F4F220F331F441FAA1FA9F31E
S1131FA035D00E2E3AF0E0E832D091505040E6950C
S1131FB0001CCAF72BD0FE2F29D0660F771F881F6D
S1131FC0BB1F261737074807AB07B0E809F0BB0B60
S1131FD0802DBF01FF2793585F4F3AF09E3F510574
S1131FE078F00C94A8100C94F3105F3FE4F3983E3F
S1131FF0D4F3869577956795B795F7959F5FC9F75D
S1132000880F911D9695879597F90895E1E0660FDD
S1132010771F881FBB1F621773078407BA0720F056
S1132020621B730B840BBA0BEE1F88F7E0950895BF
S11320300E94D81088F09F5798F0B92F9927B7516C
S1132040B0F0E1F0660F771F881F991F1AF0BA9558
S1132050C9F714C0B13091F00E94F210B1E00895B4
S11320600C94F210672F782F8827B85F39F0B93FA6
S1132070CCF3869577956795B395D9F73EF490950B
S11320808095709561957F4F8F4F9F4F0895E89489
S113209009C097FB3EF490958095709561957F4FAC
S11320A08F4F9F4F9923A9F0F92F96E9BB2793955A
S11320B0F695879577956795B795F111F8CFFAF46A
S11320C0BB0F11F460FF1BC06F5F7F4F8F4F9F4F9B
S11320D016C0882311F096E911C0772321F09EE8F9
S11320E0872F762F05C0662371F096E8862F70E05F
S11320F060E02AF09A95660F771F881FDAF7880F39
S11321009695879597F90895990F0008550FAA0B8E
S1132110E0E8FEEF16161706E807F907C0F01216F6
S11321201306E407F50798F0621B730B840B950BF9
S113213039F40A2661F0232B242B252B21F408954E
S11321400A2609F4A140A6958FEF811D811D0895EB
S113215097F99F6780E870E060E008959FEF80EC56
S1132160089500240A9416161706180609060895F9
S113217000240A9412161306140605060895092E5F
S11321800394000C11F4882352F0BB0F40F4BF2BCE
S113219011F460FF04C06F5F7F4F8F4F9F4F08950E
S11321A057FD9058440F551F59F05F3F71F0479504
S11321B0880F97FB991F61F09F3F79F087950895E9
S11321C0121613061406551FF2CF4695F1DF08C008
S11321D0161617061806991FF1CF86957105610525
S11321E008940895E894BB2766277727CB0197F9CD
S11321F008950E94841008F48FEF08950E9411112D
S11322000C94BF100E94B11038F00E94B81020F056
S1132210952311F00C94A8100C94AE1011240C9476
S1132220F3100E94D01070F3959FC1F3950F50E006
S1132230551F629FF001729FBB27F00DB11D639F74
S1132240AA27F00DB11DAA1F649F6627B00DA11D1A
S1132250661F829F2227B00DA11D621F739FB00DC0
S1132260A11D621F839FA00D611D221F749F332730
S1132270A00D611D231F849F600D211D822F762FC9
S11322806A2F11249F5750409AF0F1F088234AF0A6
S1132290EE0FFF1FBB1F661F771F881F9150504012
S11322A0A9F79E3F510580F00C94A8100C94F310EC
S11322B05F3FE4F3983ED4F3869577956795B79599
S11322C0F795E7959F5FC1F7FE2B880F911D9695B3
S11322D0879597F9089519F416F40C94AE100C949C
S11322E0B1110E94D810B8F39923C9F3B6F39F57DC
S11322F0550B87FF0E94BF110024A0E640EA90011D
S113230080585695979528F4805C660F771F881F30
S113231020F026173707480730F4621B730B840B31
S1132320202931294A2BA695179407942025312575
S11323304A2758F7660F771F881F20F0261737079C
S1132340480730F4620B730B840B200D311D411DC3
S1132350A09581F7B901842F9158880F9695879598
S113236008959F3F31F0915020F4879577956795B4
S1132370B795880F911D9695879597F90895915073
S11323805040660F771F881FD2F70895A0E1B0E090
S1132390ECECF1E10C947A157C011B016A01FC015F
S11323A017821682838181FF44C39E012F5F3F4FB2
S11323B03901F7019381F10193FD859193FF819197
S11323C01F01882309F431C3853239F493FD8591C3
S11323D093FF81911F01853239F4B70190E00E9487
S11323E09F1656016501E5CF10E0512C912CFFE1B9
S11323F0F915D8F08B3279F038F4803279F08332E1
S1132400A1F4F92DF0612EC08D3261F0803369F4AE
S1132410292D21602DC0392D3260932E892D8460A1
S1132420982E2AC0E92DE86015C097FC2DC020ED38
S1132430280F2A3088F496FE06C03AE0139F200D38
S11324401124122F19C08AE0589E200D1124522EF7
S1132450E92DE0629E2E10C08E3231F496FCE5C266
S1132460F92DF0649F2E08C08C3621F4292D2068A4
S1132470922E02C0883641F4F10193FD859193FFB9
S113248081911F018111B3CF9BEB980F933020F4FE
S1132490992D9061805E07C09BE9980F933008F0F6
S11324A066C1992D9F7E96FF16E09F73992E8536FF
S11324B019F49064992E08C0863621F4392F3068B7
S11324C0932E02C01111115097FE07C01C3350F413
S11324D044244394410E27E00BC0183038F027E021
S11324E017E005C027E09CE3492E02C0212F412CB0
S11324F0560184E0A80EB11CF601608171818281CD
S11325009381042DA3010E94B1156C01F981FC870C
S1132510F0FF02C0F3FF06C091FC06C092FE06C0A5
S113252000E205C00DE203C00BE201C000E08C85AF
S11325308C7019F001115AC29BC297FE10C04C0C4A
S1132540FC85F4FF04C08A81813309F44A9414148D
S113255074F528E0241578F588E0482E2CC096FC04
S11325602AC0812F90E08C159D059CF03CEFC3168A
S11325703FEFD30674F0892D8068982E0AC0E2E0FC
S1132580F0E0EC0FFD1FE10FF11D8081803319F4A1
S113259011501111F4CF97FE0EC044244394410E00
S11325A0812F90E0C816D9062CF41C1904C04424C9
S11325B0439401C010E097FE06C01C141D0434F4BB
S11325C0C601019605C085E090E002C081E090E07C
S11325D001110196112331F0212F30E02F5F3F4F7D
S11325E0820F931F252D30E08217930714F4581A95
S11325F001C0512C892D897049F4552039F0B70157
S113260080E290E00E949F165A94F7CF002329F0AD
S1132610B701802F90E00E949F1693FC09C05520BB
S113262039F0B70180E390E00E949F165A94F7CFE7
S113263097FE4CC04601D7FE02C0812C912CC601E6
S113264088199909F301E80FF91FFE87ED879601B0
S113265024193109388B2F87012F10E0119501952A
S113266011093FEF8316930629F4B7018EE290E037
S11326700E949F16C814D9044CF08F859889881538
S1132680990524F4ED85FE85818101C080E3F1E0A4
S11326908F1A91082D853E852F5F3F4F3E872D87EA
S11326A0801691062CF0B70190E00E949F16D9CFB6
S11326B0C814D90441F49A81963320F4953319F45B
S11326C03C8534FF81E3B70190E04EC08A818133B9
S11326D019F09C859F7E9C87B70190E00E949F160D
S11326E0111105C094FC18C085E690E017C0B7012D
S11326F08EE290E00E949F161E5F82E001E0080FC8
S1132700F301E80FF11D8081B70190E00E949F164C
S1132710802F0113F3CFE6CF85E490E0B7010E9448
S11327209F16D7FC06C0C114D10441F4EC85E4FF24
S113273005C0D194C194D1088DE201C08BE2B701E8
S113274090E00E949F1680E32AE0C216D1042CF088
S11327508F5FFAE0CF1AD108F7CFB70190E00E945B
S11327609F16B701C601C0960E949F1654C18336B6
S113277031F0833779F0833509F056C020C0560113
S113278032E0A30EB11CF6018081898301E010E0E0
S1132790630112C05601F2E0AF0EB11CF601C08015
S11327A0D18096FE03C0612F70E002C06FEF7FEF0F
S11327B0C6010E9494168C01F92DFF7714C05601AE
S11327C022E0A20EB11CF601C080D18096FE03C0A7
S11327D0612F70E002C06FEF7FEFC6010E9489167F
S11327E08C01F92DF0689F2EF3FD1AC0852D90E021
S11327F008171907A8F4B70180E290E00E949F1619
S11328005A94F4CFF60197FC859197FE81916F015C
S1132810B70190E00E949F1651105A94015011097B
S11328200115110579F7F7C0843611F0893661F581
S1132830560197FE09C024E0A20EB11CF601608186
S11328407181828193810AC0F2E0AF0EB11CF6015E
S113285060817181072E000C880B990BF92DFF768E
S11328609F2E97FF09C090958095709561957F4F35
S11328708F4F9F4FF0689F2E2AE030E0A3010E9403
S11328802417C82EC6183FC0092D853721F40F7EA2
S11328902AE030E01DC0097F8F3691F018F48835A6
S11328A059F0C3C0803719F0883711F0BEC00061F9
S11328B004FF09C0046007C094FE08C0066006C097
S11328C028E030E005C020E130E002C020E132E041
S11328D0560107FF09C084E0A80EB11CF60160810F
S11328E071818281938108C0F2E0AF0EB11CF601C0
S11328F06081718180E090E0A3010E942417C82EBA
S1132900C6180F77902E96FE0BC0092D0E7FC116A8
S113291050F494FE0AC092FC08C0092D0E7E05C036
S1132920DC2C092D03C0DC2C01C0D12E04FF0DC00A
S1132930FE01EC0DF11D8081803311F4097E09C084
S113294002FF06C0D394D39404C0802F867809F084
S1132950D39403FD11C000FF06C01C2DD51480F4D0
S1132960150D1D190DC0D51458F4B70180E290E07F
S11329700E949F16D394F7CFD51410F45D1801C0AC
S1132980512C04FF10C0B70180E390E00E949F1611
S113299002FF17C001FD03C088E790E002C088E58C
S11329A090E0B7010CC0802F867859F001FF02C077
S11329B08BE201C080E207FD8DE2B70190E00E9446
S11329C09F16C11638F4B70180E390E00E949F1669
S11329D01150F7CFCA94F301EC0DF11D8081B701BA
S11329E090E00E949F16C110F5CF15C0F4E0F515D4
S11329F060F584E0581A93FE1FC0011127C02C858E
S1132A0023FF2AC00CE111E0392D3071932EF80117
S1132A108491811124C0552009F4E4CCB70180E2EB
S1132A2090E00E949F165A94F6CFF7018681978111
S1132A3026C08FEF9FEF23C0B70180E290E00E9491
S1132A409F165A945110F8CFD8CF512CB701802F2C
S1132A5090E00E949F16D3CF00E211E0D5CF9110F1
S1132A608052B70190E00E949F160F5F1F4FCFCF97
S1132A7023E0251510F483E0BDCF512CC0CF609620
S1132A80E2E10C949615A1E21A2EAA1BBB1BFD01D0
S1132A900DC0AA1FBB1FEE1FFF1FA217B307E40739
S1132AA0F50720F0A21BB30BE40BF50B661F771F91
S1132AB0881F991F1A9469F7609570958095909571
S1132AC09B01AC01BD01CF010895EE0FFF1F0590DE
S1132AD0F491E02D0994A29FB001B39FC001A39F7C
S1132AE0700D811D1124911DB29F700D811D112443
S1132AF0911D08952F923F924F925F926F927F9211
S1132B008F929F92AF92BF92CF92DF92EF92FF92F9
S1132B100F931F93CF93DF93CDB7DEB7CA1BDB0BA5
S1132B200FB6F894DEBF0FBECDBF09942A8839884A
S1132B3048885F846E847D848C849B84AA84B98451
S1132B40C884DF80EE80FD800C811B81AA81B9815D
S1132B50CE0FD11D0FB6F894DEBF0FBECDBFED0171
S1132B600895283008F027E03327DA01990F311D42
S1132B7087FD916000966105710539F432602E5F1E
S1132B803D9330E32A95E1F708959F3F30F0803874
S1132B907105610509F03C5F3C5F3D93913008F09D
S1132BA08068911DDF93CF931F930F93FF92EF9251
S1132BB0192F987F9695E92F96959695E90FFF27FB
S1132BC0E258FE4F99273327EE24FF24A701E7019B
S1132BD005900894079428F4360FE71EF81E491F41
S1132BE0511D660F771F881F991F0694A1F7059042
S1132BF0079428F4E70EF81E491F561FC11D770FCE
S1132C00881F991F661F0694A1F70590079428F45E
S1132C10F80E491F561FC71FD11D880F991F661F25
S1132C20771F0694A1F70590079420F4490F561FC7
S1132C30C71FD81F990F661F771F881F0694A9F70F
S1132C4084911095177041F0D695C795579547957F
S1132C50F794E7941A95C1F7E4E2F1E068941590CB
S1132C60159135916591959105907FE27395E118E1
S1132C70F10A430B560BC90BD009C0F7E10CF11E46
S1132C80431F561FC91FD01D7EF4703311F48A955B
S1132C90E6CFE894015030F0080F0AF40027021739
S1132CA008F4202F2395022F7A3328F079E37D93BB
S1132CB02A95E9F710C07D932A9589F6069497958D
S1132CC06795379517951794E118F10A430B560B3E
S1132CD0C90BD00998F023957E9173957A3308F047
S1132CE070E37C932013B8F77E9170617D9330F08C
S1132CF0839571E37D9370E32A95E1F71124EF90B6
S1132D00FF900F911F91CF91DF91992787FD9095A7
S1132D100895FC010590615070400110D8F780952A
S1132D2090958E0F9F1F0895FC0161507040019093
S1132D300110D8F7809590958E0F9F1F08950F93DB
S1132D401F93CF93DF93FB01238121FD03C08FEFFA
S1132D509FEF2CC022FF16C0468157812481358104
S1132D604217530744F4A081B1819D012F5F3F4F67
S1132D70318320838C93268137812F5F3F4F3783A4
S1132D80268314C08B01EC01FB010084F185E02D46
S1132D900995892BE1F6D80116968D919C91179788
S1132DA0019617969C938E931697CE01DF91CF913F
S1132DB01F910F910895AEE0B0E0E1EEF6E10C94BE
S1132DC088150D891E898F89988D26E02C831A8396
S1132DD0098397FF02C080E090E801979E838D836A
S1132DE0AE01455E5F4F698D7A8DCE0101960E94DA
S1132DF0C6114D815E8157FD0AC02F813885421767
S1132E0053070CF49A01F801E20FF31F10822E9677
S1132E10E4E00C94A415AEE0B0E0E1E1F7E10C9439
S1132E208A1585E08C838B899C899A838983AE017A
S1132E30495E5F4F6D897E89CE0101960E941E19FD
S1132E402E96E2E00C94A615FA01AA27283051F137
S1132E50203181F1E8946F936E7F6E5F7F4F8F4FC7
S1132E609F4FAF4FB1E03ED0B4E03CD0670F781F26
S1132E70891F9A1FA11D680F791F8A1F911DA11D0B
S1132E806A0F711D811D911DA11D20D009F4689444
S1132E903F912AE0269F11243019305D3193DEF6EC
S1132EA0CF010895462F4770405D4193B3E00FD0A2
S1132EB0C9F7F6CF462F4F70405D4A3318F0495D8D
S1132EC031FD4052419302D0A9F7EACFB4E0A69570
S1132ED09795879577956795BA95C9F70097610592
S1132EE0710508959B01AC010A2E069457954795E8
S1132EF037952795BA95C9F7620F731F841F951FDD
S1132F00A01D089520FD09C0FC0123FD05C022FF7A
S1132F1002C07383628351834083089544FD17C0C4
S1132F2046FD17C0AB01BC01DA01FB01AA0FBB1FB0
S1132F30EE1FFF1F1094D1F74A0F5B1F6E1F7F1FF8
S1132F40CB01BA01660F771F881F991F09C033E0B0
S1132F5001C034E0660F771F881F991F3150D1F7E5
S1132F60620F711D811D911D08950F931F93CF93BF
S1132F70DF938C01C8010E94431AEC0197FD08C03D
S1132F800E942F1A892BB1F7B801CE010E94811A31
S1132F90CE01DF91CF911F910F9108958F929F924F
S1132FA0AF92BF92EF92FF920F931F93CF93DF9351
S1132FB08C01D62F7A01B22E0E94431A9C0133272A
S1132FC02B32310531F02D32310561F48B2D8068BF
S1132FD0B82ED15011F480E068C0C8010E94431A91
S1132FE097FDF9CFCB2DCD7F2B2D207309F58033A1
S1132FF0F9F4AA24AA94AD0E09F443C0C8010E94AE
S1133000431A97FD3EC09C012F7D33272835310597
S113301049F4C264D250A9F1C8010E94431A97FF2F
S113302007C02FC0B6FE02C0C26001C0C261DA2D63
S1133030812C912C540120ED280F283080F0C4FFFE
S113304004C0B8010E94811A19C02A3040F0C6FF9A
S1133050F8CF2F7D3FEE320F363098F727504C2FA4
S1133060C501B4010E948E174B015C01C260D150AE
S113307059F0C8010E94431A97FFDDCFC1FD04C077
S1133080AACF812C912C5401C7FF08C0B094A094FE
S113309090948094811C911CA11CB11C2C2FB5010F
S11330A0A401C7010E94821781E0DF91CF911F9193
S11330B00F91FF90EF90BF90AF909F908F900895E5
S11330C0A0E2B0E0E6E6F8E10C947D155C01962EF2
S11330D07A01F9018E010F5F1F4F680180E2D80168
S11330E01D928A95E9F7D50113968C9080E090E0C3
S11330F0612C712C30E061E070E083FC259183FE4B
S113310021918F01522E211103C080E090E092C0E2
S11331102E3511F4009751F1432F50E04817590709
S11331203CF42D3559F12D3219F4772009F103C0FF
S1133130772009F46AC0452D469546954695D601F3
S1133140A40FB11D452D47708B0102C0000F111F44
S11331504A95E2F7A8015C91452B4C93651459F00C
S1133160561410F45394E7CF5A94E5CF31E004C0D9
S11331707724739401C0712C0196BFCF772019F086
S11331808E8180628E83311103C08824839417C09A
S1133190F6019E012F5D3F4F8081809581932E170C
S11331A03F07D1F7F2CFE114F10429F0D7018C9352
S11331B0F70131967F019A94812C9920F9F0C50189
S11331C00E94431A97FD18C0FC01FF2723E0F595E0
S11331D0E7952A95E1F7EC0DFD1D208130E0AC0167
S11331E04770552702C0359527954A95E2F720FD8B
S11331F0DACFB5010E94811A811087CFE114F1045E
S113320011F0D7011C92C80115C0422F469546956E
S11332104695D601A40FB11D422F47708B0102C001
S1133220000F111F4A95E2F7A8015C91452B4C93BE
S1133230622EA2CFA096EFE00C949915A0E0B0E026
S1133240E4E2F9E10C947D156C01EB015A01FC01F7
S113325017821682512CF601E380FE01E3FC85916E
S1133260E3FE8191182FEF01882309F4EEC090E06A
S11332700E942F1A892B21F0C6010E94B517EBCFAB
S1133280153241F4FE01E3FC1591E3FE1191EF01C7
S1133290153281F4C6010E94431A97FDD4C0412F10
S11332A050E09C01332724173507A9F2B6010E9488
S11332B0811ACBC01A3239F4E3FC1591E3FE119163
S11332C0EF0101E001C000E0F12C20ED210F2A30D4
S11332D080F402606F2D70E080E090E040E20E9494
S11332E08E17F62EFE01E3FC1591E3FE1191EF011A
S11332F0ECCF01FF03C0F11003C0A7C0FF24FA9470
S1133300183619F01C3651F010C0FE01E3FC15917B
S1133310E3FE1191EF01183641F408600460FE01E8
S1133320E3FC1591E3FE1191EF01112309F48DC023
S1133330612F70E08EE192E00E94381A892B09F423
S113334084C000FD07C0F50180809180C50102960C
S11333505C0102C0812C912C1E3651F4F601468189
S1133360578160E070E0202FC4010E94821773CF60
S11333701336A9F401FD02C0FF24F394C6010E9490
S1133380431A97FD60C08114910429F0F4018083ED
S1133390C40101964C01FA94F110F0CF50C01B35D2
S11333A059F49E01A4016F2DC6010E946018EC011E
S11333B0892B09F044C03EC0C6010E94B51797FD91
S11333C042C01F3661F128F4143639F1193651F12F
S11333D028C0133771F0153701F123C0811491040B
S11333E029F0F4016082C40101964C01FA94FF2093
S11333F071F0C6010E94431A3C0197FD08C00E9467
S11334002F1A892B59F3B601C3010E94811A811422
S11334109104A9F0F401108212C0006203C000619B
S113342001C00064202FA4016F2DC6010E94CE1795
S1133430811105C0F6018381807329F406C000FD63
S11334400ACF539408CF552019F0852D90E002C07F
S11334508FEF9FEFCDB7DEB7EFE00C949915911184
S11334600C949A1A803219F089508550C8F708953F
S1133470FC010590061621F00020D9F7C00108953B
S11334803197CF010895CF93DF93EC012B8120FF77
S113349033C026FF0AC02F7B2B838E819F81019628
S11334A09F838E838A8190E029C022FF0FC0E88128
S11334B0F9818081082E000C990B009719F4206281
S11334C02B831AC03196F983E8830EC0EA85FB8505
S11334D0099597FF09C02B81019611F080E201C084
S11334E080E1822B8B8308C02E813F812F5F3F4F69
S11334F03F832E83992702C08FEF9FEFDF91CF91F7
S11335000895FB01238120FF12C026FD10C08F3FC8
S11335103FEF930761F082832F7D2064238326810C
S113352037812150310937832683992708958FEFF6
S11135309FEF0895992788270895F894FFCFF8
S113353E00E1000000000825662C25662C25752C5C
S113354E25752C25752C25752C25662C25660025B0
S113355E362E32662025362E32662025362E3266DB
S113356E202531306C64202531306C642025752083
S113357E25752025752025752025752025750D0AA0
S105358E000037
S9030000FC
