S01600006176725F636F6E74726F6C6C65722E7372656322
S11300000C9456000C9468000C9468000C946800DE
S11300100C9468000C9468000C9468000C946800BC
S11300200C9468000C9468000C9468000C946800AC
S11300300C9468000C9468000C9468000C9468009C
S11300400C9468000C9468000C9468000C9468008C
S11300500C9468000C9468000C9468000C9468007C
S11300600C9468000C9468000C9468000C9468006C
S11300700C9468000C9468000C9468000C9468005C
S11300800C9468000C9468000C9468000C9468004C
S11300900C9468000C9468000C9468000C9468003C
S11300A00C9468000C9468000C94680011241FBE22
S11300B0CFEFDAE0DEBFCDBF21E0A0E0B1E001C0C8
S11300C01D92A230B207E1F70E946A000C946D0100
S11300D00C9400000E94870081E00E94BC0081E033
S11300E00E94C60082E090E00E94D00082E090E08E
S11300F00E940A012AEA36EE86E991E02150304056
S113010080409040D9F700000E942B01FFCF8AB1B4
S113011080688AB98AB180648AB987B1806487B9F2
S113012084B1806284B984B1806184B980B3806809
S113013080BB8BB180688BB98BB180648BB988B17B
S11301408F7B88B985B1806285B985B1806185B9B5
S113015081B38F7781BB1092C00084E08093C2008A
S113016081E08093C3001092C10080E480938000FA
S113017088E0809381000895882321F088B1806409
S113018088B9089588B18F7B88B90895882321F0B0
S113019081B3806881BB089581B38F7781BB089553
S11301A09C01A8ECB0E00E945E012CE330E040E04A
S11301B050E00E943C01012E1BE0220F331F441F1C
S11301C0551F1A95D1F7102D60E074E284EF90E08A
S11301D00E943C0121503109309301012093000118
S11301E02F3F310539F030F08FEF90E0909301010B
S11301F080930001809100018093D10080910001DF
S113020090910101969587958093D20088E0809320
S1130210C10008959C01A8ECB0E00E945E012CE3AB
S113022030E040E050E00E943C01220F331F441FA5
S1130230551F60E074E284EF90E00E943C0121507D
S113024031093093890020938800E1E8F0E080814F
S113025081608083089580E00E94BC0080E00E9459
S1130260C600E1E8F0E08081887F8083E1ECF0E083
S11302708081807F80830895A1E21A2EAA1BBB1B74
S1130280FD010DC0AA1FBB1FEE1FFF1FA217B3075E
S1130290E407F50720F0A21BB30BE40BF50B661F74
S11302A0771F881F991F1A9469F760957095809538
S11302B090959B01AC01BD01CF010895A29FB001AF
S11302C0B39FC001A39F700D811D1124911DB29F86
S11102D0700D811D1124911D0895F894FFCF27
S9030000FC
