:100000000C94B7000C94D4000C94D4000C94D4003D
:100010000C94D4000C94D4000C94D4000C94D40010
:100020000C94D4000C94D4000C945D020C949B02AC
:100030000C94D4000C94D4000C94D4000C94D400F0
:100040000C94D4000C94D4000C94D4000C94D400E0
:100050000C94D4000C94D4000C94D4000C94D400D0
:100060000C94D4000C94D4000C94D4000C94D400C0
:100070000C94D4000C94D4000C94D4000C94D400B0
:100080000C94D4000C94D4000C94D4000C94D400A0
:100090000C94D4000C94D4000C94D4000C94D40090
:1000A0000C94D4000C94D4000C94D4000D0A004D90
:1000B000322072656164790D0A000001000051016F
:1000C00012000200000E0143000300000A010401B7
:1000D000030904F6001202030904EE0006030309F3
:1000E00004E4000808033400310030000000060377
:1000F0004D003200000012034A002E00200046008E
:10010000690065006E00650000000403090409022F
:100110004300020100C03209040000010202010094
:100120000524001001052401010104240206052410
:100130000600010705820310004009040100020ABD
:10014000000000070503024000000705840240008C
:10015000001201000202000010C0167A0400010122
:100160000203010001C11201803601813600112411
:100170001FBECFEFDAE0DEBFCDBF11E0A0E0B1E0FF
:10018000E4E6F9E002C005900D92A830B107D9F776
:1001900021E0A8E0B1E001C01D92AE30B207E1F766
:1001A0000E94D6000C94B0040C9400001F93CF93CF
:1001B000DF930E94250181E00E945A0181E00E94A4
:1001C000640182E090E00E946E0182E090E00E9473
:1001D000A8012FEF83ED90E3215080409040E1F79C
:1001E00000C000000E94CE010E94DF010E94F801C1
:1001F0008823E1F38FEA90E00E940C04C0E0D0E095
:100200001AC00E94FB01182F0E94190289E00E9467
:100210001902812F90E00E9424048CEA90E00E9451
:100220000C042FEF83ED90E3215080409040E1F7E4
:1002300000C000002196C83E23E0D20714F380E0FE
:1002400090E0DF91CF911F9108958AB180688AB9BB
:100250008AB180648AB987B1806487B984B18062C9
:1002600084B984B1806184B980B3806880BB8BB16C
:1002700080688BB98BB180648BB988B18F7B88B96A
:1002800085B1806285B985B1806185B981B38F7789
:1002900081BB1092C00084E08093C20081E0809313
:1002A000C3001092C10080E48093800088E08093B6
:1002B00081000895882321F088B1806488B9089569
:1002C00088B18F7B88B90895882321F081B3806835
:1002D00081BB089581B38F7781BB08959C01A8EC01
:1002E000B0E00E9477042CE330E040E050E00E9450
:1002F0005504012E1BE0220F331F441F551F1A9572
:10030000D1F7102D60E074E284EF90E00E94550474
:100310002150310930930901209308012F3F310505
:1003200039F030F08FEF90E090930901809308014D
:10033000809108018093D10080910801909109017A
:10034000969587958093D2008BE08093C1000895A5
:100350009C01A8ECB0E00E9477042CE330E040E080
:1003600050E00E945504012E1BE0220F331F441F52
:10037000551F1A95D1F7102D60E074E284EF90E0DC
:100380000E94550421503109309389002093880040
:10039000E1E8F0E0808185608083089580E00E943C
:1003A0005A0180E00E946401E1E8F0E08081887FEA
:1003B0008083E1ECF0E08081807F8083089581E09C
:1003C0008093D70080EA8093D80082E189BD09B488
:1003D00000FEFDCF80E98093D8001092E0001092DB
:1003E0000D0110920A018CE08093E2007894089548
:1003F00080910D0108959FB7F89480910D018111AE
:1004000003C09FBF8FEF089583E08093E900809140
:10041000E80085FD03C09FBF8FEF08958091F10034
:100420002091E80025FD03C02BE62093E8009FBF44
:10043000089590910D019923E1F19FB7F89424E07C
:100440002093E90020910B01222349F02091E8003C
:1004500025FD03C09FBF8FEF089510920B013091CF
:10046000E400375E2091E80025FD14C09FBF909105
:10047000E400391305C081E080930B018FEF0895EC
:1004800090910D019923B9F09FB7F89424E020933F
:10049000E900E8CF8093F1008091E80085FD03C07A
:1004A0008AE38093E80085E080930C019FBF80E0A1
:1004B00008958FEF08958FEF08951F920F920FB652
:1004C0000F9211248F939F93EF93FF93E1EEF0E04F
:1004D0008081108283FF11C01092E90091E0909317
:1004E000EB001092EC0092E19093ED0098E0909375
:1004F000F00010920D0110920A0182FF13C080914A
:100500000D01882379F080910C01882359F08150E6
:1005100080930C01811106C084E08093E9008AE396
:100520008093E800FF91EF919F918F910F900FBE04
:100530000F901F9018951F920F920FB60F921124D3
:100540002F933F934F935F936F937F938F939F93DB
:10055000AF93BF93CF93DF93EF93FF931092E90094
:100560008091E80083FF42C1E1EFF0E0B081A0811B
:100570002081808190E0982F8827822B40812081E4
:1005800030E0322F2227B901642B4081208130E0F6
:10059000322F2227F901E42BAF0122EF2093E8004C
:1005A000A63009F051C0A0E02AEB30E0A63020F0E0
:1005B00081E28093EB001DC1F901C591D4918C17A4
:1005C0009D0719F0295F3F4F1CC0F9013296C59174
:1005D000D4916C177D0719F0295F3F4F12C0F901C4
:1005E000349685919491F901369664919A014F3F22
:1005F000510519F010F02FEF30E0621720F0622F54
:1006000002C0AF5FD3CF2091E800322F3570D9F30D
:1006100022FDEFC0362F613108F030E1232F09C0F1
:10062000AC014F5F5F4FFC0184918093F10021503A
:10063000CA012111F5CF631B2EEF2093E800611151
:10064000E2CF303101F3D5C0A53059F42EEF20931D
:10065000E8002091E80020FFFCCF80688093E30051
:10066000C8C0A93079F5B1112DC080930D01109249
:100670000A0110920C018EEF8093E80081E023E6DE
:1006800031E018C08093E900A9014F5F5F4FF90185
:1006900094919093EB00992359F0FA01449140937F
:1006A000EC003196E4912D5F3F4FE093ED0001C0E7
:1006B0009A018F5F853030F3EAEEF0E08EE18083BF
:1006C000108297C0A83071F4B03861F48091E800CE
:1006D00080FFFCCF80910D018093F1008EEF80931D
:1006E000E80087C0A132A9F4B13A99F48091E800FA
:1006F00080FFFCCFE0E0F1E080E005C090819093C6
:10070000F1008F5F31968730C8F38EEF8093E80059
:1007100070C0A032C1F4B132B1F48091E80082FF20
:10072000FCCFE0E0F1E080E005C09091F100908323
:100730008F5F31968730C8F3E8EEF0E08BEF80836F
:100740008EEF808356C0A23261F4B13251F48093AF
:100750000A018091E80080FFFCCF8EEF8093E800D3
:1007600048C0A1111BC08091E80080FFFCCFB238C7
:1007700061F46093E9008091EB0085FD02C080E0A8
:1007800001C081E01092E90001C080E0E1EFF0E0FB
:10079000808310828EEF8093E8002BC0A13011F08F
:1007A000A33021F5B23011F5892B01F5262F2F77D3
:1007B0008FEF820F8430D0F48EEF8093E800209387
:1007C000E900A33021F481E28093EB0012C089E1BB
:1007D0008093EB0081E090E002C0880F991F2A957A
:1007E000E2F7EAEEF0E08083108203C081E28093BA
:1007F000EB00FF91EF91DF91CF91BF91AF919F916E
:100800008F917F916F915F914F913F912F910F90B9
:100810000FBE0F901F9018950F931F93CF93FC015D
:100820008F010F5F1F4FC491CC2351F0CA3019F4D0
:100830008DE00E9419028C2F0E941902F801F0CF5E
:10084000CF911F910F9108950F931F93CF93DF9333
:1008500000D000D000D0CDB7DEB7BE016F5F7F4FB4
:1008600026E0FB0111922A95E9F74AE00E948604EE
:1008700000E010E00CC0E1E0F0E0EC0FFD1FE00F45
:10088000F11F808181110E9419020F5F1F4F0530F7
:10089000110588F326960FB6F894DEBF0FBECDBFC4
:1008A000DF91CF911F910F910895A1E21A2EAA1BFB
:1008B000BB1BFD010DC0AA1FBB1FEE1FFF1FA21710
:1008C000B307E407F50720F0A21BB30BE40BF50B0D
:1008D000661F771F881F991F1A9469F76095709596
:1008E000809590959B01AC01BD01CF010895A29F19
:1008F000B001B39FC001A39F700D811D1124911DF4
:10090000B29F700D811D1124911D0895BB27FB011D
:100910005527AA27880F991FAA1FA41710F0A41BF8
:1009200083955051B9F7A05DAA3308F0A95DA19352
:10093000009779F7B111B1931192CB010C94A004F7
:10094000DC01FC01672F71917723E1F7329704C036
:100950007C916D9370836291AE17BF07C8F30895C1
:04096000F894FFCF39
:0809640000E1000000000800A2
:00000001FF
