S01600006176725F636F6E74726F6C6C65722E7372656322
S11300000C9475010C9492010C9492010C943E058D
S11300100C94A4050C9492010C9492010C940A067D
S11300200C9492010C9470060C94510E0C948F0E47
S11300300C9492010C9492010C9492010C949201F0
S11300400C9492010C94940B0C9492010C949201D4
S11300500C9492010C9492010C9492010C9443130D
S11300600C9492010C9492010C9492010C949201C0
S11300700C9492010C9492010C9492010C949201B0
S11300800C946F0B0C9492010C9492010C949201B9
S11300900C9492010C9492010C94AA040C94920175
S11300A00C9492010C9492010C94920182056E05B9
S11300B095056E05950595058205820595059505B9
S11300C06E0595056E058205E805D405FB05D40586
S11300D0FB05FB05E805E805FB05FB05D405FB0569
S11300E0D405E8054E063A0661063A06610661063D
S11300F04E064E06610661063A0661063A064E064B
S1130100B906A506CC06A506CC06CC06B906B906E2
S1130110CC06CC06A506CC06A506B9066E616E0013
S1130120696E660000407A10F35A00A0724E1809F6
S11301300010A5D4E80000E87648170000E40B544A
S1130140020000CA9A3B000000E1F5050000809619
S11301509800000040420F000000A086010000004B
S1130160102700000000E803000000006400000005
S113017000000A00000000000100000000002C76CE
S1130180D888DC674F0823DFC1DFAE59E1B1B796E9
S1130190E5E3E453C63AE651997696E8E6C2842646
S11301A0EB898C9B62ED407C6FFCEFBC9C9F40F222
S11301B0BAA56FA5F490055A2AF75C936B6CF9679E
S11301C06DC11BFCE0E40D47FEF520E6B500D0ED63
S11301D0902E0300943577050080841E08000020CB
S11301E04E0A000000C80C333333330F986E128369
S11301F01141EF8D2114893BE65516CFFEE6DB183D
S1130200D1844B381BF77C1D901DA4BBE424203201
S113021084725E228100C9F124ECA1E53D27636468
S1130220696E6F70737578585B00494D552046614F
S1130230696C65640D0A0000010000CE0212000220
S113024000008B0243000300008702040103090439
S1130250730212020309046B020603030904610218
S1130260080803340031003000000006034D00325A
S113027000000012034A002E0020004600690065B9
S1130280006E006500000004030904090243000233
S11302900100C0320904000001020201000524002B
S11302A010010524010101042402060524060001AD
S11302B00705820310004009040100020A0000003F
S11302C007050302400000070584024000001201F4
S11302D0000202000010C0167A04000101020301AA
S11302E00001C11201803601813611241FBECFEFF7
S11302F0DAE0DEBFCDBF11E0A0E0B1E0EAEAFEE360
S113030002C005900D92A43BB107D9F722E0A4EBFB
S1130310B1E001C01D92AD38B207E1F70E94F903C4
S11303200C94531F0C9400001092C000E1ECF0E018
S113033010821092C2001092C3001092BF0010925B
S1130340BE008DE78093CF00A2E7B0E08C9180647B
S11303508C9380818B60808308952DEB31E03F93F3
S11303602F9321EC31E03F932F9325EC31E03F9321
S11303702F9327EC31E03F932F9329EC31E03F9307
S11303802F932BEC31E03F932F932DEC31E03F93EF
S11303902F9321ED31E03F932F932BE031E03F93F6
S11303A02F939F938F930E94C11B21E04DB75EB79B
S11303B04C5E5F4F0FB6F8945EBF0FBE4DBF0897FB
S11303C009F020E0822F089521C00E94D00D8A30C8
S11303D011F08D3079F4E091D601EE23B9F0F0E01C
S11303E0E952FE4F108287ED91E00E94AD01109218
S11303F0D6010CC0E091D601EF3340F491E09E0F9A
S11304009093D601F0E0E952FE4F80830E94EE0DF6
S11304108111DBCF0895CF93DF93EC0103C02196C4
S11304200E94FD0D88818111FACFDF91CF9108954B
S11304302F923F924F925F926F927F928F929F92F0
S1130440AF92BF92CF92DF92EF92FF920F931F93DE
S1130450CF93DF93CDB7DEB7C858D1090FB6F89460
S1130460DEBF0FBECDBF0E942509CF57DF4F688383
S1130470C158D040CE57DF4F7883C258D040CD57B3
S1130480DF4F8883C358D040CC57DF4F9883C4587C
S1130490D0400E945809CB57DF4F6883C558D040DD
S11304A0CA57DF4F7883C658D040C957DF4F888377
S11304B0C758D040C857DF4F9883C858D0400E94CF
S11304C08B09162F072FF82EE92E0E94AA09D62E83
S11304D0C72EB82EA92E0E94C909962E872E782ED3
S11304E0692E0E94D209562E472E382E292E0E949C
S11304F0DB090E94BA149F938F937F936F932F927B
S11305003F924F925F926F927F928F929F92AF929F
S1130510BF92CF92DF92EF92FF920F931F93C8572F
S1130520DF4F8881C858D0408F93C957DF4F9881D7
S1130530C758D0409F93CA57DF4F8881C658D040D0
S11305408F93CB57DF4F9881C558D0409F93CC579A
S1130550DF4F8881C458D0408F93CD57DF4F9881A7
S1130560C358D0409F93CE57DF4F8881C258D040A4
S11305708F93CF57DF4F9881C158D0409F9383E228
S113058091E09F938F931F9280E88F938E010F5F6A
S11305901F4F1F930F930E94911B0FB6F894DEBF59
S11305A00FBECDBFC8010E940B020E94410EC85766
S11305B0DF4F0FB6F894DEBF0FBECDBFDF91CF91F2
S11305C01F910F91FF90EF90DF90CF90BF90AF906D
S11305D09F908F907F906F905F904F903F902F905F
S11305E008952F923F924F925F926F927F928F92D3
S11305F09F92AF92BF92CF92DF92EF92FF920F93AE
S11306001F93CF93DF93CDB7DEB7C557D1090FB68C
S1130610F894DEBF0FBECDBFAC968FAFAC97AE01E2
S113062047595F4FBE0169597F4FCE018B599F4F88
S11306300E942C0BA7966EAD7FADA797072E000CDA
S1130640880B990B0E94BC1420E030E040E85DE385
S11306500E947115AD966FAFAD97AE967FAFAE9712
S1130660AF968FAFAF97E0969FAFE097A9966EAD28
S11306707FADA997072E000C880B990B0E94BC1420
S113068020E030E040E85DE30E947115E1966FAF31
S1130690E197E2967FAFE297E3968FAFE397E49614
S11306A09FAFE497AB966EAD7FADAB97072E000C72
S11306B0880B990B0E94BC1420E030E040E85DE315
S11306C00E947115E5966FAFE597E6967FAFE697C2
S11306D0182F092F0E941205B82EA92E0E94220558
S11306E0982E892E0E943205782E692E0E94360596
S11306F0582E492E0E943A05382E292E0E94DB06D8
S1130700F62EE72ED82EC92E0E94E6061F92AC962E
S11307102FADAC972F932F923F924F925F926F928F
S11307207F928F929F92AF92BF929F938F937F936A
S11307306F93CF92DF92EF92FF920F931F93E696FF
S11307408FADE6978F93E5969FADE5979F93E496DB
S11307502FADE4972F93E3968FADE3978F93E296B3
S11307609FADE2979F93E1962FADE1972F93E0968B
S11307708FADE0978F93AF969FADAF979F93AE9653
S11307802FADAE972F93AD968FADAD978F9382E833
S113079091E09F938F931F9284E68F938E010F5F56
S11307A01F4F1F930F930E94911B0FB6F894DEBF47
S11307B00FBECDBFC8010E940B020E94410ECB5850
S11307C0DF4F0FB6F894DEBF0FBECDBFDF91CF91E0
S11307D01F910F91FF90EF90DF90CF90BF90AF905B
S11307E09F908F907F906F905F904F903F902F904D
S11307F008952FEF81EE94E0215080409040E1F77E
S113080000C000000E94B70D0E943A130E94D60B4C
S11308100E947C070E94BD040E94100A0E94EA0AFA
S1130820811104C08AE292E00E9400100E949401A7
S113083078940E940C07C82F8091BC018823C9F3C7
S11308401092BC010E94EE070E94E40100E010E057
S113085020E231E440E050E06AE773E484EB91E0A5
S11308600E949E0CC11170C08091D501882309F4A7
S11308705FC08090CD019090CE01A090CF01B09048
S1130880D001C501B4019F772AE037ED43E25CE370
S11308900E946C15181664F58091D1019091D201D3
S11308A0A091D301B091D401BC01CD019F772FE673
S11308B032E143E85AE30E9414148823CCF4C09034
S11308C0BD01D090BE01E090BF01F090C0016091E5
S11308D0C9017091CA0180E090E00E94BA149B01A2
S11308E0AC0187017601C501B4010E947C111EC0D0
S11308F08090C1019090C201A090C301B090C40146
S11309006091CB017091CC0180E090E00E94BA1418
S11309109B01AC016091D1017091D2018091D3010E
S11309209091D401850174010E9418101092D50190
S11309300E943713882319F00E941C1205C00E94DC
S1130940791181110E946D100E9418028C2F0E944F
S1130950F1026FCF1F920F920FB60F9211248F9353
S11309601092BF001092BE0081E08093BC018F9171
S11309700F900FBE0F901F901895ECE7F0E080E405
S113098080838081807F8083EBE7F0E080818F7DAE
S1130990808387E880937A0083E780937E000895BC
S11309A0883080F4ECE7F0E09081907F892B80839D
S11309B0EBE7F0E080818F7D808320E040E050E031
S11309C0BA0123C0ECE7F0E09081907F8850892B36
S11309D08083EBE7F0E080818062808320E040E068
S11309E050E0BA0112C0EAE7F0E09081906490838D
S11309F090917A0096FDFCCF8091780090917900D7
S1130A00480F591F611D711D2F5F243060F3DB01F6
S1130A10CA01B695A79597958795B695A795979585
S1130A208795089580E00E94D0049C01ACE4B4E072
S1130A300E94DE192FEF33E040E050E00E94B61927
S1130A40C901089581E00E94D0049C01ACE4B4E0A3
S1130A500E94DE192FEF33E040E050E00E94B61907
S1130A60C901089584E00E94D004089585E00E949D
S1130A70D004089586E00E94D00408951F920F9236
S1130A800FB60F9211242F933F938F939F93AF939D
S1130A90BF93EF93FF9339B129B123FB222720F9A8
S1130AA032FB882780F990E0880F991F282B8091CA
S1130AB0410290E0880F991F880F991FE22FE82BBD
S1130AC08E2FEE0F990BAA0BBB0BFC013197EE3066
S1130AD0F10558F5EA5AFF4F0C94D8198091460253
S1130AE090914702A0914802B09149020197A1094F
S1130AF0B1098093460290934702A0934802B093B1
S1130B00490213C08091460290914702A091480285
S1130B10B09149020196A11DB11D809346029093A4
S1130B204702A0934802B093490220934102FF91E7
S1130B30EF91BF91AF919F918F913F912F910F9022
S1130B400FBE0F901F9018951F920F920FB60F9221
S1130B5011242F933F938F939F93AF93BF93EF935E
S1130B60FF9339B129B123FB222720F932FB8827CF
S1130B7080F990E0880F991F282B8091410290E022
S1130B80880F991F880F991FE22FE82B8E2FEE0FE5
S1130B90990BAA0BBB0BFC013197EE30F10558F50C
S1130BA0EC59FF4F0C94D81980914602909147025A
S1130BB0A0914802B09149020197A109B10980931B
S1130BC0460290934702A0934802B093490213C08F
S1130BD08091460290914702A0914802B091490247
S1130BE00196A11DB11D8093460290934702A093E4
S1130BF04802B093490220934102FF91EF91BF91C3
S1130C00AF919F918F913F912F910F900FBE0F90B5
S1130C101F9018951F920F920FB60F9211242F93C5
S1130C203F938F939F93AF93BF93EF93FF9333B10E
S1130C302CB126FB222720F934FB882780F990E089
S1130C40880F991F282B8091400290E0880F991FEC
S1130C50880F991FE22FE82B8E2FEE0F990BAA0B0A
S1130C60BB0BFC013197EE30F10558F5EE58FF4F00
S1130C700C94D8198091420290914302A0914402AD
S1130C80B09145020197A109B10980934202909362
S1130C904302A0934402B093450213C080914202E0
S1130CA090914302A0914402B09145020196A11D86
S1130CB0B11D8093420290934302A0934402B093E7
S1130CC0450220934002FF91EF91BF91AF919F9114
S1130CD08F913F912F910F900FBE0F901F901895F9
S1130CE01F920F920FB60F9211242F933F938F935D
S1130CF09F93AF93BF93EF93FF931F9903C021E09A
S1130D002093170233B12CB126FB222720F934FBA0
S1130D10882780F990E0880F991F282B8091400242
S1130D2090E0880F991F880F991FE22FE82B8E2FD0
S1130D30EE0F990BAA0BBB0BFC013197EE30F105BA
S1130D4058F5E058FF4F0C94D819809142029091C5
S1130D504302A0914402B09145020197A109B1094F
S1130D608093420290934302A0934402B0934502BD
S1130D7013C08091420290914302A0914402B09129
S1130D8045020196A11DB11D809342029093430236
S1130D90A0934402B093450220934002FF91EF9147
S1130DA0BF91AF919F918F913F912F910F900FBE63
S1130DB00F901F901895F894609146027091470225
S1130DC0809148029091490278940895F894609132
S1130DD042027091430280914402909145027894BA
S1130DE00895F89410924602109247021092480215
S1130DF01092490278940895F89410924202109245
S1130E0043021092440210924502789408950E947D
S1130E10F1060E94FC060895F894809117027894D4
S1130E200895CF93CFB7F89481E061C01092460241
S1130E3010924702109248021092490210923C020A
S1130E4010923D0210923E0210923F021092420212
S1130E5010924302109244021092450210923802FA
S1130E601092390210923A0210923B021092280218
S1130E701092290210922A0210922B0210922C0234
S1130E8010922D0210922E0210922F021092200224
S1130E901092210210922202109223021092240234
S1130EA01092250210922602109227020E948213A9
S1130EB0209318023093190240931A0250931B0294
S1130EC060931C0270931D0280931E0290931F0274
S1130ED081E090E0A0E0B0E08093000190930101F4
S1130EE0A0930201B09303011092170280E08111D4
S1130EF09DCFCFBFCF9108958AB18B7F8AB98AB134
S1130F00877F8AB98BB184608BB98BB188608BB9C8
S1130F10E9E6F0E080818061808380818F7D808339
S1130F208DB384608DBB80818064808380818F7762
S1130F3080838DB388608DBB4A9B02C022E001C0D0
S1130F4020E099B193FB882780F9822B809341029A
S1130F508DB18F7B8DB98EB180648EB984B18F7E53
S1130F6084B984B18F7784B985B1806185B985B13D
S1130F70806885B9EAE6F0E08081806180838081C1
S1130F808F7D80838DB380648DBBE8E6F0E0808143
S1130F9081608083EBE6F0E08081806980831C9B24
S1130FA002C022E001C020E09CB196FB882780F9B2
S1130FB0822B8093400210924202109243021092BC
S1130FC04402109245021092460210924702109277
S1130FD04802109249020E94110708954F925F92AD
S1130FE06F927F928F929F92AF92BF92CF92DF9235
S1130FF0EF92FF92CF93DF93CDB7DEB728970FB66A
S1131000F894DEBF0FBECDBF0E94821329833A83BA
S11310104B835C836D837E838F83988780911802D2
S113102090911902A0911A02B0911B0229813A8170
S11310304B815C81281B390B4A0B5B0B209300010D
S1131040309301014093020150930301232B242B7D
S1131050252B61F481E090E0A0E0B0E080930001F2
S113106090930101A0930201B0930301398130935D
S113107018024A81409319025B8150931A028C81B1
S113108080931B022D8120931C023E8130931D020C
S11310904F8140931E02588550931F029FB7F894C6
S11310A081E011C08090460290904702A0904802CF
S11310B0B0904902C0904202D0904302E0904402B2
S11310C0F090450280E08111EDCF9FBF80913C02FA
S11310D090913D02A0913E02B0913F02A50194017E
S11310E0281B390B4A0B5B0BCA01B901209334024C
S11310F030933502409336025093370240903802C1
S11311005090390260903A0270903B02A701960118
S1131110241935094609570929013A012093300257
S113112030933102409332025093330280923C0256
S113113090923D02A0923E02B0923F02C0923802C9
S1131140D0923902E0923A02F0923B020E94BC141F
S11311502DEF3DEA40E85CE30E9471156B017C01D0
S1131160C301B2010E94BC142DEF3DEA40E85CE3E8
S11311700E9471152B013C019B01AC01C701B60112
S11311800E94A81320E030E040E05FE30E94711564
S11311904B015C0160932C0270932D0280932E020C
S11311A090932F02A7019601C301B2010E94A713D5
S11311B02AEF3EEA4AEE5DE30E9471156B017C0161
S11311C0609328027093290280932A0290932B0241
S11311D0A501940160912402709125028091260258
S11311E0909127020E94A813609324027093250211
S11311F08093260290932702A70196016091200212
S11312007091210280912202909123020E94A813DE
S11312106093200270932102809322029093230210
S113122028960FB6F894DEBF0FBECDBFDF91CF91E5
S1131230FF90EF90DF90CF90BF90AF909F908F90F2
S11312407F906F905F904F900895CF92DF92EF92CE
S1131250FF92609134027091350280913602909130
S113126037020E94BC142DEF3DEA40E85CE30E9483
S113127071156B017C0160910001709101018091F5
S11312800201909103010E94BA149B01AC0160E039
S113129074E284E799E40E9419149B01AC01C7012C
S11312A0B6010E947115FF90EF90DF90CF900895E2
S11312B0CF92DF92EF92FF926091300270913102EF
S11312C080913202909133020E94BC142DEF3DEACA
S11312D040E85CE30E9471156B017C0160910001A0
S11312E07091010180910201909103010E94BA144E
S11312F09B01AC0160E074E284E799E40E94191454
S11313009B01AC01C701B6010E947115FF90EF90DB
S1131310DF90CF9008956091000170910101809158
S11313200201909103010E94BA149B01AC0160E098
S113133074E284E799E40E9419149B01AC01609162
S11313402C0270912D0280912E0290912F020E9406
S1131350711508956091000170910101809102015D
S1131360909103010E94BA149B01AC0160E074E205
S113137084E799E40E9419149B01AC01609128024E
S11313807091290280912A0290912B020E9471157A
S11313900895609124027091250280912602909113
S11313A02702089560912002709121028091220207
S11313B09091230208956091000170910101809140
S11313C0020190910301089594EA9093BC009091D6
S11313D0BC009923E4F79091B900987F983011F0FC
S11313E09031C1F48093BB0084E88093BC00809169
S11313F0BC008823E4F78091B900887F883121F00C
S1131400803421F491E003C091E001C090E0892F81
S11314108170089580E0089584E98093BC00089564
S1131420E9EBF0E080818C7F808388E48093B800CE
S113143084E08093BC0008950F931F93CF93DF93B0
S1131440EB01142F880F0E94E409082F811119C0A1
S11314501DC0FE01E90FF11D80818093BB0084E86B
S11314608093BC008091BC008823E4F78091B9008C
S1131470887F883221F00E940C0A00E007C09F5F39
S113148001C090E0911728F30E940C0A802FDF918D
S1131490CF911F910F9108950F931F93CF93DF93D3
S11314A08B01C42F90E0880F991F81600E94E4098A
S11314B0D82F81112FC033C0492F50E02C2F30E09A
S11314C0215031094217530711F484E801C084EC18
S11314D08093BC008091BC008823E4F74217530733
S11314E02CF48091B900887F803541F4421753076A
S11314F049F48091B900887F883521F00E940C0A54
S1131500D0E00DC0F801E90FF11D8091BB0080838C
S11315109F5F01C090E09C1778F20E940C0A8D2F07
S1131520DF91CF911F910F910895CF93DF9300D056
S1131530CDB7DEB789836A8342E0BE016F5F7F4F18
S113154088E20E941C0A0F900F90DF91CF910895BA
S1131550682F8DE30E94950A08950F931F93CF93EC
S1131560DF931F92CDB7DEB789838B0141E0BE01C3
S11315706F5F7F4F88E20E941C0A882329F041E0B4
S1131580B80188E20E944C0A0F90DF91CF911F911D
S11315900F910895FF920F931F93CF93DF931F92A0
S11315A0CDB7DEB789838B01F42E41E0BE016F5FB6
S11315B07F4F88E20E941C0A882329F04F2DB8012E
S11315C088E20E944C0A0F90DF91CF911F910F91F6
S11315D0FF9008951F93CF93DF931F92CDB7DEB78B
S11315E00E94100A1982BE016F5F7F4F80E00E9443
S11315F0AD0A182F882351F18981803A31F580E0B2
S11316000E94A80A2FE788E391E02150804090408F
S1131610E1F700C0000060E28FE30E94950A2FEF1B
S11316208CEB9FE1215080409040E1F700C0000026
S11316308CE00E94A80A2FEF89EF90E021508040AF
S11316409040E1F700C0000001C010E0812F0F902E
S1131650DF91CF911F910895CF92DF92EF92FF9285
S11316600F931F93CF93DF9300D000D000D0CDB75A
S1131670DEB76C017B018A0146E0BE016F5F7F4FDC
S11316808AE10E94CA0A8823D9F029818A8190E0DC
S1131690982F8827822BF601918380832B818C815C
S11316A090E0982F8827822BF701918380832D81E6
S11316B08E8190E0982F8827822BF8019183808374
S11316C026960FB6F894DEBF0FBECDBFDF91CF9143
S11316D01F910F91FF90EF90DF90CF9008951F928C
S11316E00F920FB60F9211248F939F93AF93BF93D2
S11316F080914E0290914F02A0915002B0915102FC
S11317000196A11DB11D80934E0290934F02A093A8
S11317105002B0935102BF91AF919F918F910F905E
S11317200FBE0F901F9018951F920F920FB60F9235
S113173011248F939F93AF93BF9380914A0290910A
S11317404B02A0914C02B0914D020196A11DB11D16
S113175080934A0290934B02A0934C02B0934D02A3
S1131760BF91AF919F918F910F900FBE0F901F90DB
S11317701895882321F085B1806485B9089585B1D1
S11317808F7B85B90895882321F08BB180688BB94C
S113179008958BB18F778BB90895CF93C82F0E948A
S11317A0B90B8C2F0E94C30BCF91089587B180642D
S11317B087B98AB180648AB984B1806484B984B1F8
S11317C0806284B98AB180618AB98AB180688AB931
S11317D088B1806488B98BB180648BB985B18F7B03
S11317E085B985B1806285B98BB180618BB98BB1C4
S11317F08F778BB990E49093900088E08093910068
S11318009093800080938100E1E7F0E08081826022
S11318108083EFE6F0E080818260808381E00E9433
S1131820CD0B0895882321F08BB180648BB9089582
S11318308BB18F7B8BB90895882321F08BB18061A4
S11318408BB908958BB18F7E8BB908959C01A0ED5F
S1131850B7E00E94DE190E94BA1423E634E14DE198
S113186054E40E9419140E948B149B01AC01012EB4
S11318701BE0220F331F441F551F1A95D1F7102D5B
S113188060E074E284EF90E00E94B619DA01C901C5
S11318900197A109B109009721E0A207B10520F041
S11318A08FEF9FEFA0E0B0E09093990080939800B1
S11318B0E1E9F0E08081887F808380818560808396
S11318C008959C01A0EDB7E00E94DE190E94BA14AD
S11318D023E634E14DE154E40E9419140E948B1470
S11318E09B01AC01012E1BE0220F331F441F551F27
S11318F01A95D1F7102D60E074E284EF90E00E9415
S1131900B619DA01C9010197A109B10990938900B7
S113191080938800E1E8F0E08081887F8083808183
S1131920856080830895CF93DF93EB010E94260C9A
S1131930CE010E94610CDF91CF9108954F925F9286
S11319406F927F928F929F92AF92BF92CF92DF92CB
S1131950EF92FF920F931F93FC014A015B01C901AF
S1131960B80180829182A282B38204831583268384
S1131970378320E030E04AEF53E40E9471152BEDE9
S11319803FE049E450E40E94711520E030E044EB6C
S113199053E40E9419142B013C019B01AC01C501C5
S11319A0B4010E94A7136B017C01A3019201C5013C
S11319B0B4010E94A8134B015C0120E030E0A901AE
S11319C0C701B6010E946C151816FCF420E030E043
S11319D0A901C501B4010E946C151816B4F481E084
S11319E00E94120C80E00E941C0CC501B4010E94EC
S11319F08B144B015C01C701B6010E948B14DC01FE
S1131A00CB01B4010E94930C6FC020E030E0A90127
S1131A10C701B6010E94141488231CF520E030E0AD
S1131A20A901C501B4010E946C151816D4F480E014
S1131A300E94120C80E00E941C0CF7FAF094F7F854
S1131A40F094C501B4010E948B144B015C01C701E1
S1131A50B6010E948B14DC01CB01B4010E94930CEB
S1131A6043C020E030E0A901C701B6010E946C1513
S1131A70181604F520E030E0A901C501B4010E9464
S1131A8014148823BCF481E00E94120C81E00E94AB
S1131A901C0CC501B40190580E948B144B015C01CD
S1131AA0C701B6010E948B14DC01CB01B4010E9472
S1131AB0930C1AC080E00E94120C81E00E941C0C5E
S1131AC0C501B4019058F7FAF094F7F8F0940E9425
S1131AD08B144B015C01C701B6010E948B14DC011D
S1131AE0CB01B4010E94930C1F910F91FF90EF90D2
S1131AF0DF90CF90BF90AF909F908F907F906F902A
S1131B005F904F90089580E00E94CD0BE1E8F0E0F3
S1131B108081887F8083E1E9F0E08081887F808311
S1131B2008952FB7F89460914E0270914F028091FE
S1131B305002909151022FBF08952FB7F8946091ED
S1131B404A0270914B0280914C0290914D022FBF3A
S1131B5008950E94910D96958795779567950895B8
S1131B600E949D0D9695879577956795089581E0D8
S1131B708093D70080EA8093D80082E189BD09B4BC
S1131B8000FEFDCF80E98093D8001092E00010920F
S1131B905502109252028CE08093E20078940895EA
S1131BA09FB7F89480915502811103C09FBF8FEFB6
S1131BB0089583E08093E9008091E80085FD03C0E7
S1131BC09FBF8FEF08958091F1002091E80025FDDB
S1131BD003C02BE62093E8009FBF08959FB7F894B5
S1131BE080915502882331F083E08093E90080914D
S1131BF0F20001C080E09FBF08959091550299239F
S1131C00E1F19FB7F89424E02093E9002091530276
S1131C10222349F02091E80025FD03C09FBF8FEFE8
S1131C200895109253023091E400375E2091E80049
S1131C3025FD14C09FBF9091E400391305C081E0D5
S1131C40809353028FEF0895909155029923B9F030
S1131C509FB7F89424E02093E900E8CF8093F10043
S1131C608091E80085FD03C08AE38093E80085E065
S1131C70809354029FBF80E008958FEF08958FEF03
S1131C8008958FB7F89490915402992341F094E009
S1131C909093E9009AE39093E800109254028FBF66
S1131CA008951F920F920FB60F9211248F939F9352
S1131CB0EF93FF93E1EEF0E08081108283FF11C087
S1131CC01092E90091E09093EB001092EC0092E105
S1131CD09093ED0098E09093F000109255021092CA
S1131CE0520282FF13C080915502882379F08091BB
S1131CF05402882359F0815080935402811106C004
S1131D0084E08093E9008AE38093E800FF91EF91F7
S1131D109F918F910F900FBE0F901F9018951F9257
S1131D200F920FB60F9211242F933F934F935F930B
S1131D306F937F938F939F93AF93BF93CF93DF93CF
S1131D40EF93FF931092E9008091E80083FF42C172
S1131D50E1EFF0E0B081A0812081808190E0982FB4
S1131D608827822B4081208130E0322F2227B9013D
S1131D70642B4081208130E0322F2227F901E42BAB
S1131D80AF0122EF2093E800A63009F051C0A0E093
S1131D9027E332E0A63020F081E28093EB001DC1FE
S1131DA0F901C591D4918C179D0719F0295F3F4F14
S1131DB01CC0F9013296C591D4916C177D0719F0B6
S1131DC0295F3F4F12C0F901349685919491F9012E
S1131DD0369664919A014F3F510519F010F02FEF98
S1131DE030E0621720F0622F02C0AF5FD3CF2091A2
S1131DF0E800322F3570D9F322FDEFC0362F613160
S1131E0008F030E1232F09C0AC014F5F5F4FFC01A4
S1131E1084918093F1002150CA012111F5CF631BF5
S1131E202EEF2093E8006111E2CF303101F3D5C0E9
S1131E30A53059F42EEF2093E8002091E80020FF0C
S1131E40FCCF80688093E300C8C0A93079F5B11154
S1131E502DC08093550210925202109254028EEFBC
S1131E608093E80081E020EE32E018C08093E9001E
S1131E70A9014F5F5F4FF90194919093EB0099236F
S1131E8059F0FA0144914093EC003196E4912D5FAE
S1131E903F4FE093ED0001C09A018F5F853030F32E
S1131EA0EAEEF0E08EE18083108297C0A83071F4EE
S1131EB0B03861F48091E80080FFFCCF8091550236
S1131EC08093F1008EEF8093E80087C0A132A9F4DB
S1131ED0B13A99F48091E80080FFFCCFE4E0F1E0AE
S1131EE080E005C090819093F1008F5F3196873038
S1131EF0C8F38EEF8093E80070C0A032C1F4B13211
S1131F00B1F48091E80082FFFCCFE4E0F1E080E0EE
S1131F1005C09091F10090838F5F31968730C8F3AC
S1131F20E8EEF0E08BEF80838EEF808356C0A23220
S1131F3061F4B13251F4809352028091E80080FF41
S1131F40FCCF8EEF8093E80048C0A1111BC08091A4
S1131F50E80080FFFCCFB23861F46093E90080911F
S1131F60EB0085FD02C080E001C081E01092E90031
S1131F7001C080E0E1EFF0E0808310828EEF809377
S1131F80E8002BC0A13011F0A33021F5B23011F5D7
S1131F90892B01F5262F2F778FEF820F8430D0F411
S1131FA08EEF8093E8002093E900A33021F481E2CE
S1131FB08093EB0012C089E18093EB0081E090E014
S1131FC002C0880F991F2A95E2F7EAEEF0E08083B9
S1131FD0108203C081E28093EB00FF91EF91DF91C7
S1131FE0CF91BF91AF919F918F917F916F915F91AD
S1131FF04F913F912F910F900FBE0F901F90189506
S11320000F931F93CF93FC018F010F5F1F4FC49158
S1132010CC2351F0CA3019F48DE00E94FD0D8C2FB1
S11320200E94FD0DF801F0CFCF911F910F910895FB
S1132030CF92DF92EF92FF920F931F9360938102EE
S113204070938202809383029093840220937D0292
S113205030937E0240937F0250938002E092790293
S1132060F0927A0200937B0210937C0284EE97EB49
S1132070ABECB0E48093750290937602A093770260
S1132080B09378020E94DB066B017C010E94E60695
S1132090AB01BC014C0D5D1D6E1D7F1DDB01CA0132
S11320A077231CF40196A11DB11DB595A7959795AD
S11320B087958093710290937202A0937302B093F8
S11320C074020E94070781E0809370021F910F91B0
S11320D0FF90EF90DF90CF9008954F925F926F92B0
S11320E07F928F929F92AF92BF92CF92DF92EF92A4
S11320F0FF920F931F93CF93DF93CDB7DEB72C9747
S11321000FB6F894DEBF0FBECDBF80917002882356
S113211009F4D8C00E94DB066B017C010E94E6062C
S1132120AB01BC014C0D5D1D6E1D7F1DDB01CA01A1
S113213077231CF40196A11DB11DB595A79597951C
S1132140879540917102509172026091730270916F
S113215074028C019D01041B150B260B370BC9015E
S1132160B8010E94BA142091750230917602409110
S11321707702509178020E9419144B015C01C090BF
S11321807D02D0907E02E0907F02F0908002A70151
S11321909601C701B6010E9471152B013C016091A3
S11321A0790270917A0280917B0290917C029B016A
S11321B0AC010E94A8136D837E838F8398879B0153
S11321C0AC01C301B2010E94191469837A838B8321
S11321D09C834090810250908202609083027090B0
S11321E084029B01AC01C301B2010E94A713698759
S11321F07A878B879C8729813A814B815C81C501D1
S1132200B4010E94141488236CF42D813E814F8103
S11322105885C501B4010E9471150E94E4156B0133
S11322207C011CC029853A854B855C85C501B401B8
S11322300E941414882394F0A5019401C301B201EF
S11322400E94A7139B01AC016D817E818F819885CB
S11322500E9471150E94E4156B017C0123E634E1B0
S11322604DE154E4C701B6010E94191420E030E0A6
S113227040E752E40E94711520E030E040E05FE363
S11322800E94A8130E948B146B017C0181E00E94C0
S1132290120C81E00E941C0CB601C6010E94930C32
S11322A020918102309182024091830250918402F4
S11322B0C501B4010E946C15882324F00E94830D8B
S11322C0109270022C960FB6F894DEBF0FBECDBFED
S11322D0DF91CF911F910F91FF90EF90DF90CF90FE
S11322E0BF90AF909F908F907F906F905F904F9032
S11322F008958091700208954F925F926F927F9239
S11323008F929F92AF92BF92CF92DF92EF92FF9201
S11323100F931F93CF934B015C0129013A0167018D
S1132320780125E33AEF4EE85CE30E94711520E062
S113233030E04AE753E40E947115DC01CB01BF771A
S113234080936C0290936D02A0936E02B0936F021F
S1132350C1E020E030E0A901C501B4010E946C1580
S113236018160CF0C0E0C093560225E33AEF4EE88D
S11323705CE3C301B2010E94711520E030E04AE73A
S113238053E40E947115DC01CB01BF77809368028E
S113239090936902A0936A02B0936B0225E33AEF2B
S11323A04EE85CE3C701B6010E94711520E030E0FD
S11323B04AE753E40E947115DC01CB01BF77809397
S11323C0640290936502A0936602B093670284EE60
S11323D097EBABECB0E48093600290936102A0931E
S11323E06202B09363020E94DB0660935C02709306
S11323F05D0280935E0290935F020E94E606609302
S113240058027093590280935A0290935B020E947F
S1132410070781E080935702CF911F910F91FF909E
S1132420EF90DF90CF90BF90AF909F908F907F9070
S11324306F905F904F9008954F925F926F927F924A
S11324408F929F92AF92BF92CF92DF92EF92FF92C0
S1132450CF93DF93CDB7DEB728970FB6F894DEBFDE
S11324600FBECDBF80915702882309F4EBC00E94B0
S1132470A90DC0905C02D0905D02E0905E02F090E5
S11324805F024B015C018C189D08AE08BF080E94D6
S1132490B00DC0905802D0905902E0905A02F090CA
S11324A05B029B01AC012C193D094E095F096901CE
S11324B07A01C501B4010E94BA1480906002909020
S11324C06102A0906202B0906302A50194010E948F
S11324D019142B013C01C701B6010E94BA14A501CD
S11324E094010E9419149B01AC01C301B2010E9422
S11324F0A81320E030E040E05FE30E9471154B0137
S11325005C01C0906802D0906902E0906A02F09089
S11325106B02A7019601C701B6010E9471152B0138
S11325203C01609164027091650280916602909111
S113253067029B01AC010E94A81369837A838B8391
S11325409C839B01AC01C301B2010E9419146D83E9
S11325507E838F8398879B01AC01C501B4010E94DF
S1132560141488236CF429813A814B815C81C50160
S1132570B4010E9471150E94E4156B017C012AC00C
S113258040906C0250906D0260906E0270906F02E9
S11325902D813E814F815885C301B2010E94A7134A
S11325A09B01AC01C501B4010E941414882394F06A
S11325B0A5019401C301B2010E94A7139B01AC01C0
S11325C069817A818B819C810E9471150E94E41536
S11325D06B017C0123E634E14DE154E4C701B6010B
S11325E00E94191420E030E040E752E40E94711583
S11325F020E030E040E05FE30E94A8130E948B14C7
S11326006B017C019091560281E089270E94120C93
S1132610809156020E941C0CB601C6010E94930CC4
S113262020916C0230916D0240916E0250916F02C4
S1132630C501B4010E946C15882324F00E94830D07
S11326401092570228960FB6F894DEBF0FBECDBF86
S1132650DF91CF91FF90EF90DF90CF90BF90AF903C
S11326609F908F907F906F905F904F90089580918E
S113267057020895F89414BC82E085BD81E08093EC
S11326806E00789408951F920F920FB60F92112442
S11326902F933F934F935F936F937F938F939F9366
S11326A0AF93209185023091860240918702509128
S11326B088026091890270918A0280918B029091C4
S11326C08C02A1E00E945B1A20938502309386025B
S11326D040938702509388026093890270938A0220
S11326E080938B0290938C02AF919F918F917F91F5
S11326F06F915F914F913F912F910F900FBE0F906B
S11327001F9018950F93FFB7F8942091850230918C
S113271086024091870250918802609189027091EB
S11327208A0280918B0290918C02E6B5A89B05C029
S1132730EF3F19F0A1E00E945B1AFFBF08E00E947E
S1132740241A2E2B01E00E943F1A0F91089550582D
S1132750BB27AA270E94BF130C9432150E9424158C
S113276038F00E942B1520F039F49F3F19F426F419
S11327700C9421150EF4E095E7FB0C941B15E92F3E
S11327800E94431558F3BA17620773078407950725
S113279020F079F4A6F50C9465150EF4E0950B2E53
S11327A0BA2FA02D0B01B90190010C01CA01A0019F
S11327B01124FF27591B99F0593F50F4503E68F1FA
S11327C01A16F040A22F232F342F4427585FF3CF3B
S11327D0469537952795A795F0405395C9F77EF40C
S11327E01F16BA0B620B730B840BBAF09150A1F055
S11327F0FF0FBB1F661F771F881FC2F70EC0BA0FDB
S1132800621F731F841F48F4879577956795B79562
S1132810F7959E3F08F0B0CF9395880F08F099275D
S1132820EE0F9795879508950E94F71408F481E0B8
S113283008950E942D140C9432150E942B1558F003
S11328400E94241540F029F45F3F29F00C941B15D5
S113285051110C9466150C9421150E94431568F3CC
S11328609923B1F3552391F3951B550BBB27AA2745
S113287062177307840738F09F5F5F4F220F331F7F
S1132880441FAA1FA9F335D00E2E3AF0E0E832D047
S113289091505040E695001CCAF72BD0FE2F29D04A
S11328A0660F771F881FBB1F261737074807AB071C
S11328B0B0E809F0BB0B802DBF01FF2793585F4F91
S11328C03AF09E3F510578F00C941B150C94661554
S11328D05F3FE4F3983ED4F3869577956795B79573
S11328E0F7959F5FC9F7880F911D9695879597F97E
S11328F00895E1E0660F771F881FBB1F62177307F7
S11329008407BA0720F0621B730B840BBA0BEE1F0B
S113291088F7E09508950E944B1588F09F5798F02A
S1132920B92F9927B751B0F0E1F0660F771F881FD0
S1132930991F1AF0BA95C9F714C0B13091F00E94EA
S11329406515B1E008950C946515672F782F8827D5
S1132950B85F39F0B93FCCF3869577956795B39511
S1132960D9F73EF490958095709561957F4F8F4F80
S11329709F4F0895E89409C097FB3EF49095809585
S1132980709561957F4F8F4F9F4F9923A9F0F92F31
S113299096E9BB279395F695879577956795B795AF
S11329A0F111F8CFFAF4BB0F11F460FF1BC06F5F95
S11329B07F4F8F4F9F4F16C0882311F096E911C0A7
S11329C0772321F09EE8872F762F05C0662371F0C8
S11329D096E8862F70E060E02AF09A95660F771FDC
S11329E0881FDAF7880F9695879597F90895990FB8
S11329F00008550FAA0BE0E8FEEF16161706E807C5
S1132A00F907C0F012161306E407F50798F0621BE5
S1132A10730B840B950B39F40A2661F0232B242BBA
S1132A20252B21F408950A2609F4A140A6958FEFD9
S1132A30811D811D089597F99F6780E870E060E02B
S1132A4008959FEF80EC089500240A941616170643
S1132A5018060906089500240A941216130614068B
S1132A6005060895092E0394000C11F4882352F0EE
S1132A70BB0F40F4BF2B11F460FF04C06F5F7F4FA6
S1132A808F4F9F4F089557FD9058440F551F59F08D
S1132A905F3F71F04795880F97FB991F61F09F3F47
S1132AA079F087950895121613061406551FF2CF70
S1132AB04695F1DF08C0161617061806991FF1CFC0
S1132AC086957105610508940895E894BB276627E7
S1132AD07727CB0197F908950E94F71408F48FEF34
S1132AE008950E9484150C9432150E94241538F020
S1132AF00E942B1520F0952311F00C941B150C94B7
S1132B00211511240C9466150E94431570F3959FAA
S1132B10C1F3950F50E0551F629FF001729FBB27D0
S1132B20F00DB11D639FAA27F00DB11DAA1F649F6C
S1132B306627B00DA11D661F829F2227B00DA11D1F
S1132B40621F739FB00DA11D621F839FA00D611DA5
S1132B50221F749F3327A00D611D231F849F600DC6
S1132B60211D822F762F6A2F11249F5750409AF0EF
S1132B70F1F088234AF0EE0FFF1FBB1F661F771F7B
S1132B80881F91505040A9F79E3F510580F00C9446
S1132B901B150C9466155F3FE4F3983ED4F38695B9
S1132BA077956795B795F795E7959F5FC1F7FE2BE6
S1132BB0880F911D9695879597F9089519F416F441
S1132BC00C9421150C9424160E944B15B8F39923E8
S1132BD0C9F3B6F39F57550B87FF0E9432160024A2
S1132BE0A0E640EA900180585695979528F4805CB9
S1132BF0660F771F881F20F026173707480730F421
S1132C00621B730B840B202931294A2BA695179438
S1132C100794202531254A2758F7660F771F881F08
S1132C2020F026173707480730F4620B730B840B28
S1132C30200D311D411DA09581F7B901842F9158B4
S1132C40880F9695879508959F3F31F0915020F411
S1132C50879577956795B795880F911D9695879574
S1132C6097F9089591505040660F771F881FD2F747
S1132C700895A0E1B0E0EFE3F6E10C94ED197C01D6
S1132C801B016A01FC0117821682838181FF44C300
S1132C909E012F5F3F4F3901F7019381F10193FDAD
S1132CA0859193FF81911F01882309F431C38532F3
S1132CB039F493FD859193FF81911F01853239F495
S1132CC0B70190E00E94551B56016501E5CF10E065
S1132CD0512C912CFFE1F915D8F08B3279F038F4AE
S1132CE0803279F08332A1F4F92DF0612EC08D3257
S1132CF061F0803369F4292D21602DC0392D3260B3
S1132D00932E892D8460982E2AC0E92DE86015C081
S1132D1097FC2DC020ED280F2A3088F496FE06C0BB
S1132D203AE0139F200D1124122F19C08AE0589EF7
S1132D30200D1124522EE92DE0629E2E10C08E32F9
S1132D4031F496FCE5C2F92DF0649F2E08C08C3650
S1132D5021F4292D2068922E02C0883641F4F10115
S1132D6093FD859193FF81911F018111B3CF9BEB5B
S1132D70980F933020F4992D9061805E07C09BE9F1
S1132D80980F933008F066C1992D9F7E96FF16E048
S1132D909F73992E853619F49064992E08C086364F
S1132DA021F4392F3068932E02C01111115097FE6F
S1132DB007C01C3350F444244394410E27E00BC055
S1132DC0183038F027E017E005C027E09CE3492ECF
S1132DD002C0212F412C560184E0A80EB11CF6013B
S1132DE06081718182819381042DA3010E94671AFD
S1132DF06C01F981FC87F0FF02C0F3FF06C091FC6F
S1132E0006C092FE06C000E205C00DE203C00BE25C
S1132E1001C000E08C858C7019F001115AC29BC26C
S1132E2097FE10C04C0CFC85F4FF04C08A818133EA
S1132E3009F44A94141474F528E0241578F588E00C
S1132E40482E2CC096FC2AC0812F90E08C159D053D
S1132E509CF03CEFC3163FEFD30674F0892D8068D5
S1132E60982E0AC0E2E0F0E0EC0FFD1FE10FF11D27
S1132E708081803319F411501111F4CF97FE0EC0E4
S1132E8044244394410E812F90E0C816D9062CF4B3
S1132E901C1904C04424439401C010E097FE06C0EA
S1132EA01C141D0434F4C601019605C085E090E0AD
S1132EB002C081E090E001110196112331F0212F2D
S1132EC030E02F5F3F4F820F931F252D30E0821794
S1132ED0930714F4581A01C0512C892D897049F4B0
S1132EE0552039F0B70180E290E00E94551B5A94B6
S1132EF0F7CF002329F0B701802F90E00E94551BE3
S1132F0093FC09C0552039F0B70180E390E00E949A
S1132F10551B5A94F7CF97FE4CC04601D7FE02C00A
S1132F20812C912CC60188199909F301E80FF91F26
S1132F30FE87ED87960124193109388B2F87012FDD
S1132F4010E01195019511093FEF8316930629F4BA
S1132F50B7018EE290E00E94551BC814D9044CF0CE
S1132F608F8598898815990524F4ED85FE858181DE
S1132F7001C080E3F1E08F1A91082D853E852F5F13
S1132F803F4F3E872D87801691062CF0B70190E0C5
S1132F900E94551BD9CFC814D90441F49A819633A1
S1132FA020F4953319F43C8534FF81E3B70190E0B4
S1132FB04EC08A81813319F09C859F7E9C87B7011E
S1132FC090E00E94551B111105C094FC18C085E6C1
S1132FD090E017C0B7018EE290E00E94551B1E5F7F
S1132FE082E001E0080FF301E80FF11D8081B701D1
S1132FF090E00E94551B802F0113F3CFE6CF85E4A8
S113300090E0B7010E94551BD7FC06C0C114D1043F
S113301041F4EC85E4FF05C0D194C194D1088DE25C
S113302001C08BE2B70190E00E94551B80E32AE0C7
S1133030C216D1042CF08F5FFAE0CF1AD108F7CF73
S1133040B70190E00E94551BB701C601C0960E94CB
S1133050551B54C1833631F0833779F0833509F039
S113306056C020C0560132E0A30EB11CF601808187
S1133070898301E010E0630112C05601F2E0AF0E53
S1133080B11CF601C080D18096FE03C0612F70E0B0
S113309002C06FEF7FEFC6010E944A1B8C01F92D1D
S11330A0FF7714C0560122E0A20EB11CF601C080C5
S11330B0D18096FE03C0612F70E002C06FEF7FEFF6
S11330C0C6010E943F1B8C01F92DF0689F2EF3FD71
S11330D01AC0852D90E008171907A8F4B70180E2FB
S11330E090E00E94551B5A94F4CFF60197FC859109
S11330F097FE81916F01B70190E00E94551B51101A
S11331005A94015011090115110579F7F7C0843655
S113311011F0893661F5560197FE09C024E0A20E2C
S1133120B11CF60160817181828193810AC0F2E051
S1133130AF0EB11CF60160817181072E000C880B63
S1133140990BF92DFF769F2E97FF09C090958095D6
S1133150709561957F4F8F4F9F4FF0689F2E2AE0A7
S113316030E0A3010E94DA1BC82EC6183FC0092D07
S1133170853721F40F7E2AE030E01DC0097F8F36A9
S113318091F018F4883559F0C3C0803719F08837A6
S113319011F0BEC0006104FF09C0046007C094FEC2
S11331A008C0066006C028E030E005C020E130E039
S11331B002C020E132E0560107FF09C084E0A80EF6
S11331C0B11CF601608171818281938108C0F2E0B3
S11331D0AF0EB11CF6016081718180E090E0A30123
S11331E00E94DA1BC82EC6180F77902E96FE0BC0CD
S11331F0092D0E7FC11650F494FE0AC092FC08C03B
S1133200092D0E7E05C0DC2C092D03C0DC2C01C069
S1133210D12E04FF0DC0FE01EC0DF11D8081803321
S113322011F4097E09C002FF06C0D394D39404C0EC
S1133230802F867809F0D39403FD11C000FF06C0E7
S11332401C2DD51480F4150D1D190DC0D51458F47A
S1133250B70180E290E00E94551BD394F7CFD514B8
S113326010F45D1801C0512C04FF10C0B70180E3B5
S113327090E00E94551B02FF17C001FD03C088E7C0
S113328090E002C088E590E0B7010CC0802F8678FA
S113329059F001FF02C08BE201C080E207FD8DE21C
S11332A0B70190E00E94551BC11638F4B70180E3C2
S11332B090E00E94551B1150F7CFCA94F301EC0D16
S11332C0F11D8081B70190E00E94551BC110F5CF1C
S11332D015C0F4E0F51560F584E0581A93FE1FC09C
S11332E0011127C02C8523FF2AC00CE111E0392DE0
S11332F03071932EF8018491811124C0552009F472
S1133300E4CCB70180E290E00E94551B5A94F6CFBA
S1133310F7018681978126C08FEF9FEF23C0B70105
S113332080E290E00E94551B5A945110F8CFD8CFF8
S1133330512CB701802F90E00E94551BD3CF00E29F
S113334011E0D5CF91108052B70190E00E94551B37
S11333500F5F1F4FCFCF23E0251510F483E0BDCFBF
S1133360512CC0CF6096E2E10C94091AA1E21A2E06
S1133370AA1BBB1BFD010DC0AA1FBB1FEE1FFF1F15
S1133380A217B307E407F50720F0A21BB30BE40B65
S1133390F50B661F771F881F991F1A9469F76095AC
S11333A07095809590959B01AC01BD01CF01089566
S11333B0EE0FFF1F0590F491E02D0994A29FB00138
S11333C0B39FC001A39F700D811D1124911DB29F55
S11333D0700D811D1124911D08952F923F924F92DB
S11333E05F926F927F928F929F92AF92BF92CF9291
S11333F0DF92EF92FF920F931F93CF93DF93CDB79A
S1133400DEB7CA1BDB0B0FB6F894DEBF0FBECDBF11
S113341009942A88398848885F846E847D848C84E2
S11334209B84AA84B984C884DF80EE80FD800C81EB
S11334301B81AA81B981CE0FD11D0FB6F894DEBFCE
S11334400FBECDBFED0108950F93083090F0982F73
S1133450872F762F652F542F432F322F2227085082
S1133460F4CF220F331F441F551F661F771F881F79
S1133470991F0A95B2F70F91089597FB10F81694C7
S113348000080F93083098F00850232F342F452F4D
S1133490562F672F782F892F902DF4CF0594979569
S11334A087957795679557954795379527950A9505
S11334B0AAF70F9108950024A7FD00942A0F301D48
S11334C0401D501D601D701D801D901D08952830E5
S11334D008F027E03327DA01990F311D87FD916049
S11334E000966105710539F432602E5F3D9330E337
S11334F02A95E1F708959F3F30F080387105610502
S113350009F03C5F3C5F3D93913008F08068911D69
S1133510DF93CF931F930F93FF92EF92192F987F0E
S11335209695E92F96959695E90FFF27E258FE4F59
S113353099273327EE24FF24A701E7010590089477
S1133540079428F4360FE71EF81E491F511D660F15
S1133550771F881F991F0694A1F70590079428F4F4
S1133560E70EF81E491F561FC11D770F881F991FAC
S1133570661F0694A1F70590079428F4F80E491FD6
S1133580561FC71FD11D880F991F661F771F0694EA
S1133590A1F70590079420F4490F561FC71FD81FA1
S11335A0990F661F771F881F0694A9F784911095B9
S11335B0177041F0D695C79557954795F794E794BA
S11335C01A95C1F7E4E2F1E06894159015913591EC
S11335D06591959105907FE27395E118F10A430B8B
S11335E0560BC90BD009C0F7E10CF11E431F561F3F
S11335F0C91FD01D7EF4703311F48A95E6CFE89488
S1133600015030F0080F0AF40027021708F4202FA5
S11336102395022F7A3328F079E37D932A95E9F7ED
S113362010C07D932A9589F60694979567953795EA
S113363017951794E118F10A430B560BC90BD009DF
S113364098F023957E9173957A3308F070E37C9318
S11336502013B8F77E9170617D9330F0839571E308
S11336607D9370E32A95E1F71124EF90FF900F9179
S11336701F91CF91DF91992787FD90950895FC01C3
S11336800590615070400110D8F7809590958E0F89
S11336909F1F0895FC016150704001900110D8F7FC
S11336A0809590958E0F9F1F08950F931F93CF932E
S11336B0DF93FB01238121FD03C08FEF9FEF2CC01B
S11336C022FF16C046815781248135814217530752
S11336D044F4A081B1819D012F5F3F4F318320834A
S11336E08C93268137812F5F3F4F3783268314C005
S11336F08B01EC01FB010084F185E02D0995892BF8
S1133700E1F6D80116968D919C911797019617961C
S11337109C938E931697CE01DF91CF911F910F91B9
S11337200895AEE0B0E0E7E9FBE10C94FB190D89E4
S11337301E898F89988D26E02C831A83098397FF2D
S113374002C080E090E801979E838D83AE01455EC0
S11337505F4F698D7A8DCE0101960E9439164D8195
S11337605E8157FD0AC02F813885421753070CF438
S11337709A01F801E20FF31F10822E96E4E00C94F4
S1133780171AAEE0B0E0E7ECFBE10C94FD1985E01C
S11337908C838B899C899A838983AE01495E5F4FB0
S11337A06D897E89CE0101960E94D41D2E96E2E099
S11337B00C94191AFA01AA27283051F1203181F109
S11337C0E8946F936E7F6E5F7F4F8F4F9F4FAF4F25
S11337D0B1E03ED0B4E03CD0670F781F891F9A1F38
S11337E0A11D680F791F8A1F911DA11D6A0F711DEC
S11337F0811D911DA11D20D009F468943F912AE0F8
S1133800269F11243019305D3193DEF6CF010895DF
S1133810462F4770405D4193B3E00FD0C9F7F6CF10
S1133820462F4F70405D4A3318F0495D31FD4052D8
S1133830419302D0A9F7EACFB4E0A695979587956E
S113384077956795BA95C9F700976105710508954D
S11338509B01AC010A2E06945795479537952795F9
S1133860BA95C9F7620F731F841F951FA01D089591
S113387020FD09C0FC0123FD05C022FF02C07383A3
S1133880628351834083089544FD17C046FD17C0E9
S1133890AB01BC01DA01FB01AA0FBB1FEE1FFF1F26
S11338A01094D1F74A0F5B1F6E1F7F1FCB01BA0123
S11338B0660F771F881F991F09C033E001C034E0E9
S11338C0660F771F881F991F3150D1F7620F711D42
S11338D0811D911D08950F931F93CF93DF938C0146
S11338E0C8010E94F91EEC0197FD08C00E94E51E64
S11338F0892BB1F7B801CE010E94371FCE01DF91A9
S1133900CF911F910F9108958F929F92AF92BF9282
S1133910EF92FF920F931F93CF93DF938C01D62FD7
S11339207A01B22E0E94F91E9C0133272B323105F5
S113393031F02D32310561F48B2D8068B82ED150D1
S113394011F480E068C0C8010E94F91E97FDF9CF08
S1133950CB2DCD7F2B2D207309F58033F9F4AA24C8
S1133960AA94AD0E09F443C0C8010E94F91E97FD44
S11339703EC09C012F7D33272835310549F4C264AC
S1133980D250A9F1C8010E94F91E97FF07C02FC0A9
S1133990B6FE02C0C26001C0C261DA2D812C912C36
S11339A0540120ED280F283080F0C4FF04C0B80172
S11339B00E94371F19C02A3040F0C6FFF8CF2F7D70
S11339C03FEE320F363098F727504C2FC501B40123
S11339D00E94441C4B015C01C260D15059F0C801E3
S11339E00E94F91E97FFDDCFC1FD04C0AACF812C30
S11339F0912C5401C7FF08C0B094A0949094809473
S1133A00811C911CA11CB11C2C2FB501A401C70160
S1133A100E94381C81E0DF91CF911F910F91FF909C
S1133A20EF90BF90AF909F908F900895A0E2B0E088
S1133A30ECE1FDE10C94F0195C01962E7A01F90198
S1133A408E010F5F1F4F680180E2D8011D928A9595
S1133A50E9F7D50113968C9080E090E0612C712CED
S1133A6030E061E070E083FC259183FE21918F01B9
S1133A70522E211103C080E090E092C02E3511F443
S1133A80009751F1432F50E0481759073CF42D3566
S1133A9059F12D3219F4772009F103C0772009F484
S1133AA06AC0452D469546954695D601A40FB11D8D
S1133AB0452D47708B0102C0000F111F4A95E2F794
S1133AC0A8015C91452B4C93651459F0561410F4DD
S1133AD05394E7CF5A94E5CF31E004C0772473942C
S1133AE001C0712C0196BFCF772019F08E818062BE
S1133AF08E83311103C08824839417C0F6019E017C
S1133B002F5D3F4F8081809581932E173F07D1F71A
S1133B10F2CFE114F10429F0D7018C93F701319627
S1133B207F019A94812C9920F9F0C5010E94F91E15
S1133B3097FD18C0FC01FF2723E0F595E7952A952A
S1133B40E1F7EC0DFD1D208130E0AC0147705527F5
S1133B5002C0359527954A95E2F720FDDACFB501E5
S1133B600E94371F811087CFE114F10411F0D701AF
S1133B701C92C80115C0422F469546954695D6011C
S1133B80A40FB11D422F47708B0102C0000F111FFB
S1133B904A95E2F7A8015C91452B4C93622EA2CF83
S1133BA0A096EFE00C940C1AA0E0B0E0EAEDFDE181
S1133BB00C94F0196C01EB015A01FC011782168276
S1133BC0512CF601E380FE01E3FC8591E3FE819133
S1133BD0182FEF01882309F4EEC090E00E94E51E3F
S1133BE0892B21F0C6010E946B1CEBCF153241F4E6
S1133BF0FE01E3FC1591E3FE1191EF01153281F40E
S1133C00C6010E94F91E97FDD4C0412F50E09C01CB
S1133C10332724173507A9F2B6010E94371FCBC0FA
S1133C201A3239F4E3FC1591E3FE1191EF0101E03E
S1133C3001C000E0F12C20ED210F2A3080F4026055
S1133C406F2D70E080E090E040E20E94441CF62E6C
S1133C50FE01E3FC1591E3FE1191EF01ECCF01FFAE
S1133C6003C0F11003C0A7C0FF24FA94183619F05A
S1133C701C3651F010C0FE01E3FC1591E3FE1191D6
S1133C80EF01183641F408600460FE01E3FC15916D
S1133C90E3FE1191EF01112309F48DC0612F70E04F
S1133CA08EE192E00E94EE1E892B09F484C000FD8F
S1133CB007C0F50180809180C50102965C0102C0B5
S1133CC0812C912C1E3651F4F6014681578160E017
S1133CD070E0202FC4010E94381C73CF1336A9F45E
S1133CE001FD02C0FF24F394C6010E94F91E97FD52
S1133CF060C08114910429F0F4018083C401019609
S1133D004C01FA94F110F0CF50C01B3559F49E01C8
S1133D10A4016F2DC6010E94161DEC01892B09F028
S1133D2044C03EC0C6010E946B1C97FD42C01F36B2
S1133D3061F128F4143639F1193651F128C01337DA
S1133D4071F0153701F123C08114910429F0F401B5
S1133D506082C40101964C01FA94FF2071F0C601FF
S1133D600E94F91E3C0197FD08C00E94E51E892BA4
S1133D7059F3B601C3010E94371F81149104A9F0BD
S1133D80F401108212C0006203C0006101C000642B
S1133D90202FA4016F2DC6010E94841C811105C02F
S1133DA0F6018381807329F406C000FD0ACF539481
S1133DB008CF552019F0852D90E002C08FEF9FEFBA
S1133DC0CDB7DEB7EFE00C940C1A91110C94501F90
S1133DD0803219F089508550C8F70895FC01059088
S1133DE0061621F00020D9F7C00108953197CF01BC
S1133DF00895CF93DF93EC012B8120FF33C026FF7E
S1133E000AC02F7B2B838E819F8101969F838E8393
S1133E108A8190E029C022FF0FC0E881F981808166
S1133E20082E000C990B009719F420622B831AC0FA
S1133E303196F983E8830EC0EA85FB85099597FFDF
S1133E4009C02B81019611F080E201C080E1822B30
S1133E508B8308C02E813F812F5F3F4F3F832E838A
S1133E60992702C08FEF9FEFDF91CF910895FB0157
S1133E70238120FF12C026FD10C08F3F3FEF930720
S1133E8061F082832F7D2064238326813781215032
S1133E90310937832683992708958FEF9FEF08957B
S10D3EA0992788270895F894FFCFAE
S1133EAA0100000000E1000000000825662C2566D8
S1133EBA2C25752C25752C25752C25752C25662CF9
S1133ECA2566005370644C3A20252B372E31662020
S1133EDA20537064523A20252B372E316620202035
S1133EEA56656C3A20252B372E31662020204F6DDB
S1133EFA673A20252B362E31662020646973743A7A
S1133F0A20252B382E31662020616E673A20252B16
S1133F1A372E3166202064743A2025372E316620E4
S1133F2A200025362E32662025362E326620253686
S1133F3A2E3266202531306C64202531306C6420A1
S1133F4A257520257520257520257520257520259C
S1073F5A750D0A00D3
S9030000FC
