S01600006176725F636F6E74726F6C6C65722E7372656322
S11300000C9496010C94B3010C94B3010C946F06F8
S11300100C94D5060C94B3010C94B3010C943B07D7
S11300200C94B3010C94A1070C94970E0C94D50E68
S11300300C94B3010C94B3010C94B3010C94B3016C
S11300400C94B3010C94B3010C94B3010C94B3015C
S11300500C94B3010C94B3010C94B3010C940F13DE
S11300600C94B3010C94B3010C94B3010C94B3013C
S11300700C94B3010C94B3010C94B3010C94B3012C
S11300800C94B3010C94B3010C94B3010C94B3011C
S11300900C94B3010C94B3010C94DB050C94B301E0
S11300A00C94B3010C94B3010C94B301B3069F06F2
S11300B0C6069F06C606C606B306B306C606C60629
S11300C09F06C6069F06B306190705072C070507F2
S11300D02C072C07190719072C072C0705072C07D1
S11300E0050719077F076B0792076B0792079207AB
S11300F07F077F07920792076B0792076B077F07BB
S1130100EA07D607FD07D607FD07FD07EA07EA0752
S1130110FD07FD07D607FD07D607EA076E616E00E7
S1130120696E660000407A10F35A00A0724E1809F6
S11301300010A5D4E80000E87648170000E40B544A
S1130140020000CA9A3B000000E1F5050000809619
S11301509800000040420F000000A086010000004B
S1130160102700000000E803000000006400000005
S113017000000A00000000000100000000002C76CE
S1130180D888DC674F0823DFC1DFAE59E1B1B796E9
S1130190E5E3E453C63AE651997696E8E6C2842646
S11301A0EB898C9B62ED407C6FFCEFBC9C9F40F222
S11301B0BAA56FA5F490055A2AF75C936B6CF9679E
S11301C06DC11BFCE0E40D47FEF520E6B500D0ED63
S11301D0902E0300943577050080841E08000020CB
S11301E04E0A000000C80C333333330F986E128369
S11301F01141EF8D2114893BE65516CFFEE6DB183D
S1130200D1844B381BF77C1D901DA4BBE424203201
S113021084725E228100C9F124ECA1E53D27494D99
S113022055204661696C65640D0A0000010000C236
S11302300212000200007F0243000300007B02045C
S113024001030904670212020309045F020603039F
S11302500904550208080334003100300000000688
S1130260034D003200000012034A002E0020004615
S113027000690065006E00650000000403090409BC
S1130280024300020100C03209040000010202011D
S113029000052400100105240101010424020605BF
S11302A0240600010705820310004009040100022E
S11302B00A0000000705030240000007058402400D
S11302C000001201000202000010C0167A040001AE
S11302D0010203010001C112018036018136636409
S11302E0696E6F70737578585B656667454647003D
S11302F0616E006E66696E69747900CDCCCC3D0A7E
S1130300D7233C17B7D13877CC2B329595E6241FE9
S1130310B14F0A000020410000C84200401C4620A2
S1130320BCBE4CCA1B0E5AAEC59D740011241FBE20
S1130330CFEFDAE0DEBFCDBF11E0A0E0B1E0EEE543
S1130340F0E402C005900D92A43BB107D9F722E076
S1130350A4EBB1E001C01D92AF38B207E1F70E94EF
S11303605B050C942D200C9400001092C000E1EC6D
S1130370F0E010821092C2001092C3001092BF00ED
S11303801092BE008CE98093CF00A2E7B0E08C917C
S113039080648C9380818B6080830895CF93DF93F6
S11303A0CDB7DEB728970FB6F894DEBF0FBECDBF2A
S11303B029EB31E03F932F932DEB31E03F932F93C3
S11303C09E01295F3F4F3F932F93225031093F9362
S11303D02F93225031093F932F93225031093F9399
S11303E02F9329EC31E03F932F932DEC31E03F9391
S11303F02F9327EB31E03F932F932CE031E03F9391
S11304002F939F938F930E949A1F2091B70130914D
S1130410B8010FB6F894DEBF0FBECDBF232BC1F4D5
S113042029813A813093C8012093C7012B813C81F3
S11304303093C6012093C5012D813E813093C401C0
S11304402093C3012F8138853093C2012093C101C9
S113045028960FB6F894DEBF0FBECDBFDF91CF91C3
S113046008954F925F926F927F92AF92BF92CF9214
S1130470DF92EF92FF920F931F9316C10E94160E04
S11304808A3019F08D3009F003C1E091D101EE23D7
S113049009F40AC1F0E0EE52FE4F108282ED91E0C1
S11304A00E94CE01882309F4F0C0C090CD01D09001
S11304B0CE01E090CF01F090D00120E030E0A9011E
S11304C0C701B6010E94E013882309F466C0609155
S11304D0C9017091CA018091CB019091CC0120E0B7
S11304E030E0A9010E94E013882309F456C083E098
S11304F08093B4010E948612A090BD01B090BE0109
S1130500C090BF01D090C0016091C3017091C4013B
S113051080E090E00E9486142B013C016091C701A9
S11305207091C80180E090E00E9486149B01AC01A8
S11305306091CD017091CE018091CF019091D00155
S1130540830172010E94B612A090B901B090BA0161
S1130550C090BB01D090BC016091C1017091C201F7
S113056080E090E00E9486142B013C016091C5015B
S11305707091C60180E090E00E9486149B01AC015A
S11305806091C9017091CA018091CB019091CC0115
S1130590830172010E94D91276C020E030E0A901E3
S11305A0C701B6010E94E013882371F181E08093B2
S11305B0B4010E948612A090BD01B090BE01C0900B
S11305C0BF01D090C0016091C3017091C40180E06B
S11305D090E00E9486142B013C016091C701709148
S11305E0C80180E090E00E9486149B01AC016091F8
S11305F0CD017091CE018091CF019091D001830102
S113060072010E94B6123FC06091C9017091CA0183
S11306108091CB019091CC0120E030E0A9010E94AF
S1130620E013882371F182E08093B4010E94861262
S1130630A090B901B090BA01C090BB01D090BC01A8
S11306406091C1017091C20180E090E00E94861423
S11306502B013C016091C5017091C60180E090E0DE
S11306600E9486149B01AC016091C9017091CA017A
S11306708091CB019091CC01830172010E94D91227
S113068002C01092B401109200011092D1010CC06A
S1130690E091D101EF3340F491E09E0F9093D101AA
S11306A0F0E0EE52FE4F80830E94340E8111E6CEBC
S11306B01F910F91FF90EF90DF90CF90BF90AF907C
S11306C07F906F905F904F900895CF93DF93EC01EC
S11306D003C021960E94430E88818111FACFDF91D5
S11306E0CF9108952F923F924F925F926F927F9293
S11306F08F929F92AF92BF92CF92DF92EF92FF922E
S11307000F931F93CF93DF93CDB7DEB7C858D109AA
S11307100FB6F894DEBF0FBECDBF0E94390ACF5783
S1130720DF4F6883C158D040CE57DF4F7883C2581B
S1130730D040CD57DF4F8883C358D040CC57DF4FCC
S11307409883C458D0400E946C0ACB57DF4F68830B
S1130750C558D040CA57DF4F7883C658D040C957D0
S1130760DF4F8883C758D040C857DF4F9883C85895
S1130770D0400E949F0A162F072FF82EE92E0E94C0
S1130780BE0AD62EC72EB82EA92E0E94DD0A962E9A
S1130790872E782E692E0E94E60A562E472E382E72
S11307A0292E0E94EF0A0E9486149F938F937F93B1
S11307B06F932F923F924F925F926F927F928F929C
S11307C09F92AF92BF92CF92DF92EF92FF920F93DC
S11307D01F93C857DF4F8881C858D0408F93C9579B
S11307E0DF4F9881C758D0409F93CA57DF4F888105
S11307F0C658D0408F93CB57DF4F9881C558D0400F
S11308009F93CC57DF4F8881C458D0408F93CD57E6
S1130810DF4F9881C358D0409F93CE57DF4F8881D4
S1130820C258D0408F93CF57DF4F9881C158D040E2
S11308309F9387E291E09F938F931F9280E88F9319
S11308408E010F5F1F4F1F930F930E946A1F0FB6F5
S1130850F894DEBF0FBECDBFC8010E9465030E949D
S1130860870EC857DF4F0FB6F894DEBF0FBECDBF5B
S1130870DF91CF911F910F91FF90EF90DF90CF9078
S1130880BF90AF909F908F907F906F905F904F90AC
S11308903F902F9008952F923F924F925F926F92C4
S11308A07F928F929F92AF92BF92CF92DF92EF92FC
S11308B0FF920F931F93CF93DF93CDB7DEB7C65745
S11308C0D1090FB6F894DEBF0FBECDBFAC968FAF83
S11308D0AC97AD966FAFAD97AE0147595F4FBE0170
S11308E069597F4FCE018B599F4F0E94400CA796A8
S11308F06EAD7FADA797072E000C880B990B0E9455
S1130900881420E030E040E85DE30E943D15AE9697
S11309106FAFAE97AF967FAFAF97E0968FAFE0978C
S1130920E1969FAFE197A9966EAD7FADA997072E8B
S1130930000C880B990B0E94881420E030E040E8FA
S11309405DE30E943D15E2966FAFE297E3967FAFB9
S1130950E397E4968FAFE497E5969FAFE597AB9660
S11309606EAD7FADAB97072E000C880B990B0E94E0
S1130970881420E030E040E85DE30E943D15E696EF
S11309806FAFE697E7967FAFE797182F092F0E947E
S11309904306B82EA92E0E945306982E892E0E9433
S11309A06306782E692E0E946706582E492E0E94EF
S11309B06B06382E292E0E940C08F62EE72ED82E10
S11309C0C92E0E9417081F92AD962FADAD972F9395
S11309D01F92AC962FADAC972F932F923F924F92CC
S11309E05F926F927F928F929F92AF92BF929F93EA
S11309F08F937F936F93CF92DF92EF92FF920F9337
S1130A001F93E7968FADE7978F93E6969FADE69792
S1130A109F93E5962FADE5972F93E4968FADE497DA
S1130A208F93E3969FADE3979F93E2962FADE29762
S1130A302F93E1968FADE1978F93E0969FADE0976A
S1130A409F93AF962FADAF972F93AE968FADAE9782
S1130A508F938EE791E09F938F931F9284E68F93F9
S1130A608E010F5F1F4F1F930F930E946A1F0FB6D3
S1130A70F894DEBF0FBECDBFC8010E9465030E947B
S1130A80870ECA58DF4F0FB6F894DEBF0FBECDBF36
S1130A90DF91CF911F910F91FF90EF90DF90CF9056
S1130AA0BF90AF909F908F907F906F905F904F908A
S1130AB03F902F9008952FEF81EE94E021508040D5
S1130AC09040E1F700C000000E94FD0D0E94061353
S1130AD00E94A00C0E9490080E94EE050E94240B24
S1130AE00E94FE0B811104C08EE192E00E94461028
S1130AF00E94B50178940E9486120E942208809375
S1130B00B5018091B6018823C1F31092B6010E9409
S1130B1031020E9402090E94FD128091B5018111E7
S1130B203FC08091B401833081F40E94AF128823C6
S1130B3061F00E94A812882341F081E080930001B3
S1130B400E9486121092B4012DC08091B4018130AC
S1130B5061F40E94A812882341F081E0809300018F
S1130B600E9486121092B4011DC08091B40182309B
S1130B7061F40E94AF12882341F081E08093000168
S1130B800E9486121092B4010DC00E949F126B0144
S1130B907C010E949612A70196010E94660D02C074
S1130BA00E94EF0D0E947203609100018091B501D3
S1130BB00E944B04A2CF1F920F920FB60F921124E2
S1130BC08F931092BF001092BE0081E08093B60113
S1130BD08F910F900FBE0F901F901895ECE7F0E0E7
S1130BE080E480838081807F8083EBE7F0E08081F4
S1130BF08F7D808387E880937A0083E780937E00EB
S1130C000895883080F4ECE7F0E09081907F892BA0
S1130C108083EBE7F0E080818F7D808320E040E0FB
S1130C2050E0BA0123C0ECE7F0E09081907F885057
S1130C30892B8083EBE7F0E080818062808320E071
S1130C4040E050E0BA0112C0EAE7F0E0908190641D
S1130C50908390917A0096FDFCCF809178009091DA
S1130C607900480F591F611D711D2F5F243060F3F7
S1130C70DB01CA01B695A79597958795B695A79573
S1130C8097958795089580E00E9401069C01ACE445
S1130C90B4E00E945D1D2FEF33E040E050E00E947D
S1130CA0351DC901089581E00E9401069C01ACE450
S1130CB0B4E00E945D1D2FEF33E040E050E00E945D
S1130CC0351DC901089584E00E940106089585E058
S1130CD00E940106089586E00E94010608951F926D
S1130CE00F920FB60F9211242F933F938F939F93DC
S1130CF0AF93BF93EF93FF9339B129B123FB22271D
S1130D0020F932FB882780F990E0880F991F282B5F
S1130D1080913C0290E0880F991F880F991FE22F61
S1130D20E82B8E2FEE0F990BAA0BBB0BFC0131970E
S1130D30EE30F10558F5EA5AFF4F0C94571D809197
S1130D40410290914202A0914302B0914402019762
S1130D50A109B1098093410290934202A0934302F6
S1130D60B093440213C08091410290914202A09139
S1130D704302B09144020196A11DB11D809341022A
S1130D8090934202A0934302B093440220933C0206
S1130D90FF91EF91BF91AF919F918F913F912F91CF
S1130DA00F900FBE0F901F9018951F920F920FB6C1
S1130DB00F9211242F933F938F939F93AF93BF93DD
S1130DC0EF93FF9339B129B123FB222720F932FB9A
S1130DD0882780F990E0880F991F282B80913C0286
S1130DE090E0880F991F880F991FE22FE82B8E2F10
S1130DF0EE0F990BAA0BBB0BFC013197EE30F105FA
S1130E0058F5EC59FF4F0C94571D80914102909175
S1130E104202A0914302B09144020197A109B10991
S1130E208093410290934202A0934302B093440200
S1130E3013C08091410290914202A0914302B0916B
S1130E4044020196A11DB11D809341029093420278
S1130E50A0934302B093440220933C02FF91EF918C
S1130E60BF91AF919F918F913F912F910F900FBEA2
S1130E700F901F9018951F920F920FB60F92112486
S1130E802F933F938F939F93AF93BF93EF93FF93CE
S1130E9033B12CB126FB222720F934FB882780F9B3
S1130EA090E0880F991F282B80913B0290E0880FD7
S1130EB0991F880F991FE22FE82B8E2FEE0F990BA5
S1130EC0AA0BBB0BFC013197EE30F10558F5EE5837
S1130ED0FF4F0C94571D80913D0290913E02A091CA
S1130EE03F02B09140020197A109B10980933D02EC
S1130EF090933E02A0933F02B093400213C08091AE
S1130F003D0290913E02A0913F02B09140020196B1
S1130F10A11DB11D80933D0290933E02A0933F0218
S1130F20B093400220933B02FF91EF91BF91AF91A8
S1130F309F918F913F912F910F900FBE0F901F9013
S1130F4018951F920F920FB60F9211242F933F936F
S1130F508F939F93AF93BF93EF93FF931F9903C016
S1130F6021E02093120233B12CB126FB222720F971
S1130F7034FB882780F990E0880F991F282B8091F3
S1130F803B0290E0880F991F880F991FE22FE82BEE
S1130F908E2FEE0F990BAA0BBB0BFC013197EE3091
S1130FA0F10558F5E058FF4F0C94571D80913D0210
S1130FB090913E02A0913F02B09140020197A10995
S1130FC0B10980933D0290933E02A0933F02B093F7
S1130FD0400213C080913D0290913E02A0913F02D5
S1130FE0B09140020196A11DB11D80933D029093E2
S1130FF03E02A0933F02B093400220933B02FF9134
S1131000EF91BF91AF919F918F913F912F910F904D
S11310100FBE0F901F901895F89460914102709143
S11310204202809143029091440278940895F89486
S113103060913D0270913E0280913F029091400286
S113104078940895F8948091120278940895CF9337
S1131050CFB7F89481E05FC010924102109242022F
S113106010924302109244021092370210923802F6
S11310701092390210923A0210923D0210923E02EE
S113108010923F02109240021092330210923402E6
S1131090109235021092360210922302109224020A
S11310A01092250210922602109227021092280212
S11310B01092290210922A0210921B0210921C0212
S11310C010921D0210921E0210921F021092200212
S11310D010922102109222020E944E1320931302B6
S11310E03093140240931502509316026093170232
S11310F0709318028093190290931A0281E090E091
S1131100A0E0B0E08093010190930201A093030159
S1131110B093040180E081119FCFCFBFCF91089598
S11311208AB18B7F8AB98AB1877F8AB98BB184608F
S11311308BB98BB188608BB9E9E6F0E0808180617E
S1131140808380818F7D80838DB384608DBB80811B
S11311508064808380818F7780838DB388608DBB2A
S11311604A9B02C022E001C020E099B193FB88278A
S113117080F9822B80933C028DB18F7B8DB98EB127
S113118080648EB984B18F7E84B984B18F7784B939
S113119085B1806185B985B1806885B9EAE6F0E0FA
S11311A080818061808380818F7D80838DB3806422
S11311B08DBBE8E6F0E0808181608083EBE6F0E0BF
S11311C08081806980831C9B02C022E001C020E0F2
S11311D09CB196FB882780F9822B80933B02109266
S11311E03D0210923E0210923F0210924002109271
S11311F041021092420210924302109244020E9451
S1131200270808954F925F926F927F928F929F92D8
S1131210AF92BF92CF92DF92EF92FF92CF93DF9380
S1131220CDB7DEB728970FB6F894DEBF0FBECDBF9B
S11312300E944E1329833A834B835C836D837E83A0
S11312408F8398878091130290911402A0911502C4
S1131250B091160229813A814B815C81281B390B9C
S11312604A0B5B0B2093010130930201409303016D
S113127050930401232B242B252B61F481E090E06F
S1131280A0E0B0E08093010190930201A0930301D8
S1131290B09304013981309313024A8140931402BC
S11312A05B81509315028C81809316022D812093CB
S11312B017023E81309318024F81409319025885DA
S11312C050931A029FB7F89481E011C080904102B4
S11312D090904202A0904302B0904402C0903D021C
S11312E0D0903E02E0903F02F090400280E08111F5
S11312F0EDCF9FBF8091370290913802A0913902BF
S1131300B0913A02A5019401281B390B4A0B5B0BDF
S1131310CA01B90120932F02309330024093310265
S11313205093320240903302509034026090350260
S113133070903602A7019601241935094609570908
S113134029013A0120932B0230932C0240932D0261
S113135050932E028092370290923802A092390262
S1131360B0923A02C0923302D0923402E092350233
S1131370F09236020E9488142DEF3DEA40E85CE3C7
S11313800E943D156B017C01C301B2010E948814C7
S11313902DEF3DEA40E85CE30E943D152B013C0142
S11313A09B01AC01C701B6010E94741320E030E038
S11313B040E05FE30E943D154B015C01609327020E
S11313C0709328028093290290932A02A701960120
S11313D0C301B2010E9473132AEF3EEA4AEE5DE3B1
S11313E00E943D156B017C016093230270932402DB
S11313F08093250290932602A501940160911F0217
S11314007091200280912102909122020E94741313
S113141060931F0270932002809321029093220212
S1131420A701960160911B0270911C0280911D021C
S113143090911E020E94741360931B0270931C020D
S113144080931D0290931E0228960FB6F894DEBF77
S11314500FBECDBFDF91CF91FF90EF90DF90CF9083
S1131460BF90AF909F908F907F906F905F904F90C0
S11314700895CF92DF92EF92FF9260912F027091C4
S1131480300280913102909132020E9488142DEF33
S11314903DEA40E85CE30E943D156B017C016091EC
S11314A001017091020180910301909104010E9455
S11314B086149B01AC0160E074E284E799E40E9425
S11314C0E5139B01AC01C701B6010E943D15FF90D5
S11314D0EF90DF90CF900895CF92DF92EF92FF923A
S11314E060912B0270912C0280912D0290912E021A
S11314F00E9488142DEF3DEA40E85CE30E943D150C
S11315006B017C01609101017091020180910301E2
S1131510909104010E9486149B01AC0160E074E286
S113152084E799E40E94E5139B01AC01C701B6016D
S11315300E943D15FF90EF90DF90CF900895609149
S113154001017091020180910301909104010E94B4
S113155086149B01AC0160E074E284E799E40E9484
S1131560E5139B01AC0160912702709128028091E0
S1131570290290912A020E943D150895609101016B
S11315807091020180910301909104010E948614DC
S11315909B01AC0160E074E284E799E40E94E513E6
S11315A09B01AC0160912302709124028091250279
S11315B0909126020E943D15089560911F0270913A
S11315C020028091210290912202089560911B02D1
S11315D070911C0280911D0290911E0208956091E9
S11315E00101709102018091030190910401089519
S11315F094EA9093BC009091BC009923E4F79091F5
S1131600B900987F983011F09031C1F48093BB00F9
S113161084E88093BC008091BC008823E4F7809127
S1131620B900887F883121F0803421F491E003C02F
S113163091E001C090E0892F8170089580E00895C1
S113164084E98093BC000895E9EBF0E080818C7F0D
S1131650808388E48093B80084E08093BC0008957C
S11316600F931F93CF93DF93EB01142F880F0E94E6
S1131670F80A082F811119C01DC0FE01E90FF11DE0
S113168080818093BB0084E88093BC008091BC007F
S11316908823E4F78091B900887F883221F00E9482
S11316A0200B00E007C09F5F01C090E0911728F372
S11316B00E94200B802FDF91CF911F910F910895ED
S11316C00F931F93CF93DF938B01C42F90E0880F68
S11316D0991F81600E94F80AD82F81112FC033C04E
S11316E0492F50E02C2F30E0215031094217530785
S11316F011F484E801C084EC8093BC008091BC00A8
S11317008823E4F7421753072CF48091B900887FAB
S1131710803541F44217530749F48091B900887F1A
S1131720883521F00E94200BD0E00DC0F801E90FAC
S1131730F11D8091BB0080839F5F01C090E09C17E6
S113174078F20E94200B8D2FDF91CF911F910F9182
S11317500895CF93DF9300D0CDB7DEB789836A8332
S113176042E0BE016F5F7F4F88E20E94300B0F9012
S11317700F90DF91CF910895682F8DE30E94A90BFC
S113178008950F931F93CF93DF931F92CDB7DEB7C6
S113179089838B0141E0BE016F5F7F4F88E20E9425
S11317A0300B882329F041E0B80188E20E94600BE5
S11317B00F90DF91CF911F910F910895FF920F9396
S11317C01F93CF93DF931F92CDB7DEB789838B012D
S11317D0F42E41E0BE016F5F7F4F88E20E94300B20
S11317E0882329F04F2DB80188E20E94600B0F90E6
S11317F0DF91CF911F910F91FF9008951F93CF9385
S1131800DF931F92CDB7DEB70E94240B1982BE016D
S11318106F5F7F4F80E00E94C10B182F882351F126
S11318208981803A31F580E00E94BC0B2FE788E380
S113183091E0215080409040E1F700C0000060E258
S11318408FE30E94A90B2FEF8CEB9FE12150804086
S11318509040E1F700C000008CE00E94BC0B2FEF29
S113186089EF90E0215080409040E1F700C00000F3
S113187001C010E0812F0F90DF91CF911F91089547
S1131880CF92DF92EF92FF920F931F93CF93DF9348
S113189000D000D000D0CDB7DEB76C017B018A0147
S11318A046E0BE016F5F7F4F8AE10E94DE0B882312
S11318B0D9F029818A8190E0982F8827822BF6011C
S11318C0918380832B818C8190E0982F8827822BB1
S11318D0F701918380832D818E8190E0982F882752
S11318E0822BF8019183808326960FB6F894DEBF8D
S11318F00FBECDBFDF91CF911F910F91FF90EF905D
S1131900DF90CF900895882321F085B1806485B954
S1131910089585B18F7B85B90895882321F08BB113
S113192080688BB908958BB18F778BB90895CF9365
S1131930C82F0E94830C8C2F0E948D0CCF91089588
S113194087B1806487B98AB180648AB984B18064BC
S113195084B984B1806284B98AB180618AB98AB158
S113196080688AB988B1806488B98BB180648BB986
S113197085B18F7B85B985B1806285B98BB1806172
S11319808BB98BB18F778BB990E49093900088E0FA
S113199080939100909380008093810081E00E9465
S11319A0970C0895882321F08BB180648BB9089536
S11319B08BB18F7B8BB90895882321F08BB1806123
S11319C08BB908958BB18F7E8BB908959C01A0EDDE
S11319D0B7E00E945D1D0E94861423E634E14DE1C8
S11319E054E40E94E5130E9457149B01AC01012E9C
S11319F01BE0220F331F441F551F1A95D1F7102DDA
S1131A0060E074E284EF90E00E94351DDA01C901C0
S1131A100197A109B109009721E0A207B10520F0BF
S1131A208FEF9FEFA0E0B0E090939900809398002F
S1131A30E1E9F0E08081887F808310929500109224
S1131A40940080818560808308959C01A0EDB7E0B7
S1131A500E945D1D0E94861423E634E14DE154E4A6
S1131A600E94E5130E9457149B01AC01012E1BE058
S1131A70220F331F441F551F1A95D1F7102D60E014
S1131A8074E284EF90E00E94351DDA01C9010197E8
S1131A90A109B1099093890080938800E1E8F0E0FE
S1131AA08081887F808310928500109284008081D9
S1131AB0856080830895CF93DF93EB010E94E60C49
S1131AC0CE010E94250DDF91CF9108954F925F9230
S1131AD06F927F928F929F92AF92BF92CF92DF923A
S1131AE0EF92FF92CF93DF9300D000D01F92CDB737
S1131AF0DEB72B013C01CA01B90120E030E04AEF16
S1131B0053E40E943D152BED3FE049E450E40E946C
S1131B103D1520E030E044EB53E40E94E5136B01F3
S1131B207C019B01AC01C301B2010E9473134B0100
S1131B305C01A3019201C701B6010E9474136B01F9
S1131B407C01D501C401BF7789839A83AB83BC83AD
S1131B5026013701E89477F891E09D8320E030E096
S1131B60A901C501B4010E94381588230CF41D8213
S1131B708D810E94D20CA1E0AD8320E030E0A90168
S1131B80C701B6010E94E01388230CF01D828D81E9
S1131B900E94DC0CC301B2010E9457146B017C014A
S1131BA069817A818B819C810E945714DC01CB016D
S1131BB0B6010E945B0D0F900F900F900F900F9045
S1131BC0DF91CF91FF90EF90DF90CF90BF90AF90D7
S1131BD09F908F907F906F905F904F90089580E0DA
S1131BE00E94970CE1E8F0E08081887F8083E1E93E
S1131BF0F0E08081887F8083089581E08093D7001E
S1131C0080EA8093D80082E189BD09B400FEFDCF4B
S1131C1080E98093D8001092E0001092480210925C
S1131C2045028CE08093E200789408959FB7F8947D
S1131C3080914802811103C09FBF8FEF089583E014
S1131C408093E9008091E80085FD03C09FBF8FEF7A
S1131C5008958091F1002091E80025FD03C02BE652
S1131C602093E8009FBF08959FB7F894809148029D
S1131C70882331F083E08093E9008091F20001C071
S1131C8080E09FBF0895909148029923E1F19FB7A6
S1131C90F89424E02093E90020914602222349F09D
S1131CA02091E80025FD03C09FBF8FEF0895109297
S1131CB046023091E400375E2091E80025FD14C00F
S1131CC09FBF9091E400391305C081E080934602E0
S1131CD08FEF0895909148029923B9F09FB7F89433
S1131CE024E02093E900E8CF8093F1008091E8009C
S1131CF085FD03C08AE38093E80085E08093470272
S1131D009FBF80E008958FEF08958FEF08958FB7F8
S1131D10F89490914702992341F094E09093E9005C
S1131D209AE39093E800109247028FBF08951F92A0
S1131D300F920FB60F9211248F939F93EF93FF93FB
S1131D40E1EEF0E08081108283FF11C01092E9007F
S1131D5091E09093EB001092EC0092E19093ED00EF
S1131D6098E09093F000109248021092450282FF8E
S1131D7013C080914802882379F080914702882318
S1131D8059F0815080934702811106C084E080930A
S1131D90E9008AE38093E800FF91EF919F918F918E
S1131DA00F900FBE0F901F9018951F920F920FB6B1
S1131DB00F9211242F933F934F935F936F937F93CD
S1131DC08F939F93AF93BF93CF93DF93EF93FF933F
S1131DD01092E9008091E80083FF42C1E1EFF0E056
S1131DE0B081A0812081808190E0982F8827822B68
S1131DF04081208130E0322F2227B901642B4081B9
S1131E00208130E0322F2227F901E42BAF0122EFA9
S1131E102093E800A63009F051C0A0E02BE232E0A4
S1131E20A63020F081E28093EB001DC1F901C59139
S1131E30D4918C179D0719F0295F3F4F1CC0F901FD
S1131E403296C591D4916C177D0719F0295F3F4FE5
S1131E5012C0F901349685919491F90136966491F2
S1131E609A014F3F510519F010F02FEF30E062173F
S1131E7020F0622F02C0AF5FD3CF2091E800322F51
S1131E803570D9F322FDEFC0362F613108F030E10F
S1131E90232F09C0AC014F5F5F4FFC0184918093F5
S1131EA0F1002150CA012111F5CF631B2EEF2093BD
S1131EB0E8006111E2CF303101F3D5C0A53059F407
S1131EC02EEF2093E8002091E80020FFFCCF8068EB
S1131ED08093E300C8C0A93079F5B1112DC0809377
S1131EE0480210924502109247028EEF8093E80058
S1131EF081E024ED32E018C08093E900A9014F5F2E
S1131F005F4FF90194919093EB00992359F0FA01F2
S1131F1044914093EC003196E4912D5F3F4FE09360
S1131F20ED0001C09A018F5F853030F3EAEEF0E0F6
S1131F308EE18083108297C0A83071F4B03861F4C8
S1131F408091E80080FFFCCF809148028093F100EB
S1131F508EEF8093E80087C0A132A9F4B13A99F4D6
S1131F608091E80080FFFCCFE5E0F1E080E005C06F
S1131F7090819093F1008F5F31968730C8F38EEF94
S1131F808093E80070C0A032C1F4B132B1F4809102
S1131F90E80082FFFCCFE5E0F1E080E005C090912D
S1131FA0F10090838F5F31968730C8F3E8EEF0E05C
S1131FB08BEF80838EEF808356C0A23261F4B132FE
S1131FC051F4809345028091E80080FFFCCF8EEFAE
S1131FD08093E80048C0A1111BC08091E80080FFF5
S1131FE0FCCFB23861F46093E9008091EB0085FD89
S1131FF002C080E001C081E01092E90001C080E0ED
S1132000E1EFF0E0808310828EEF8093E8002BC034
S1132010A13011F0A33021F5B23011F5892B01F56F
S1132020262F2F778FEF820F8430D0F48EEF80939A
S1132030E8002093E900A33021F481E28093EB00CF
S113204012C089E18093EB0081E090E002C0880F28
S1132050991F2A95E2F7EAEEF0E08083108203C02C
S113206081E28093EB00FF91EF91DF91CF91BF91DB
S1132070AF919F918F917F916F915F914F913F911C
S11320802F910F900FBE0F901F9018950F931F93D1
S1132090CF93FC018F010F5F1F4FC491CC2351F0EC
S11320A0CA3019F48DE00E94430E8C2F0E94430E17
S11320B0F801F0CFCF911F910F910895CF92DF9245
S11320C0EF92FF92CF93DF93EC0169817A818B8148
S11320D09C8129813A814B815C810E943D156B0171
S11320E07C016F89788D898D9A8D9B01AC010E944A
S11320F03D159B01AC01C701B6010E9473139F7784
S113210020E030E040E05FE30E943D152F853889F0
S113211049895A890E943D15DF91CF91FF90EF9034
S1132120DF90CF900895FC01F894158216821782EF
S113213010861182128213821482138A148A158AD9
S1132140168A1082789408952F923F924F925F924C
S11321506F927F928F929F92AF92BF92CF92DF92B3
S1132160EF92FF920F931F93CF93DF9300D000D091
S1132170CDB7DEB71C012A013B0109831A832B83E7
S11321803C8320E030E0A901C301B2010E94E013C6
S1132190882314F41FEF01C011E0F101118720E03E
S11321A030E0A901C301B2010E94E013882324F4A2
S11321B077FA709477F8709420E030E040E85FE3B9
S11321C0C301B2010E94E013882324F483E0F101E7
S11321D080835CC029813A814B815C81C701B6014F
S11321E00E943815181624F4C980DA80EB80FC802C
S11321F0F1011582168217821086438E548E658EE5
S1132200768E612F110F770B880B990B0E9488141F
S11322102B013C0129813A814B815C815F770E94CB
S11322203D15F101638B748B858B968BA701960109
S11322305F77C301B2010E943D15F101678B708F76
S1132240818F928FE894B7F883869486A586B686A4
S113225020E030E040E85FE3C501B4010E94381596
S113226088234CF0A501940160E070E080E89FE3CE
S11322700E94E51304C060E070E080E89FE3F10190
S11322806787708B818B928B81E080830F900F9096
S11322900F900F90DF91CF911F910F91FF90EF90CE
S11322A0DF90CF90BF90AF909F908F907F906F9072
S11322B05F904F903F902F9008954F925F926F924E
S11322C07F928F929F92AF92BF92CF92DF92EF92C2
S11322D0FF920F931F93CF93DF9300D000D000D0D1
S11322E0CDB7DEB7FC012081222309F4F8C09E8318
S11322F08D830E94EF0A0E9486142DEB37E346E893
S113230055E30E943D156B017C01ED81FE816385DF
S1132310748585859685A70196010E943D1569837C
S11323207A838B839C83ED81FE81838D948DA58D2F
S1132330B68DBC01CD019F7705811681278130853B
S1132340A90198015F770E9473134B015C01ED8131
S1132350FE818081813029F5CF010E945E109B01AE
S1132360AC01C501B4010E94E0138823D4F482E0D7
S1132370ED81FE8180834788508C618C728C20E0D3
S113238030E0A901C301B2010E94E013811103C02E
S1132390412C512C3201ED81FE81438A548A658A95
S11323A0768AED81FE816181728183819481438883
S11323B0548865887688A30192010E94E0138823DB
S11323C01CF5ED81FE812181328143815481698133
S11323D07A818B819C810E947413ED81FE816183DB
S11323E07283838394832181328143815481C30125
S11323F0B2010E94E0138823ACF5ED81FE81418295
S11324005282638274822EC0ED81FE8121813281E9
S113241043815481C301B2010E94E013882314F55F
S1132420ED81FE81618172818381948129813A8168
S11324304B815C810E947313ED81FE816183728301
S1132440838394832181328143815481C301B20106
S11324500E943815181634F4ED81FE8141825282AF
S113246063827482ED81FE818285811105C00E94A0
S11324709F0A9B01AC0104C00E94BE0A9B01AC01EF
S1132480ED81FE814580568067807084C701B60166
S11324900E943D159B01AC01C301B2010E9474135B
S11324A0ED81FE8165837683878390878081833085
S11324B0B1F020E030E040E05EE3C501B4010E94E9
S11324C0E013882364F483E0ED81FE8180838789AF
S11324D0908DA18DB28D838B948BA58BB68B269614
S11324E00FB6F894DEBF0FBECDBFDF91CF911F9121
S11324F00F91FF90EF90DF90CF90BF90AF909F909F
S11325008F907F906F905F904F9008950E94EF0D91
S11325100E94270881E592E00E94931080E792E0F0
S11325200E94931081E00E94970C089560915202DA
S113253070915302809154029091550208956091D4
S113254071027091720280917302909174020895E5
S11325509091510281E0933009F080E008959091C8
S1132560700281E0933009F080E008958F929F9289
S1132570AF92BF92CF92DF92EF92FF920F931F938D
S11325804501560110925B026701780189019A01A5
S1132590AB01BC0181E592E00E94A4101F910F9150
S11325A0FF90EF90DF90CF90BF90AF909F908F906F
S11325B008958F929F92AF92BF92CF92DF92EF9243
S11325C0FF920F931F9345015601E1E0E0937A02D5
S11325D06701780189019A01AB01BC0180E792E0AF
S11325E00E94A4101F910F91FF90EF90DF90CF9065
S11325F0BF90AF909F908F90089581E592E00E94E4
S11326005D1180E792E00E945D110895F89414BC76
S113261082E085BD81E080936E00789408951F92D6
S11326200F920FB60F9211242F933F934F935F9302
S11326306F937F938F939F93AF932091490230912F
S11326404A0240914B0250914C0260914D027091AC
S11326504E0280914F0290915002A1E00E94DA1D37
S11326602093490230934A0240934B0250934C0208
S113267060934D0270934E0280934F0290935002E8
S1132680AF919F918F917F916F915F914F913F9106
S11326902F910F900FBE0F901F9018950F93FFB7B7
S11326A0F8942091490230914A0240914B02509192
S11326B04C0260914D0270914E0280914F029091B4
S11326C05002E6B5A89B05C0EF3F19F0A1E00E94B7
S11326D0DA1DFFBF08E00E94A31D2E2B01E00E941B
S11326E0BE1D0F9108955058BB27AA270E948B1333
S11326F00C94FE140E94F01438F00E94F71420F099
S113270039F49F3F19F426F40C94ED140EF4E0957B
S1132710E7FB0C94E714E92F0E940F1558F3BA173E
S1132720620773078407950720F079F4A6F50C94E3
S113273031150EF4E0950B2EBA2FA02D0B01B90123
S113274090010C01CA01A0011124FF27591B99F023
S1132750593F50F4503E68F11A16F040A22F232F2F
S1132760342F4427585FF3CF469537952795A7957F
S1132770F0405395C9F77EF41F16BA0B620B730B26
S1132780840BBAF09150A1F0FF0FBB1F661F771F97
S1132790881FC2F70EC0BA0F621F731F841F48F44C
S11327A0879577956795B795F7959E3F08F0B0CFD5
S11327B09395880F08F09927EE0F979587950895BC
S11327C00E94C31408F481E008950E94F9130C9444
S11327D0FE140E94F71458F00E94F01440F029F4FB
S11327E05F3F29F00C94E71451110C9432150C94AA
S11327F0ED140E940F1568F39923B1F3552391F357
S1132800951B550BBB27AA2762177307840738F05B
S11328109F5F5F4F220F331F441FAA1FA9F335D0B8
S11328200E2E3AF0E0E832D091505040E695001C6C
S1132830CAF72BD0FE2F29D0660F771F881FBB1F26
S1132840261737074807AB07B0E809F0BB0B802D04
S1132850BF01FF2793585F4F3AF09E3F510578F030
S11328600C94E7140C9432155F3FE4F3983ED4F3D0
S1132870869577956795B795F7959F5FC9F7880F04
S1132880911D9695879597F90895E1E0660F771F56
S1132890881FBB1F621773078407BA0720F0621BE7
S11328A0730B840BBA0BEE1F88F7E09508950E9412
S11328B0171588F09F5798F0B92F9927B751B0F0A2
S11328C0E1F0660F771F881F991F1AF0BA95C9F7B0
S11328D014C0B13091F00E943115B1E008950C9408
S11328E03115672F782F8827B85F39F0B93FCCF3BB
S11328F0869577956795B395D9F73EF4909580952D
S1132900709561957F4F8F4F9F4F0895E89409C04C
S113291097FB3EF490958095709561957F4F8F4F0E
S11329209F4F9923A9F0F92F96E9BB279395F69524
S1132930879577956795B795F111F8CFFAF4BB0FA2
S113294011F460FF1BC06F5F7F4F8F4F9F4F16C006
S1132950882311F096E911C0772321F09EE8872F90
S1132960762F05C0662371F096E8862F70E060E04C
S11329702AF09A95660F771F881FDAF7880F9695C5
S1132980879597F90895990F0008550FAA0BE0E869
S1132990FEEF16161706E807F907C0F0121613061D
S11329A0E407F50798F0621B730B840B950B39F45D
S11329B00A2661F0232B242B252B21F408950A26C3
S11329C009F4A140A6958FEF811D811D089597F903
S11329D09F6780E870E060E008959FEF80EC0895C1
S11329E000240A94161617061806090608950024EA
S11329F00A9412161306140605060895092E039464
S1132A00000C11F4882352F0BB0F40F4BF2B11F4D7
S1132A1060FF04C06F5F7F4F8F4F9F4F089557FD36
S1132A209058440F551F59F05F3F71F04795880F38
S1132A3097FB991F61F09F3F79F0879508951216CF
S1132A4013061406551FF2CF4695F1DF08C016167B
S1132A5017061806991FF1CF86957105610508942C
S1132A600895E894BB2766277727CB0197F9089543
S1132A700E94C31408F48FEF08950E9450150C941B
S1132A80FE140E94F01438F00E94F71420F09523ED
S1132A9011F00C94E7140C94ED1411240C943215D9
S1132AA00E940F1570F3959FC1F3950F50E0551FC9
S1132AB0629FF001729FBB27F00DB11D639FAA278F
S1132AC0F00DB11DAA1F649F6627B00DA11D661FDE
S1132AD0829F2227B00DA11D621F739FB00DA11DFF
S1132AE0621F839FA00D611D221F749F3327A00DB9
S1132AF0611D231F849F600D211D822F762F6A2F55
S1132B0011249F5750409AF0F1F088234AF0EE0FB9
S1132B10FF1FBB1F661F771F881F91505040A9F7E6
S1132B209E3F510580F00C94E7140C9432155F3FDE
S1132B30E4F3983ED4F3869577956795B795F79522
S1132B40E7959F5FC1F7FE2B880F911D969587959A
S1132B5097F90895A0E1B0E0E0EBF5E10C946C1D69
S1132B607C011B016A01FC0117821682838181FFAB
S1132B7044C39E012F5F3F4F3901F7019381F10157
S1132B8093FD859193FF81911F01882309F431C33B
S1132B90853239F493FD859193FF81911F0185322C
S1132BA039F4B70190E00E942E1F56016501E5CF6C
S1132BB010E0512C912CFFE1F915D8F08B3279F00B
S1132BC038F4803279F08332A1F4F92DF0612EC00B
S1132BD08D3261F0803369F4292D21602DC0392DA7
S1132BE03260932E892D8460982E2AC0E92DE860E6
S1132BF015C097FC2DC020ED280F2A3088F496FECE
S1132C0006C03AE0139F200D1124122F19C08AE048
S1132C10589E200D1124522EE92DE0629E2E10C0E4
S1132C208E3231F496FCE5C2F92DF0649F2E08C073
S1132C308C3621F4292D2068922E02C0883641F466
S1132C40F10193FD859193FF81911F018111B3CF10
S1132C509BEB980F933020F4992D9061805E07C010
S1132C609BE9980F933008F066C1992D9F7E96FFDB
S1132C7016E09F73992E853619F49064992E08C036
S1132C80863621F4392F3068932E02C01111115069
S1132C9097FE07C01C3350F444244394410E27E0AC
S1132CA00BC0183038F027E017E005C027E09CE39C
S1132CB0492E02C0212F412C560184E0A80EB11CDC
S1132CC0F6016081718182819381042DA3010E94A8
S1132CD0E61D6C01F981FC87F0FF02C0F3FF06C01A
S1132CE091FC06C092FE06C000E205C00DE203C0DE
S1132CF00BE201C000E08C858C7019F001115AC2FE
S1132D009BC297FE10C04C0CFC85F4FF04C08A8162
S1132D10813309F44A94141474F528E0241578F5E1
S1132D2088E0482E2CC096FC2AC0812F90E08C1598
S1132D309D059CF03CEFC3163FEFD30674F0892D3C
S1132D408068982E0AC0E2E0F0E0EC0FFD1FE10F6E
S1132D50F11D8081803319F411501111F4CF97FEC5
S1132D600EC044244394410E812F90E0C816D90626
S1132D702CF41C1904C04424439401C010E097FEB1
S1132D8006C01C141D0434F4C601019605C085E078
S1132D9090E002C081E090E001110196112331F02E
S1132DA0212F30E02F5F3F4F820F931F252D30E0FE
S1132DB08217930714F4581A01C0512C892D897075
S1132DC049F4552039F0B70180E290E00E942E1FAB
S1132DD05A94F7CF002329F0B701802F90E00E9486
S1132DE02E1F93FC09C0552039F0B70180E390E011
S1132DF00E942E1F5A94F7CF97FE4CC04601D7FE6F
S1132E0002C0812C912CC60188199909F301E80F9D
S1132E10F91FFE87ED87960124193109388B2F8716
S1132E20012F10E01195019511093FEF83169306C8
S1132E3029F4B7018EE290E00E942E1FC814D90431
S1132E404CF08F8598898815990524F4ED85FE85C5
S1132E50818101C080E3F1E08F1A91082D853E85C0
S1132E602F5F3F4F3E872D87801691062CF0B701C8
S1132E7090E00E942E1FD9CFC814D90441F49A813E
S1132E80963320F4953319F43C8534FF81E3B7017C
S1132E9090E04EC08A81813319F09C859F7E9C8787
S1132EA0B70190E00E942E1F111105C094FC18C0B8
S1132EB085E690E017C0B7018EE290E00E942E1FD5
S1132EC01E5F82E001E0080FF301E80FF11D80812D
S1132ED0B70190E00E942E1F802F0113F3CFE6CF9D
S1132EE085E490E0B7010E942E1FD7FC06C0C114F0
S1132EF0D10441F4EC85E4FF05C0D194C194D10818
S1132F008DE201C08BE2B70190E00E942E1F80E3A6
S1132F102AE0C216D1042CF08F5FFAE0CF1AD10850
S1132F20F7CFB70190E00E942E1FB701C601C096EB
S1132F300E942E1F54C1833631F0833779F08335D4
S1132F4009F056C020C0560132E0A30EB11CF601B0
S1132F508081898301E010E0630112C05601F2E030
S1132F60AF0EB11CF601C080D18096FE03C0612F64
S1132F7070E002C06FEF7FEFC6010E94E51E8C0176
S1132F80F92DFF7714C0560122E0A20EB11CF60100
S1132F90C080D18096FE03C0612F70E002C06FEF45
S1132FA07FEFC6010E94DA1E8C01F92DF0689F2E76
S1132FB0F3FD1AC0852D90E008171907A8F4B7018E
S1132FC080E290E00E942E1F5A94F4CFF60197FC01
S1132FD0859197FE81916F01B70190E00E942E1FA9
S1132FE051105A94015011090115110579F7F7C0D0
S1132FF0843611F0893661F5560197FE09C024E044
S1133000A20EB11CF60160817181828193810AC094
S1133010F2E0AF0EB11CF60160817181072E000C45
S1133020880B990BF92DFF769F2E97FF09C0909579
S11330308095709561957F4F8F4F9F4FF0689F2EBD
S11330402AE030E0A3010E94CC1FC82EC6183FC05E
S1133050092D853721F40F7E2AE030E01DC0097F59
S11330608F3691F018F4883559F0C3C0803719F0C1
S1133070883711F0BEC0006104FF09C0046007C0B6
S113308094FE08C0066006C028E030E005C020E1D8
S113309030E002C020E132E0560107FF09C084E0BD
S11330A0A80EB11CF601608171818281938108C0F0
S11330B0F2E0AF0EB11CF6016081718180E090E016
S11330C0A3010E94CC1FC82EC6180F77902E96FE1F
S11330D00BC0092D0E7FC11650F494FE0AC092FC59
S11330E008C0092D0E7E05C0DC2C092D03C0DC2C84
S11330F001C0D12E04FF0DC0FE01EC0DF11D808135
S1133100803311F4097E09C002FF06C0D394D3941E
S113311004C0802F867809F0D39403FD11C000FF0A
S113312006C01C2DD51480F4150D1D190DC0D51421
S113313058F4B70180E290E00E942E1FD394F7CF99
S1133140D51410F45D1801C0512C04FF10C0B70150
S113315080E390E00E942E1F02FF17C001FD03C010
S113316088E790E002C088E590E0B7010CC0802FAA
S1133170867859F001FF02C08BE201C080E207FDAE
S11331808DE2B70190E00E942E1FC11638F4B701FA
S113319080E390E00E942E1F1150F7CFCA94F301F0
S11331A0EC0DF11D8081B70190E00E942E1FC1102B
S11331B0F5CF15C0F4E0F51560F584E0581A93FED8
S11331C01FC0011127C02C8523FF2AC00CE111E088
S11331D0392D3071932EF8018491811124C055202A
S11331E009F4E4CCB70180E290E00E942E1F5A94C7
S11331F0F6CFF7018681978126C08FEF9FEF23C01A
S1133200B70180E290E00E942E1F5A945110F8CF2B
S1133210D8CF512CB701802F90E00E942E1FD3CF1E
S113322000E211E0D5CF91108052B70190E00E94E6
S11332302E1F0F5F1F4FCFCF23E0251510F483E01F
S1133240BDCF512CC0CF6096E2E10C94881D20FDC7
S113325009C0FC0123FD05C022FF02C07383628301
S113326051834083089544FD17C046FD17C0AB0148
S1133270BC01DA01FB01AA0FBB1FEE1FFF1F109454
S1133280D1F74A0F5B1F6E1F7F1FCB01BA01660F78
S1133290771F881F991F09C033E001C034E0660F0F
S11332A0771F881F991F3150D1F7620F711D811D3F
S11332B0911D08950F931F93CF93DF938C01C80141
S11332C00E94F01EEC0197FD08C00E94BE1E892BCF
S11332D0B1F7B801CE010E94B31FCE01DF91CF91A7
S11332E01F910F910895A0E0B0E0E9E7F9E10C9493
S11332F0721D7C018B016A01D22F0E94F01E9C0179
S113330033272B32310521F02D32310559F4D068A1
S11333100150110911F480E06BC0C7010E94F01E36
S113332097FDF9CFCD2FCD7F2D2F207319F5803345
S113333009F5580181E0A81AB10809F445C0C7018C
S11333400E94F01E97FD40C09C012F7D3327283535
S1133350310551F4C26402501109B1F1C7010E9450
S1133360F01E97FF07C030C0D6FF02C0C26001C084
S1133370C2618501812C912C540120ED280F283045
S113338080F0C4FF04C0B7010E94B31F1AC02A30E2
S113339040F0C6FFF8CF2F7D3FEE320F363098F75E
S11333A027504C2FC501B4010E9433194B015C0115
S11333B0C2600150110959F0C7010E94F01E97FF25
S11333C0DCCFC1FD04C0A7CF812C912C5401C7FFD1
S11333D008C0B094A09490948094811C911CA11C6A
S11333E0B11C2C2FB501A401C6010E94271981E04C
S11333F0CDB7DEB7ECE00C948E1DA0E2B0E0E3E0C4
S1133400FAE10C946E1D5C014B017A018E010F5F91
S11334101F4F680180E2F80111928A95E9F7F501DE
S1133420538040E050E0612C90E0712CA1E0B0E0CA
S1133430F90153FC859153FE81918F01482E9F0120
S1133440811103C080E090E096C08E3519F44115D7
S1133450510551F1672D70E0641775073CF48D3503
S113346061F18D3219F4992311F103C0992309F400
S11334706DC0842D869586958695F601E80FF11D1D
S1133480842D87708D0102C0000F111F8A95E2F709
S1133490C8019081892B8083641459F0461410F478
S11334A04394E7CF4A94E5CF7724739403C091E023
S11334B001C090E04F5F5F4FBBCF992319F08E811D
S11334C080628E83711003C07724739419C0F6014F
S11334D09E012F5D3F4F8081809581932E173F077A
S11334E0D1F7F2CFE114F10431F0F7018083B70191
S11334F06F5F7F4F7B0171E0871A9108712CF9F09F
S1133500C5010E94F01E97FD18C0FC01FF2723E0AF
S1133510F595E7952A95E1F7EC0DFD1D208130E046
S1133520AC014770552702C0359527954A95E2F7B7
S113353020FDD8CFB5010E94B31F711083CFE114D1
S1133540F10411F0F7011082C80115C0682F6695C7
S113355066956695F601E60FF11D682F67708D017B
S113356002C0000F111F6A95E2F7B8017081672B42
S11335706083682E9FCFA096E0E10C948A1D2F9261
S11335803F924F925F926F927F929F92AF92BF92BF
S1133590CF92DF92EF92FF920F931F93CF93DF931B
S11335A06C018B011A010E94F01EEC0199278B32E9
S11335B0910529F08D9781F430E8932E01C0912C68
S11335C00150110911F480E00CC1C6010E94F01EE3
S11335D0EC0197FF02C0F7CF912CCE010E94C71EC9
S11335E08936910531F08E36910599F5C0EFD2E018
S11335F002C0C3EFD2E02196FE013197B490BB2004
S1133600C9F00150110991F0C6010E94F01E7C011D
S113361097FD0CC00E94C71E9927EB2DF0E08E1772
S11336209F0749F3B601C7010E94B31FC65FD2408A
S113363051F603C0C35FD24029F080E090E0A0E8D7
S1133640BFE704C080E090E0A0ECBFE7BC01CD017F
S1133650B8C0412C512C3201E12CF12C2C2F2053D9
S11336602A3010F5E92DE260BE2E892D887092FE75
S113367006C0811120C0FFEFEF1AFF0A1CC0882387
S113368019F081E0E81AF10840E2C301B2010E9496
S113369033192B013C01683979498949994158F01A
S11336A0F92DF660BF2E07C02E3F89F493FC0FC09E
S11336B0292D2860B22E0150110941F0C6010E9443
S11336C0F01EEC019B2C97FFC9CF01C09B2C91FEEF
S11336D07ACFCE018F7D99278534910509F042C0B8
S11336E0580181E0A81AB10809F46DCFC6010E94FF
S11336F0F01EEC0197FD67CF99278B32910529F0D5
S11337008D9769F4E92DE0619E2E5801F2E0AF1A1D
S1133710B10809F458CFC6010E94F01EEC01CE0195
S1133720C0970A9708F04FCF8501A12CB12CB501A1
S1133730BB0C880B990B2C2F205340E20E943319A9
S11337405B010150110939F0C6010E94F01EEC0121
S1133750C0970A9760F394FE03C0B194A194B10892
S1133760EA0CFB1C012B31F0D7FD04C0B601CE01DD
S11337700E94B31FC301B2010E948614F7FE06C063
S1133780F194E194F108CFE0D3E002C0C7E2D3E0C2
S11337906E0128E1C21AD10800E210E0E016F10639
S11337A050F0FE0125913591459154910E943D15AB
S11337B0E01AF10AF3CF249716950795CC16DD0687
S11337C069F797FE05C0DC01CB01B058BC01CD01FF
S11337D02114310429F0F10160837183828393837E
S11337E081E0DF91CF911F910F91FF90EF90DF90D7
S11337F0CF90BF90AF909F907F906F905F904F90CD
S11338003F902F900895A0E0B0E0E9E0FCE10C9433
S1133810701D5C01EB014A01FC0117821682612CC8
S1133820F5010381FE0103FD859103FF8191182FAA
S1133830EF01882309F40FC190E00E94BE1E892B7A
S113384021F0C5010E945A19EBCF153241F4FE0153
S113385003FD159103FF1191EF01153281F4C501A8
S11338600E94F01E97FDF5C0412F50E09C013327C4
S113387024173507A9F2B5010E94B31FECC01A3210
S113388041F403FD159103FF1191EF017724739423
S113389001C0712CE12CF12C20ED210F2A3088F489
S11338A0F72DF2607F2EB70180E090E040E20E94A5
S11338B033197B01FE0103FD159103FF1191EF0103
S11338C0EBCF71FE04C0E114F10421F4C4C0EE2472
S11338D0EA94FE2C183619F01C3661F014C0FE016F
S11338E003FD159103FF1191EF01183661F4872D43
S11338F08860782E972D9460792EFE0103FD159132
S113390003FF1191EF01112309F4A5C0612F70E0A9
S11339108EED92E00E94CF1E892B09F49CC070FCAE
S113392007C0F401C080D180C40102964C0102C0DA
S1133930C12CD12C1E3651F4F5014681578160E02B
S113394070E0272DC6010E9427196ACF1336B9F4F7
S113395071FC03C0EE24E394F12CC5010E94F01E17
S113396097FD77C0C114D10429F0F6018083C60104
S113397001966C0191E0E91AF10879F766C01B35EC
S113398059F49E01A601B701C5010E94FD19EC017D
S1133990892B09F05AC054C0C5010E945A1997FDD9
S11339A058C01F36E1F140F41436A9F11936D1F1AB
S11339B0183509F03EC02BC01337A9F018F410379E
S11339C031F137C0153739F1183709F132C0C11454
S11339D0D10429F0F6010083C60101966C0191E03F
S11339E0E91AF10871F0C5010E94F01E8C0197FDDF
S11339F008C00E94BE1E892B51F3B501C8010E9464
S1133A00B31FC114D10409F1F60110821EC0F72DB1
S1133A10F0647F2E07C0872D8062782E03C0972D17
S1133A209061792E272DA601B701C5010E94731953
S1133A3005C0A601B701C5010E94BF1A811105C0C6
S1133A40F5018381807329F406C070FCE9CE639488
S1133A50E7CE662019F0862D90E002C08FEF9FEF2D
S1133A60CDB7DEB7EEE00C948C1DA1E21A2EAA1B92
S1133A70BB1BFD010DC0AA1FBB1FEE1FFF1FA2171A
S1133A80B307E407F50720F0A21BB30BE40BF50B17
S1133A90661F771F881F991F1A9469F760957095A0
S1133AA0809590959B01AC01BD01CF010895EE0F67
S1133AB0FF1F0590F491E02D0994A29FB001B39FDC
S1133AC0C001A39F700D811D1124911DB29F700D23
S1133AD0811D1124911D08952F923F924F925F9260
S1133AE06F927F928F929F92AF92BF92CF92DF920A
S1133AF0EF92FF920F931F93CF93DF93CDB7DEB76F
S1133B00CA1BDB0B0FB6F894DEBF0FBECDBF099402
S1133B102A88398848885F846E847D848C849B8459
S1133B20AA84B984C884DF80EE80FD800C811B8167
S1133B30AA81B981CE0FD11D0FB6F894DEBF0FBE96
S1133B40CDBFED0108950F93083090F0982F872F83
S1133B50762F652F542F432F322F22270850F4CF6E
S1133B60220F331F441F551F661F771F881F991F7D
S1133B700A95B2F70F91089597FB10F81694000870
S1133B800F93083098F00850232F342F452F562FC9
S1133B90672F782F892F902DF4CF059497958795CB
S1133BA07795679557954795379527950A95AAF779
S1133BB00F9108950024A7FD00942A0F301D401D85
S1133BC0501D601D701D801D901D0895283008F043
S1133BD027E03327DA01990F311D87FD91600096A4
S1133BE06105710539F432602E5F3D9330E32A9507
S1133BF0E1F708959F3F30F080387105610509F0C1
S1133C003C5F3C5F3D93913008F08068911DDF93E9
S1133C10CF931F930F93FF92EF92192F987F96954E
S1133C20E92F96959695E90FFF27E258FE4F9927BD
S1133C303327EE24FF24A701E70105900894079495
S1133C4028F4360FE71EF81E491F511D660F771F13
S1133C50881F991F0694A1F70590079428F4E70E8E
S1133C60F81E491F561FC11D770F881F991F661F15
S1133C700694A1F70590079428F4F80E491F561FDF
S1133C80C71FD11D880F991F661F771F0694A1F7C0
S1133C900590079420F4490F561FC71FD81F990F8A
S1133CA0661F771F881F0694A9F7849110951770D3
S1133CB041F0D695C79557954795F794E7941A958B
S1133CC0C1F7E4E2F1E0689415901591359165919E
S1133CD0959105907FE27395E118F10A430B560B19
S1133CE0C90BD009C0F7E10CF11E431F561FC91FB1
S1133CF0D01D7EF4703311F48A95E6CFE894015018
S1133D0030F0080F0AF40027021708F4202F239537
S1133D10022F7A3328F079E37D932A95E9F710C0CE
S1133D207D932A9589F60694979567953795179507
S1133D301794E118F10A430B560BC90BD00998F0FC
S1133D4023957E9173957A3308F070E37C93201366
S1133D50B8F77E9170617D9330F0839571E37D9324
S1133D6070E32A95E1F71124EF90FF900F911F91D2
S1133D70CF91DF91992787FD9095089591110C9427
S1133D802A20803219F089508550C8F7089591117E
S1133D90089581548A5108F4805E855A0895FC017F
S1133DA00590061621F00020D9F7C0010895319737
S1133DB0CF010895FC010590615070400110D8F7BF
S1133DC0809590958E0F9F1F0895FC01615070405F
S1133DD001900110D8F7809590958E0F9F1F08953C
S1133DE0CF93DF93EC012B8120FF33C026FF0AC061
S1133DF02F7B2B838E819F8101969F838E838A8163
S1133E0090E029C022FF0FC0E881F9818081082E4B
S1133E10000C990B009719F420622B831AC0319679
S1133E20F983E8830EC0EA85FB85099597FF09C0ED
S1133E302B81019611F080E201C080E1822B8B83FB
S1133E4008C02E813F812F5F3F4F3F832E839927E8
S1133E5002C08FEF9FEFDF91CF9108950F931F93CF
S1133E60CF93DF93FB01238121FD03C08FEF9FEFED
S1133E702CC022FF16C04681578124813581421708
S1133E80530744F4A081B1819D012F5F3F4F3183DB
S1133E9020838C93268137812F5F3F4F378326837E
S1133EA014C08B01EC01FB010084F185E02D099520
S1133EB0892BE1F6D80116968D919C91179701965E
S1133EC017969C938E931697CE01DF91CF911F91F5
S1133ED00F910895AEE0B0E0E0E7FFE10C947A1DA5
S1133EE00D891E898F89988D26E02C831A83098376
S1133EF097FF02C080E090E801979E838D83AE0116
S1133F00455E5F4F698D7A8DCE0101960E94AA1598
S1133F104D815E8157FD0AC02F81388542175307B2
S1133F200CF49A01F801E20FF31F10822E96E4E0DC
S1133F300C94961DAEE0B0E0E0EAFFE10C947C1D29
S1133F4085E08C838B899C899A838983AE01495E41
S1133F505F4F6D897E89CE0101960E94031C2E96C7
S1133F60E2E00C94981DFB01238120FF12C026FD82
S1133F7010C08F3F3FEF930761F082832F7D206451
S1133F80238326813781215031093783268399275A
S1133F9008958FEF9FEF0895FA01AA27283051F171
S1133FA0203181F1E8946F936E7F6E5F7F4F8F4F66
S1133FB09F4FAF4FB1E03ED0B4E03CD0670F781FC5
S1133FC0891F9A1FA11D680F791F8A1F911DA11DAA
S1133FD06A0F711D811D911DA11D20D009F46894E3
S1133FE03F912AE0269F11243019305D3193DEF68B
S1133FF0CF010895462F4770405D4193B3E00FD041
S1134000C9F7F6CF462F4F70405D4A3318F0495D2B
S113401031FD4052419302D0A9F7EACFB4E0A6950E
S11340209795879577956795BA95C9F70097610530
S1134030710508959B01AC010A2E06945795479586
S113404037952795BA95C9F7620F731F841F951F7B
S1114050A01D0895992788270895F894FFCF9E
S113405E010100000000E1000000000825752C2578
S113406E662C25662C25752C25752C25752C257509
S113407E2C25662C2566005370644C3A20252B366D
S113408E2E316620537064523A20252B362E31661B
S113409E2056656C3A20252B362E3166204F6D67DF
S11340AE3A20252B352E316620646973743A202507
S11340BE2B382E316620616E673A20252B372E3130
S11340CE662064743A2025372E316620200025336D
S11340DE2E32662025332E32662025332E3266206C
S11340EE2531306C64202531306C642025752025F3
S11340FE7520257520257520257520257520257597
S107410E0D0A000092
S9030000FC
