S01600006176725F636F6E74726F6C6C65722E7372656322
S11300000C9456000C9460000C9460000C946000F6
S11300100C9460000C9460000C9460000C946000DC
S11300200C9460000C9460000C9460000C946000CC
S11300300C9460000C9460000C9460000C946000BC
S11300400C9460000C9460000C9460000C946000AC
S11300500C9460000C9460000C9460000C9460009C
S11300600C9460000C9460000C9460000C9460008C
S11300700C9460000C9460000C9460000C9460007C
S11300800C9460000C9460000C9460000C9460006C
S11300900C9460000C9460000C9460000C9460005C
S11300A00C9460000C9460000C94600011241FBE3A
S11300B0CFEFDAE0DEBFCDBF0E9462000C944601B0
S11300C00C9400000E947F0081E00E94B00081E057
S11300D00E94BA0088EC90E00E94C40088EC90E092
S11300E00E94E5002AEA36EE86E991E0215030408C
S11300F080409040D9F700000E940401FFCF84B1F2
S1130100806284B984B1806484B98DB180648DB90E
S11301108AB180688AB98DB184608DB98AB18061F1
S11301208AB985B18F7D85B985B18F7B85B98EB14B
S113013080648EB98BB18F778BB98EB18B7F8EB97A
S11301408BB180618BB980E48093800088E08093D8
S1130150810084E08093C00082E08093C100089510
S1130160882321F08EB18F7B8EB908958EB180647F
S11301708EB90895882321F08BB18F7E8BB90895B1
S11301808BB180618BB908959C01A8ECB0E00E940A
S113019037012CE330E040E050E00E941501220FCB
S11301A0331F441F551F60E074E284EF90E00E9407
S11301B01501215031093093890020938800E1E82A
S11301C0F0E080818160808308959C01A8ECB0E018
S11301D00E9437012CE330E040E050E00E9415011A
S11301E0220F331F441F551F60E074E284EF90E038
S11301F00E941501215031092093D200E1ECF0E076
S1130200808181608083089580E00E94B00080E056
S11302100E94BA00E1E8F0E08081887F8083E1EC0D
S1130220F0E08081887F80830895A1E21A2EAA1BC2
S1130230BB1BFD010DC0AA1FBB1FEE1FFF1FA21792
S1130240B307E407F50720F0A21BB30BE40BF50B8F
S1130250661F771F881F991F1A9469F76095709518
S1130260809590959B01AC01BD01CF010895A29F9B
S1130270B001B39FC001A39F700D811D1124911D76
S1130280B29F700D811D1124911D0895F894FFCF24
S9030000FC
