S01600006176725F636F6E74726F6C6C65722E7372656322
S11300000C9472010C94E8040C944E050C948F012A
S11300100C948F010C948F010C948F010C948F011C
S11300200C948F010C94B4050C94E8090C94260AE2
S11300300C948F010C948F010C948F010C948F01FC
S11300400C948F010C9420080C948F010C948F0154
S11300500C948F010C948F010C948F010C948F01DC
S11300600C948F010C948F010C948F010C948F01CC
S11300700C948F010C948F010C948F010C948F01BC
S11300800C94DE030C948F010C948F010C948F015B
S11300900C948F010C948F010C948F010C948F019C
S11300A00C94FB070C948F010C948F012C051805FC
S11300B03F0518053F053F052C052C053F053F0569
S11300C018053F0518052C0592057E05A5057E0536
S11300D0A505A50592059205A505A5057E05A50519
S11300E07E059205F905E5050C06E5050C060C06EA
S11300F0F905F9050C060C06E5050C06E505F905F8
S11301006E616E00696E660000407A10F35A00A0BA
S1130110724E18090010A5D4E80000E876481700CC
S113012000E40B54020000CA9A3B000000E1F5050C
S1130130000080969800000040420F000000A08656
S113014001000000102700000000E8030000000088
S11301506400000000000A0000000000010000002C
S113016000002C76D888DC674F0823DFC1DFAE5946
S1130170E1B1B796E5E3E453C63AE651997696E8D9
S1130180E6C28426EB898C9B62ED407C6FFCEFBC5D
S11301909C9F40F2BAA56FA5F490055A2AF75C9388
S11301A06B6CF9676DC11BFCE0E40D47FEF520E6BE
S11301B0B500D0ED902E0300943577050080841EA1
S11301C0080000204E0A000000C80C333333330FFC
S11301D0986E12831141EF8D2114893BE65516CF99
S11301E0FEE6DB18D1844B381BF77C1D901DA4BBA5
S11301F0E424203284725E228100C9F124ECA1E55A
S11302003D276364696E6F70737578585B00494D60
S113021055204661696C65640D0A004D3220726593
S11302206164790D0A004D322072656164790D0AAA
S11302300000010000C80212000200008502430011
S1130240030000810204010309046D021202030980
S113025004650206030309045B0208080334003141
S1130260003000000006034D003200000012034A73
S1130270002E0020004600690065006E0065000045
S1130280000403090409024300020100C032090406
S113029000000102020100052400100105240101EF
S11302A00104240206052406000107058203100048
S11302B04009040100020A0000000705030240008F
S11302C00007058402400000120100020200001031
S11302D0C0167A040001010203010001C112018069
S11302E03601813611241FBECFEFDAE0DEBFCDBF69
S11302F011E0A0E0B1E0ECE0F4E302C005900D925F
S1130300AA36B107D9F722E0AAE6B1E001C01D92EE
S1130310AA30B207E1F70E9439030C94041A0C9432
S11303200000109290008CE08093910081EE94E0A4
S1130330909399008093980082E0809371000895CF
S11303402AE631E03F932F932EE631E03F932F933B
S113035022E731E03F932F9324E731E03F932F933B
S113036026E731E03F932F9328E731E03F932F9323
S11303702AE731E03F932F932EE731E03F932F9309
S113038027E031E03F932F939F938F930E9472163F
S113039021E04DB75EB74C5E5F4F0FB6F8945EBF79
S11303A00FBE4DBF089709F020E0822F089521C0A9
S11303B00E9467098A3011F08D3079F4E09183014D
S11303C0EE23B9F0F0E0EC57FE4F108284E891E0A0
S11303D00E94A001109283010CC0E0918301EF33CD
S11303E040F491E09E0F90938301F0E0EC57FE4FB0
S11303F080830E9485098111DBCF0895CF93DF9319
S1130400EC0103C021960E94940988818111FACFDE
S1130410DF91CF9108952F923F924F925F926F9206
S11304207F928F929F92AF92BF92CF92DF92EF9280
S1130430FF920F931F93CF93DF93CDB7DEB7C05BCB
S1130440D1090FB6F894DEBF0FBECDBFAE014B5538
S11304505F4FBE016D557F4FCE018F559F4F0E9458
S11304607907CF55DF4F68817981C15AD040072E73
S1130470000C880B990B0E94B00F20E030E040E89C
S11304805DE30E946510C955DF4F6883C75AD040A9
S1130490C855DF4F7883C85AD040C755DF4F88838B
S11304A0C95AD040C655DF4F9883CA5AD040CD555B
S11304B0DF4F68817981C35AD040072E000C880B26
S11304C0990B0E94B00F20E030E040E85DE30E9409
S11304D06510C555DF4F6883CB5AD040C455DF4FF4
S11304E07883CC5AD040C355DF4F8883CD5AD0404F
S11304F0C255DF4F9883CE5AD040CB55DF4F688129
S11305007981C55AD040072E000C880B990B0E94A4
S1130510B00F20E030E040E85DE30E946510C15573
S1130520DF4F6883CF5AD040C055DF4F7883C05B1C
S1130530D040182F092F0E945704F82EE92E0E944C
S11305406704D82EC92E0E947704B82EA92E0E94C3
S11305507B04982E892E0E947F04782E692E0E9497
S11305601B06562E472E382E292E0E9426069F93B0
S11305708F937F936F932F923F924F925F926F92DC
S11305807F928F929F92AF92BF92CF92DF92EF921F
S1130590FF920F931F93C055DF4F8881C05BD040FB
S11305A08F93C155DF4F9881CF5AD0409F93C25546
S11305B0DF4F8881CE5AD0408F93C355DF4F988147
S11305C0CD5AD0409F93C455DF4F8881CC5AD04038
S11305D08F93C555DF4F9881CB5AD0409F93C65512
S11305E0DF4F8881CA5AD0408F93C755DF4F988117
S11305F0C95AD0409F93C855DF4F8881C85AD0400C
S11306008F93C955DF4F9881C75AD0409F938FE18C
S113061091E09F938F931F9280EA8F938E010F5FD7
S11306201F4F1F930F930E9442160FB6F894DEBF1C
S11306300FBECDBFC8010E94FE010E94D809C0555B
S1130640DF4F0FB6F894DEBF0FBECDBFDF91CF9161
S11306501F910F91FF90EF90DF90CF90BF90AF90DC
S11306609F908F907F906F905F904F903F902F90CE
S113067008952FEF81EE94E0215080409040E1F7FF
S113068000C000000E944B090E9464098823E1F322
S113069086E292E00E94970B0E94BC070E948304AA
S11306A00E94020481E00E94450881E00E944F08F4
S11306B08BE192E00E94970B0E945D060E9437072F
S11306C0811104C08EE092E00E94970B0E94910178
S11306D078940E94D70180918201882309F45FC035
S11306E080907A0190907B01A0907C01B0907D0174
S11306F0C501B4019F772AE037ED43E25CE30E9431
S11307006010181664F580917E0190917F01A0918C
S11307108001B0918101BC01CD019F772FE632E1C8
S113072043E85AE30E94080F8823CCF4C0906A017E
S1130730D0906B01E0906C01F0906D0160917601B6
S11307407091770180E090E00E94AE0F9B01AC01B4
S113075087017601C501B4010E94DD0C1EC08090A2
S11307606E0190906F01A0907001B0907101609142
S113077078017091790180E090E00E94AE0F9B01B6
S1130780AC0160917E0170917F0180918001909114
S11307908101850174010E94AF0B109282010E94B5
S11307A0980E882319F00E947D0D93CF0E94DA0CD5
S11307B0882309F48ECF0E94EB0B8BCF1F920F92EC
S11307C00FB60F9211242F933F934F935F936F9320
S11307D07F938F939F93AF93BF93EF93FF930E9465
S11307E00B02FF91EF91BF91AF919F918F917F91F8
S11307F06F915F914F913F912F910F900FBE0F908A
S11308001F901895ECE7F0E080E480838081807F7E
S11308108083EBE7F0E080818F7D808387E880939D
S11308207A0083E780937E000895883080F4ECE7B3
S1130830F0E09081907F892B8083EBE7F0E080816A
S11308408F7D808320E040E050E0BA0123C0ECE7D4
S1130850F0E09081907F8850892B8083EBE7F0E073
S113086080818062808320E040E050E0BA0112C0C1
S1130870EAE7F0E090819064908390917A0096FD8D
S1130880FCCF8091780090917900480F591F611D29
S1130890711D2F5F243060F3DB01CA01B695A79563
S11308A097958795B695A79597958795089580E030
S11308B00E9415049C01ACE4B4E00E94D2142FEF12
S11308C033E040E050E00E94AA14C901089581E099
S11308D00E9415049C01ACE4B4E00E94D2142FEFF2
S11308E033E040E050E00E94AA14C901089584E076
S11308F00E941504089585E00E941504089586E079
S11309000E94150408958AB18B7F8AB98AB1877FC2
S11309108AB98BB184608BB98BB188608BB9E9E6F5
S1130920F0E080818160808380818D7F80838DB3BE
S113093081608DBB8081846080838081877F808398
S11309408DB382608DBB4A9B02C022E001C020E0CF
S113095099B193FB882780F9822B8093C50184B1D8
S11309608F7B84B984B18F7784B984B1877F84B94C
S113097085B1806485B985B1806885B985B18860A1
S113098085B9E8E6F0E0808181608083EBE6F0E001
S11309908081886C80831E9B02C092E001C090E03D
S11309A083B1881F8827881F892B8093C4011092E4
S11309B0C6011092C7011092C8011092C901109289
S11309C0CA011092CB011092CC011092CD0108956E
S11309D01F920F920FB60F9211242F933F938F9370
S11309E09F93AF93BF93EF93FF9339B129B123FB47
S11309F0222720F932FB882780F990E0880F991F7D
S1130A00282B8091C50190E0880F991F880F991FAA
S1130A10E22FE82B8E2FEE0F990BAA0BBB0BFC01D8
S1130A203197EE30F10558F5EA5AFF4F0C94CC1487
S1130A308091CA019091CB01A091CC01B091CD01DC
S1130A400197A109B1098093CA019093CB01A093A6
S1130A50CC01B093CD0113C08091CA019091CB0118
S1130A60A091CC01B091CD010196A11DB11D80933F
S1130A70CA019093CB01A093CC01B093CD012093F4
S1130A80C501FF91EF91BF91AF919F918F913F91DC
S1130A902F910F900FBE0F901F9018951F920F92D9
S1130AA00FB60F9211242F933F938F939F93AF937D
S1130AB0BF93EF93FF9339B129B123FB222720F988
S1130AC032FB882780F990E0880F991F282B8091AA
S1130AD0C50190E0880F991F880F991FE22FE82B1A
S1130AE08E2FEE0F990BAA0BBB0BFC013197EE3046
S1130AF0F10558F5EC59FF4F0C94CC148091CA01C0
S1130B009091CB01A091CC01B091CD010197A109A5
S1130B10B1098093CA019093CB01A093CC01B09307
S1130B20CD0113C08091CA019091CB01A091CC0159
S1130B30B091CD010196A11DB11D8093CA0190937E
S1130B40CB01A093CC01B093CD012093C501FF91BB
S1130B50EF91BF91AF919F918F913F912F910F9002
S1130B600FBE0F901F9018951F920F920FB60F9201
S1130B7011242F933F938F939F93AF93BF93EF933E
S1130B80FF9323B133B123B1221F2227221F36FB47
S1130B90882780F990E0880F991F282B8091C40141
S1130BA090E0880F991F880F991FE22FE82B8E2F52
S1130BB0EE0F990BAA0BBB0BFC013197EE30F1053C
S1130BC058F5EE58FF4F0C94CC148091C6019091C7
S1130BD0C701A091C801B091C9010197A109B10948
S1130BE08093C6019093C701A093C801B093C90133
S1130BF013C08091C6019091C701A091C801B09122
S1130C00C9010196A11DB11D8093C6019093C7012E
S1130C10A093C801B093C9012093C401FF91EF913F
S1130C20BF91AF919F918F913F912F910F900FBEE4
S1130C300F901F901895F8946091CA017091CB01A0
S1130C408091CC019091CD0178940895F8946091AD
S1130C50C6017091C7018091C8019091C90178942F
S1130C60089594EA9093BC009091BC009923E4F712
S1130C709091B900987F983011F09031C1F480932D
S1130C80BB0084E88093BC008091BC008823E4F717
S1130C908091B900887F883121F0803421F491E07B
S1130CA003C091E001C090E0892F8170089580E035
S1130CB0089584E98093BC000895E9EBF0E0808115
S1130CC08C7F808388E48093B80084E08093BC00A8
S1130CD008950F931F93CF93DF93EB01142F880F85
S1130CE00E943106082F811119C01DC0FE01E90FB1
S1130CF0F11D80818093BB0084E88093BC008091C7
S1130D00BC008823E4F78091B900887F883221F001
S1130D100E94590600E007C09F5F01C090E0911750
S1130D2028F30E945906802FDF91CF911F910F91D4
S1130D3008950F931F93CF93DF938B01C42F90E0FB
S1130D40880F991F81600E943106D82F81112FC00E
S1130D5033C0492F50E02C2F30E021503109421785
S1130D60530711F484E801C084EC8093BC008091A3
S1130D70BC008823E4F7421753072CF48091B90090
S1130D80887F803541F44217530749F48091B900B4
S1130D90887F883521F00E945906D0E00DC0F80103
S1130DA0E90FF11D8091BB0080839F5F01C090E03B
S1130DB09C1778F20E9459068D2FDF91CF911F91D5
S1130DC00F910895CF93DF9300D0CDB7DEB7898319
S1130DD06A8342E0BE016F5F7F4F88E20E9469062A
S1130DE00F900F90DF91CF910895682F8DE30E94AB
S1130DF0E20608950F931F93CF93DF931F92CDB70D
S1130E00DEB789838B0141E0BE016F5F7F4F88E2CB
S1130E100E946906882329F041E0B80188E20E9413
S1130E2099060F90DF91CF911F910F910895FF9232
S1130E300F931F93CF93DF931F92CDB7DEB78983B0
S1130E408B01F42E41E0BE016F5F7F4F88E20E9468
S1130E506906882329F04F2DB80188E20E9499067B
S1130E600F90DF91CF911F910F91FF9008951F93E1
S1130E70CF93DF931F92CDB7DEB70E945D06198230
S1130E80BE016F5F7F4F80E00E94FA06182F88230F
S1130E9051F18981803A31F580E00E94F5062FE70F
S1130EA088E391E0215080409040E1F700C00000C9
S1130EB060E28FE30E94E2062FEF8CEB9FE121506A
S1130EC080409040E1F700C000008CE00E94F506ED
S1130ED02FEF89EF90E0215080409040E1F700C06F
S1130EE0000001C010E0812F0F90DF91CF911F917E
S1130EF00895CF92DF92EF92FF920F931F93CF93B7
S1130F00DF9300D000D000D0CDB7DEB76C017B01F9
S1130F108A0146E0BE016F5F7F4F8AE10E94170796
S1130F208823D9F029818A8190E0982F8827822B01
S1130F30F601918380832B818C8190E0982F882700
S1130F40822BF701918380832D818E8190E0982FED
S1130F508827822BF8019183808326960FB6F89414
S1130F60DEBF0FBECDBFDF91CF911F910F91FF90D8
S1130F70EF90DF90CF9008958AB180688AB98AB1E2
S1130F8080648AB987B1806487B984B1806284B986
S1130F9084B1806184B980B3806880BB8BB1806880
S1130FA08BB98BB180648BB988B18F7B88B985B1DB
S1130FB0806285B985B1806185B981B38F7781BB42
S1130FC01092C00084E08093C20081E08093C3004B
S1130FD01092C10080E48093800088E080938100B7
S1130FE0E2E7F0E0808180688083EFE6F0E08081D2
S1130FF08260808308951F920F920FB60F9211247E
S11310008F939F93AF93BF938091D2019091D3011B
S1131010A091D401B091D5010196A11DB11D809379
S1131020D2019093D301A093D401B093D501BF9181
S1131030AF919F918F910F900FBE0F901F901895B5
S11310401F920F920FB60F9211248F939F93AF9319
S1131050BF938091CE019091CF01A091D001B09126
S1131060D1010196A11DB11D8093CE019093CF01B2
S1131070A093D001B093D101BF91AF919F918F9173
S11310800F900FBE0F901F901895882321F088B100
S1131090806488B9089588B18F7B88B908958823BE
S11310A021F081B3806881BB089581B38F7781BBC0
S11310B00895CF93C82F0E9445088C2F0E944F0893
S11310C0CF910895882321F08BB180648BB9089562
S11310D08BB18F7B8BB90895882321F085B1806112
S11310E085B9089585B18F7E85B90895CF93DF932F
S11310F0EC019C01A8ECB0E00E94D2142CE330E097
S113110040E050E00E94AA14E1ECF0E08081807F8E
S11311108083C53FD140F8F0012E19E0220F331F20
S1131120441F551F1A95D1F7102D60E074E284EF27
S113113090E00E94AA1421502093D6012093D1005C
S11311408091D60186958093D200E1ECF0E0808115
S1131150896080831EC0012E1CE0220F331F441FB0
S1131160551F1A95D1F7102D60E074E284EF90E0DA
S11311700E94AA1421502093D6012093D10080917B
S1131180D60186958093D200E1ECF0E080818C60FA
S11311908083DF91CF9108959C01A8ECB0E00E9478
S11311A0D2142CE330E040E050E00E94AA14012E57
S11311B01BE0220F331F441F551F1A95D1F7102D22
S11311C060E074E284EF90E00E94AA14DA01C9019D
S11311D00197A109B1099093890080938800E1E8FF
S11311E0F0E08081887F808380818560808308959A
S11311F0CF93DF93EB010E947608CE010E94CC08C6
S1131200DF91CF91089580E00E945908E1E8F0E071
S11312108081887F8083E1ECF0E08081807F80831F
S113122008958FB7F8941092CE011092CF011092C6
S1131230D0011092D1011092D2011092D3011092D8
S1131240D4011092D5018FBF08952FB7F8946091FF
S1131250D2017091D3018091D4019091D5012FBF17
S113126008952FB7F8946091CE017091CF018091C9
S1131270D0019091D1012FBF08950E942509969520
S113128087957795679508950E9431099695879576
S113129077956795089581E08093D70080EA8093DD
S11312A0D80082E189BD09B400FEFDCF80E98093B6
S11312B0D8001092E0001092DA011092D7018CE06D
S11312C08093E200789408958091DA0108959FB79D
S11312D0F8948091DA01811103C09FBF8FEF0895C4
S11312E083E08093E9008091E80085FD03C09FBFFF
S11312F08FEF08958091F1002091E80025FD03C04F
S11313002BE62093E8009FBF08959FB7F89480913F
S1131310DA01882331F083E08093E9008091F200C0
S113132001C080E09FBF08959091DA019923E1F113
S11313309FB7F89424E02093E9002091D801222358
S113134049F02091E80025FD03C09FBF8FEF089569
S11313501092D8013091E400375E2091E80025FD19
S113136014C09FBF9091E400391305C081E08093BD
S1131370D8018FEF08959091DA019923B9F09FB7BE
S1131380F89424E02093E900E8CF8093F100809161
S1131390E80085FD03C08AE38093E80085E080933C
S11313A0D9019FBF80E008958FEF08958FEF0895CE
S11313B08FB7F8949091D901992341F094E09093D8
S11313C0E9009AE39093E8001092D9018FBF089541
S11313D01F920F920FB60F9211248F939F93EF9346
S11313E0FF93E1EEF0E08081108283FF11C0109240
S11313F0E90091E09093EB001092EC0092E190935D
S1131400ED0098E09093F0001092DA011092D70169
S113141082FF13C08091DA01882379F08091D90189
S1131420882359F081508093D901811106C084E04A
S11314308093E9008AE38093E800FF91EF919F9104
S11314408F910F900FBE0F901F9018951F920F92BF
S11314500FB60F9211242F933F934F935F936F9383
S11314607F938F939F93AF93BF93CF93DF93EF9328
S1131470FF931092E9008091E80083FF42C1E1EFFD
S1131480F0E0B081A0812081808190E0982F8827AE
S1131490822B4081208130E0322F2227B901642B36
S11314A04081208130E0322F2227F901E42BAF0163
S11314B022EF2093E800A63009F051C0A0E021E318
S11314C032E0A63020F081E28093EB001DC1F901E7
S11314D0C591D4918C179D0719F0295F3F4F1CC00B
S11314E0F9013296C591D4916C177D0719F0295FE3
S11314F03F4F12C0F901349685919491F9013696C3
S113150064919A014F3F510519F010F02FEF30E02C
S1131510621720F0622F02C0AF5FD3CF2091E800A2
S1131520322F3570D9F322FDEFC0362F613108F028
S113153030E1232F09C0AC014F5F5F4FFC01849160
S11315408093F1002150CA012111F5CF631B2EEFC6
S11315502093E8006111E2CF303101F3D5C0A5300A
S113156059F42EEF2093E8002091E80020FFFCCFEF
S113157080688093E300C8C0A93079F5B1112DC00B
S11315808093DA011092D7011092D9018EEF8093E3
S1131590E80081E02AED32E018C08093E900A90157
S11315A04F5F5F4FF90194919093EB00992359F0A9
S11315B0FA0144914093EC003196E4912D5F3F4F42
S11315C0E093ED0001C09A018F5F853030F3EAEEBD
S11315D0F0E08EE18083108297C0A83071F4B038B7
S11315E061F48091E80080FFFCCF8091DA01809360
S11315F0F1008EEF8093E80087C0A132A9F4B13ADC
S113160099F48091E80080FFFCCFE0E0F1E080E015
S113161005C090819093F1008F5F31968730C8F3B5
S11316208EEF8093E80070C0A032C1F4B132B1F4FF
S11316308091E80082FFFCCFE0E0F1E080E005C0AB
S11316409091F10090838F5F31968730C8F3E8EE74
S1131650F0E08BEF80838EEF808356C0A23261F47A
S1131660B13251F48093D7018091E80080FFFCCF20
S11316708EEF8093E80048C0A1111BC08091E80060
S113168080FFFCCFB23861F46093E9008091EB00F5
S113169085FD02C080E001C081E01092E90001C034
S11316A080E0E1EFF0E0808310828EEF8093E80029
S11316B02BC0A13011F0A33021F5B23011F5892BE4
S11316C001F5262F2F778FEF820F8430D0F48EEF21
S11316D08093E8002093E900A33021F481E2809311
S11316E0EB0012C089E18093EB0081E090E002C03E
S11316F0880F991F2A95E2F7EAEEF0E080831082C2
S113170003C081E28093EB00FF91EF91DF91CF91D1
S1131710BF91AF919F918F917F916F915F914F9105
S11317203F912F910F900FBE0F901F9018950F931C
S11317301F93CF93FC018F010F5F1F4FC491CC23E4
S113174051F0CA3019F48DE00E9494098C2F0E9444
S11317509409F801F0CFCF911F910F910895EF9262
S1131760FF920F931F936093060270930702809376
S113177008029093090220930202309303024093DB
S1131780040250930502E092FE01F092FF010093DF
S113179000021093010284EE97EBABECB0E480936B
S11317A0FA019093FB01A093FC01B093FD010E9408
S11317B011090E943D096093F6017093F70180932B
S11317C0F8019093F90181E08093F5011F910F9145
S11317D0FF90EF9008954F925F926F927F928F9255
S11317E09F92AF92BF92CF92DF92EF92FF92CF93EC
S11317F0DF93CDB7DEB72C970FB6F894DEBF0FBEDC
S1131800CDBF8091F501882309F4BFC00E943D0932
S1131810C090F601D090F701E090F801F090F90142
S11318206C197D098E099F090E94AE0F2091FA015F
S11318303091FB014091FC015091FD010E940D0F7C
S11318404B015C01C0900202D0900302E0900402BC
S1131850F0900502A7019601C701B6010E94651028
S11318602B013C016091FE017091FF018091000207
S1131870909101029B01AC010E949C0E6D837E83BA
S11318808F8398879B01AC01C301B2010E940D0FA5
S113189069837A838B839C8340900602509007026D
S11318A060900802709009029B01AC01C301B2016F
S11318B00E949B0E69877A878B879C8729813A814E
S11318C04B815C81C501B4010E94080F88236CF42C
S11318D02D813E814F815885C501B4010E94651058
S11318E00E94D8106B017C011CC029853A854B8568
S11318F05C85C501B4010E94080F882394F0A501FA
S11319009401C301B2010E949B0E9B01AC016D8145
S11319107E818F8198850E9465100E94D8106B018A
S11319207C0123E634E14DE154E4C701B6010E9491
S11319300D0F20E030E040E752E40E94651020E003
S113194030E040E05FE30E949C0E0E947F0F6B0139
S11319507C0181E00E94620881E00E946C08B6016B
S1131960C6010E94F80820910602309107024091B6
S1131970080250910902C501B4010E946010882335
S113198024F00E9403091092F5012C960FB6F894E6
S1131990DEBF0FBECDBFDF91CF91FF90EF90DF9000
S11319A0CF90BF90AF909F908F907F906F905F90FB
S11319B04F9008958091F50108954F925F926F9230
S11319C07F928F929F92AF92BF92CF92DF92EF92CB
S11319D0FF920F931F93CF934B015C0129013A01AE
S11319E06701780125E33AEF4EE85CE30E94651055
S11319F020E030E844E853E40E946510DC01CB01A8
S1131A00BF778093F1019093F201A093F301B09317
S1131A10F401C1E020E030E0A901C501B4010E9455
S1131A20601018160CF0C0E0C093DB0125E33AEF18
S1131A304EE85CE3C301B2010E94651020E030E887
S1131A4044E853E40E946510DC01CB01BF77809326
S1131A50ED019093EE01A093EF01B093F00125E323
S1131A603AEF4EE85CE3C701B6010E94651020E03E
S1131A7030E844E853E40E946510DC01CB01BF77F1
S1131A808093E9019093EA01A093EB01B093EC01F8
S1131A9084EE97EBABECB0E48093E5019093E60120
S1131AA0A093E701B093E8010E9411090E943D0947
S1131AB06093E1017093E2018093E3019093E40168
S1131AC00E9444096093DD017093DE018093DF017D
S1131AD09093E00181E08093DC01CF911F910F91FD
S1131AE0FF90EF90DF90CF90BF90AF909F908F903A
S1131AF07F906F905F904F9008954F925F926F9296
S1131B007F928F929F92AF92BF92CF92DF92EF9289
S1131B10FF92CF93DF93CDB7DEB728970FB6F89433
S1131B20DEBF0FBECDBF8091DC01882309F4EBC07A
S1131B300E943D09C090E101D090E201E090E301F0
S1131B40F090E4014B015C018C189D08AE08BF08BD
S1131B500E944409C090DD01D090DE01E090DF01D5
S1131B60F090E0019B01AC012C193D094E095F097D
S1131B7069017A01C501B4010E94AE0F8090E501AC
S1131B809090E601A090E701B090E801A5019401CE
S1131B900E940D0F2B013C01C701B6010E94AE0F3C
S1131BA0A50194010E940D0F9B01AC01C301B20178
S1131BB00E949C0E20E030E040E05FE30E9465104C
S1131BC04B015C01C090ED01D090EE01E090EF017B
S1131BD0F090F001A7019601C701B6010E946510BB
S1131BE02B013C016091E9017091EA018091EB01C4
S1131BF09091EC019B01AC010E949C0E69837A8355
S1131C008B839C839B01AC01C301B2010E940D0F25
S1131C106D837E838F8398879B01AC01C501B401DA
S1131C200E94080F88236CF429813A814B815C81DE
S1131C30C501B4010E9465100E94D8106B017C019B
S1131C402AC04090F1015090F2016090F30170902D
S1131C50F4012D813E814F815885C301B2010E9458
S1131C609B0E9B01AC01C501B4010E94080F88239F
S1131C7094F0A5019401C301B2010E949B0E9B0143
S1131C80AC0169817A818B819C810E9465100E94DC
S1131C90D8106B017C0123E634E14DE154E4C70123
S1131CA0B6010E940D0F20E030E040E752E40E94AC
S1131CB0651020E030E040E05FE30E949C0E0E944B
S1131CC07F0F6B017C019091DB0181E089270E94E9
S1131CD062088091DB010E946C08B601C6010E9473
S1131CE0F8082091F1013091F2014091F3015091F3
S1131CF0F401C501B4010E946010882324F00E94FD
S1131D0003091092DC0128960FB6F894DEBF0FBECB
S1131D10CDBFDF91CF91FF90EF90DF90CF90BF9038
S1131D20AF909F908F907F906F905F904F900895A9
S1131D308091DC0108955058BB27AA270E94B30E56
S1131D400C9426100E94181038F00E941F1020F0E6
S1131D5039F49F3F19F426F40C9415100EF4E09511
S1131D60E7FB0C940F10E92F0E94371058F3BA17B1
S1131D70620773078407950720F079F4A6F50C949D
S1131D8059100EF4E0950B2EBA2FA02D0B01B901BA
S1131D9090010C01CA01A0011124FF27591B99F0DD
S1131DA0593F50F4503E68F11A16F040A22F232FE9
S1131DB0342F4427585FF3CF469537952795A79539
S1131DC0F0405395C9F77EF41F16BA0B620B730BE0
S1131DD0840BBAF09150A1F0FF0FBB1F661F771F51
S1131DE0881FC2F70EC0BA0F621F731F841F48F406
S1131DF0879577956795B795F7959E3F08F0B0CF8F
S1131E009395880F08F09927EE0F97958795089575
S1131E100E94EB0F08F481E008950E94210F0C94B6
S1131E2026100E941F1058F00E94181040F029F448
S1131E305F3F29F00C940F1051110C945A100C941C
S1131E4015100E94371068F39923B1F3552391F3C9
S1131E50951B550BBB27AA2762177307840738F015
S1131E609F5F5F4F220F331F441FAA1FA9F335D072
S1131E700E2E3AF0E0E832D091505040E695001C26
S1131E80CAF72BD0FE2F29D0660F771F881FBB1FE0
S1131E90261737074807AB07B0E809F0BB0B802DBE
S1131EA0BF01FF2793585F4F3AF09E3F510578F0EA
S1131EB00C940F100C945A105F3FE4F3983ED4F343
S1131EC0869577956795B795F7959F5FC9F7880FBE
S1131ED0911D9695879597F90895E1E0660F771F10
S1131EE0881FBB1F621773078407BA0720F0621BA1
S1131EF0730B840BBA0BEE1F88F7E09508950E94CC
S1131F003F1088F09F5798F0B92F9927B751B0F038
S1131F10E1F0660F771F881F991F1AF0BA95C9F769
S1131F2014C0B13091F00E945910B1E008950C949E
S1131F305910672F782F8827B85F39F0B93FCCF351
S1131F40869577956795B395D9F73EF490958095E6
S1131F50709561957F4F8F4F9F4F0895E89409C006
S1131F6097FB3EF490958095709561957F4F8F4FC8
S1131F709F4F9923A9F0F92F96E9BB279395F695DE
S1131F80879577956795B795F111F8CFFAF4BB0F5C
S1131F9011F460FF1BC06F5F7F4F8F4F9F4F16C0C0
S1131FA0882311F096E911C0772321F09EE8872F4A
S1131FB0762F05C0662371F096E8862F70E060E006
S1131FC02AF09A95660F771F881FDAF7880F96957F
S1131FD0879597F90895990F0008550FAA0BE0E823
S1131FE0FEEF16161706E807F907C0F012161306D7
S1131FF0E407F50798F0621B730B840B950B39F417
S11320000A2661F0232B242B252B21F408950A267C
S113201009F4A140A6958FEF811D811D089597F9BC
S11320209F6780E870E060E008959FEF80EC08957A
S113203000240A94161617061806090608950024A3
S11320400A9412161306140605060895092E03941D
S1132050000C11F4882352F0BB0F40F4BF2B11F491
S113206060FF04C06F5F7F4F8F4F9F4F089557FDF0
S11320709058440F551F59F05F3F71F04795880FF2
S113208097FB991F61F09F3F79F087950895121689
S113209013061406551FF2CF4695F1DF08C0161635
S11320A017061806991FF1CF8695710561050894E6
S11320B00895E894BB2766277727CB0197F90895FD
S11320C00E94EB0F08F48FEF08950E9478100C948F
S11320D026100E94181038F00E941F1020F095233B
S11320E011F00C940F100C94151011240C945A1028
S11320F00E94371070F3959FC1F3950F50E0551F60
S1132100629FF001729FBB27F00DB11D639FAA2748
S1132110F00DB11DAA1F649F6627B00DA11D661F97
S1132120829F2227B00DA11D621F739FB00DA11DB8
S1132130621F839FA00D611D221F749F3327A00D72
S1132140611D231F849F600D211D822F762F6A2F0E
S113215011249F5750409AF0F1F088234AF0EE0F73
S1132160FF1FBB1F661F771F881F91505040A9F7A0
S11321709E3F510580F00C940F100C945A105F3F51
S1132180E4F3983ED4F3869577956795B795F795DC
S1132190E7959F5FC1F7FE2B880F911D9695879554
S11321A097F9089519F416F40C9415100C94181159
S11321B00E943F10B8F39923C9F3B6F39F57550B08
S11321C087FF0E9426110024A0E640EA900180586F
S11321D05695979528F4805C660F771F881F20F02A
S11321E026173707480730F4621B730B840B20292A
S11321F031294A2BA69517940794202531254A277F
S113220058F7660F771F881F20F0261737074807EF
S113221030F4620B730B840B200D311D411DA0950E
S113222081F7B901842F9158880F96958795089561
S11322309F3F31F0915020F4879577956795B79536
S1132240880F911D9695879597F908959150504060
S1132250660F771F881FD2F70895A0E1B0E0E3E38B
S1132260F1E10C94E1147C011B016A01FC01178269
S11322701682838181FF44C39E012F5F3F4F390142
S1132280F7019381F10193FD859193FF81911F01E2
S1132290882309F431C3853239F493FD859193FF82
S11322A081911F01853239F4B70190E00E9406162E
S11322B056016501E5CF10E0512C912CFFE1F91591
S11322C0D8F08B3279F038F4803279F08332A1F48B
S11322D0F92DF0612EC08D3261F0803369F4292D1F
S11322E021602DC0392D3260932E892D8460982E63
S11322F02AC0E92DE86015C097FC2DC020ED280FF9
S11323002A3088F496FE06C03AE0139F200D11246B
S1132310122F19C08AE0589E200D1124522EE92D47
S1132320E0629E2E10C08E3231F496FCE5C2F92D87
S1132330F0649F2E08C08C3621F4292D2068922E3B
S113234002C0883641F4F10193FD859193FF819198
S11323501F018111B3CF9BEB980F933020F4992D7B
S11323609061805E07C09BE9980F933008F066C1C6
S1132370992D9F7E96FF16E09F73992E853619F44A
S11323809064992E08C0863621F4392F3068932E34
S113239002C01111115097FE07C01C3350F444249D
S11323A04394410E27E00BC0183038F027E017E0C3
S11323B005C027E09CE3492E02C0212F412C560181
S11323C084E0A80EB11CF601608171818281938141
S11323D0042DA3010E9418156C01F981FC87F0FFFC
S11323E002C0F3FF06C091FC06C092FE06C000E2E4
S11323F005C00DE203C00BE201C000E08C858C70C7
S113240019F001115AC29BC297FE10C04C0CFC85F6
S1132410F4FF04C08A81813309F44A94141474F5D6
S113242028E0241578F588E0482E2CC096FC2AC0B4
S1132430812F90E08C159D059CF03CEFC3163FEF77
S1132440D30674F0892D8068982E0AC0E2E0F0E08B
S1132450EC0FFD1FE10FF11D8081803319F4115041
S11324601111F4CF97FE0EC044244394410E812FE2
S113247090E0C816D9062CF41C1904C044244394D3
S113248001C010E097FE06C01C141D0434F4C601FC
S1132490019605C085E090E002C081E090E0011162
S11324A00196112331F0212F30E02F5F3F4F820F2F
S11324B0931F252D30E08217930714F4581A01C096
S11324C0512C892D897049F4552039F0B70180E2E7
S11324D090E00E9406165A94F7CF002329F0B70122
S11324E0802F90E00E94061693FC09C0552039F015
S11324F0B70180E390E00E9406165A94F7CF97FE46
S11325004CC04601D7FE02C0812C912CC60188190B
S11325109909F301E80FF91FFE87ED879601241945
S11325203109388B2F87012F10E01195019511097E
S11325303FEF8316930629F4B7018EE290E00E94E0
S11325400616C814D9044CF08F8598898815990506
S113255024F4ED85FE85818101C080E3F1E08F1ACA
S113256091082D853E852F5F3F4F3E872D8780162E
S113257091062CF0B70190E00E940616D9CFC8143A
S1132580D90441F49A81963320F4953319F43C85A7
S113259034FF81E3B70190E04EC08A81813319F0A2
S11325A09C859F7E9C87B70190E00E9406161111BE
S11325B005C094FC18C085E690E017C0B7018EE210
S11325C090E00E9406161E5F82E001E0080FF3010E
S11325D0E80FF11D8081B70190E00E940616802F5C
S11325E00113F3CFE6CF85E490E0B7010E9406160D
S11325F0D7FC06C0C114D10441F4EC85E4FF05C046
S1132600D194C194D1088DE201C08BE2B70190E06E
S11326100E94061680E32AE0C216D1042CF08F5FD4
S1132620FAE0CF1AD108F7CFB70190E00E9406165E
S1132630B701C601C0960E94061654C1833631F014
S1132640833779F0833509F056C020C0560132E053
S1132650A30EB11CF6018081898301E010E06301BF
S113266012C05601F2E0AF0EB11CF601C080D18059
S113267096FE03C0612F70E002C06FEF7FEFC601CA
S11326800E94FB158C01F92DFF7714C0560122E03E
S1132690A20EB11CF601C080D18096FE03C0612F4A
S11326A070E002C06FEF7FEFC6010E94F0158C014D
S11326B0F92DF0689F2EF3FD1AC0852D90E00817C0
S11326C01907A8F4B70180E290E00E9406165A9414
S11326D0F4CFF60197FC859197FE81916F01B701C4
S11326E090E00E94061651105A94015011090115E8
S11326F0110579F7F7C0843611F0893661F5560172
S113270097FE09C024E0A20EB11CF601608171811C
S1132710828193810AC0F2E0AF0EB11CF6016081A0
S11327207181072E000C880B990BF92DFF769F2ED3
S113273097FF09C090958095709561957F4F8F4F55
S11327409F4FF0689F2E2AE030E0A3010E948B1671
S1132750C82EC6183FC0092D853721F40F7E2AE004
S113276030E01DC0097F8F3691F018F4883559F098
S1132770C3C0803719F0883711F0BEC0006104FF70
S113278009C0046007C094FE08C0066006C028E0C3
S113279030E005C020E130E002C020E132E0560123
S11327A007FF09C084E0A80EB11CF60160817181A5
S11327B08281938108C0F2E0AF0EB11CF601608102
S11327C0718180E090E0A3010E948B16C82EC61888
S11327D00F77902E96FE0BC0092D0E7FC11650F474
S11327E094FE0AC092FC08C0092D0E7E05C0DC2CA4
S11327F0092D03C0DC2C01C0D12E04FF0DC0FE0145
S1132800EC0DF11D8081803311F4097E09C002FFB3
S113281006C0D394D39404C0802F867809F0D3944F
S113282003FD11C000FF06C01C2DD51480F4150D46
S11328301D190DC0D51458F4B70180E290E00E9430
S11328400616D394F7CFD51410F45D1801C0512C9B
S113285004FF10C0B70180E390E00E94061602FF57
S113286017C001FD03C088E790E002C088E590E04E
S1132870B7010CC0802F867859F001FF02C08BE2AB
S113288001C080E207FD8DE2B70190E00E940616C8
S1132890C11638F4B70180E390E00E940616115087
S11328A0F7CFCA94F301EC0DF11D8081B70190E0DC
S11328B00E940616C110F5CF15C0F4E0F51560F5B9
S11328C084E0581A93FE1FC0011127C02C8523FFF2
S11328D02AC000E011E0392D3071932EF801849163
S11328E0811124C0552009F4E4CCB70180E290E0C2
S11328F00E9406165A94F6CFF7018681978126C066
S11329008FEF9FEF23C0B70180E290E00E9406168C
S11329105A945110F8CFD8CF512CB701802F90E0A2
S11329200E940616D3CF04E011E0D5CF9110805257
S1132930B70190E00E9406160F5F1F4FCFCF23E030
S1132940251510F483E0BDCF512CC0CF6096E2E191
S11329500C94FD14A1E21A2EAA1BBB1BFD010DC091
S1132960AA1FBB1FEE1FFF1FA217B307E407F5073B
S113297020F0A21BB30BE40BF50B661F771F881F17
S1132980991F1A9469F760957095809590959B01AD
S1132990AC01BD01CF010895EE0FFF1F0590F49126
S11329A0E02D0994A29FB001B39FC001A39F700DB5
S11329B0811D1124911DB29F700D811D1124911D43
S11329C008952F923F924F925F926F927F928F92CF
S11329D09F92AF92BF92CF92DF92EF92FF920F93AA
S11329E01F93CF93DF93CDB7DEB7CA1BDB0B0FB6B4
S11329F0F894DEBF0FBECDBF09942A883988488871
S1132A005F846E847D848C849B84AA84B984C88406
S1132A10DF80EE80FD800C811B81AA81B981CE0FFD
S1132A20D11D0FB6F894DEBF0FBECDBFED010895E2
S1132A30283008F027E03327DA01990F311D87FD8C
S1132A40916000966105710539F432602E5F3D9303
S1132A5030E32A95E1F708959F3F30F080387105FF
S1132A60610509F03C5F3C5F3D93913008F080685C
S1132A70911DDF93CF931F930F93FF92EF92192F22
S1132A80987F9695E92F96959695E90FFF27EE592D
S1132A90FE4F99273327EE24FF24A701E701059071
S1132AA00894079428F4360FE71EF81E491F511D99
S1132AB0660F771F881F991F0694A1F70590079446
S1132AC028F4E70EF81E491F561FC11D770F881FF3
S1132AD0991F661F0694A1F70590079428F4F80E31
S1132AE0491F561FC71FD11D880F991F661F771FC7
S1132AF00694A1F70590079420F4490F561FC71FA9
S1132B00D81F990F661F771F881F0694A9F7849111
S1132B101095177041F0D695C79557954795F7943A
S1132B20E7941A95C1F7E8E0F1E0689415901591DF
S1132B3035916591959105907FE27395E118F10ABD
S1132B40430B560BC90BD009C0F7E10CF11E431F10
S1132B50561FC91FD01D7EF4703311F48A95E6CF39
S1132B60E894015030F0080F0AF40027021708F423
S1132B70202F2395022F7A3328F079E37D932A9529
S1132B80E9F710C07D932A9589F606949795679581
S1132B90379517951794E118F10A430B560BC90B97
S1132BA0D00998F023957E9173957A3308F070E3F9
S1132BB07C932013B8F77E9170617D9330F08395F8
S1132BC071E37D9370E32A95E1F71124EF90FF9070
S1132BD00F911F91CF91DF91992787FD90950895CB
S1132BE0FC010590615070400110D8F780959095D4
S1132BF08E0F9F1F0895FC016150704001900110D9
S1132C00D8F7809590958E0F9F1F08950F931F936B
S1132C10CF93DF93FB01238121FD03C08FEF9FEF4F
S1132C202CC022FF16C0468157812481358142176A
S1132C30530744F4A081B1819D012F5F3F4F31833D
S1132C4020838C93268137812F5F3F4F37832683E0
S1132C5014C08B01EC01FB010084F185E02D099582
S1132C60892BE1F6D80116968D919C9117970196C0
S1132C7017969C938E931697CE01DF91CF911F9157
S1132C800F910895AEE0B0E0E8E4F6E10C94EF149F
S1132C900D891E898F89988D26E02C831A830983D8
S1132CA097FF02C080E090E801979E838D83AE0178
S1132CB0455E5F4F698D7A8DCE0101960E942D117C
S1132CC04D815E8157FD0AC02F8138854217530715
S1132CD00CF49A01F801E20FF31F10822E96E4E03F
S1132CE00C940B15AEE0B0E0E8E7F6E10C94F114B7
S1132CF085E08C838B899C899A838983AE01495EA4
S1132D005F4F6D897E89CE0101960E9485182E96AB
S1132D10E2E00C940D15FA01AA27283051F1203174
S1132D2081F1E8946F936E7F6E5F7F4F8F4F9F4F5B
S1132D30AF4FB1E03ED0B4E03CD0670F781F891F9D
S1132D409A1FA11D680F791F8A1F911DA11D6A0F6B
S1132D50711D811D911DA11D20D009F468943F911E
S1132D602AE0269F11243019305D3193DEF6CF011D
S1132D700895462F4770405D4193B3E00FD0C9F7E3
S1132D80F6CF462F4F70405D4A3318F0495D31FD50
S1132D904052419302D0A9F7EACFB4E0A6959795A3
S1132DA0879577956795BA95C9F700976105710579
S1132DB008959B01AC010A2E0694579547953795C3
S1132DC02795BA95C9F7620F731F841F951FA01D1D
S1132DD0089520FD09C0FC0123FD05C022FF02C0A7
S1132DE07383628351834083089544FD17C046FD75
S1132DF017C0AB01BC01DA01FB01AA0FBB1FEE1F18
S1132E00FF1F1094D1F74A0F5B1F6E1F7F1FCB016A
S1132E10BA01660F771F881F991F09C033E001C0EC
S1132E2034E0660F771F881F991F3150D1F7620F66
S1132E30711D811D911D08950F931F93CF93DF93EF
S1132E408C01C8010E94AA19EC0197FD08C00E94D8
S1132E509619892BB1F7B801CE010E94E819CE0169
S1132E60DF91CF911F910F9108958F929F92AF920E
S1132E70BF92EF92FF920F931F93CF93DF938C0136
S1132E80D62F7A01B22E0E94AA199C0133272B3225
S1132E90310531F02D32310561F48B2D8068B82E67
S1132EA0D15011F480E068C0C8010E94AA1997FDAE
S1132EB0F9CFCB2DCD7F2B2D207309F58033F9F479
S1132EC0AA24AA94AD0E09F443C0C8010E94AA1909
S1132ED097FD3EC09C012F7D33272835310549F4E9
S1132EE0C264D250A9F1C8010E94AA1997FF07C071
S1132EF02FC0B6FE02C0C26001C0C261DA2D812CAF
S1132F00912C540120ED280F283080F0C4FF04C018
S1132F10B8010E94E81919C02A3040F0C6FFF8CF62
S1132F202F7D3FEE320F363098F727504C2FC501D6
S1132F30B4010E94F5164B015C01C260D15059F0F6
S1132F40C8010E94AA1997FFDDCFC1FD04C0AACF12
S1132F50812C912C5401C7FF08C0B094A094909484
S1132F608094811C911CA11CB11C2C2FB501A401BF
S1132F70C7010E94E91681E0DF91CF911F910F9163
S1132F80FF90EF90BF90AF909F908F900895A0E234
S1132F90B0E0EDECF7E10C94E4145C01962E7A01B8
S1132FA0F9018E010F5F1F4F680180E2D8011D9265
S1132FB08A95E9F7D50113968C9080E090E0612C16
S1132FC0712C30E061E070E083FC259183FE219157
S1132FD08F01522E211103C080E090E092C02E3563
S1132FE011F4009751F1432F50E0481759073CF46E
S1132FF02D3559F12D3219F4772009F103C07720CA
S113300009F46AC0452D469546954695D601A40F08
S1133010B11D452D47708B0102C0000F111F4A9549
S1133020E2F7A8015C91452B4C93651459F05614B2
S113303010F45394E7CF5A94E5CF31E004C07724D9
S1133040739401C0712C0196BFCF772019F08E8143
S113305080628E83311103C08824839417C0F601E3
S11330609E012F5D3F4F8081809581932E173F07EE
S1133070D1F7F2CFE114F10429F0D7018C93F701D1
S113308031967F019A94812C9920F9F0C5010E9410
S1133090AA1997FD18C0FC01FF2723E0F595E795D1
S11330A02A95E1F7EC0DFD1D208130E0AC0147705D
S11330B0552702C0359527954A95E2F720FDDACFCA
S11330C0B5010E94E819811087CFE114F10411F0D1
S11330D0D7011C92C80115C0422F469546954695C6
S11330E0D601A40FB11D422F47708B0102C0000FFF
S11330F0111F4A95E2F7A8015C91452B4C93622E6F
S1133100A2CFA096EFE00C940015A0E0B0E0EBE8AD
S1133110F8E10C94E4146C01EB015A01FC011782F0
S11331201682512CF601E380FE01E3FC8591E3FE57
S11331308191182FEF01882309F4EEC090E00E94DA
S11331409619892B21F0C6010E941C17EBCF15326A
S113315041F4FE01E3FC1591E3FE1191EF011532F8
S113316081F4C6010E94AA1997FDD4C0412F50E0F2
S11331709C01332724173507A9F2B6010E94E819E8
S1133180CBC01A3239F4E3FC1591E3FE1191EF013F
S113319001E001C000E0F12C20ED210F2A3080F481
S11331A002606F2D70E080E090E040E20E94F5162E
S11331B0F62EFE01E3FC1591E3FE1191EF01ECCF35
S11331C001FF03C0F11003C0A7C0FF24FA9418360E
S11331D019F01C3651F010C0FE01E3FC1591E3FE1A
S11331E01191EF01183641F408600460FE01E3FC1C
S11331F01591E3FE1191EF01112309F48DC0612FA4
S113320070E082E092E00E949F19892B09F484C047
S113321000FD07C0F50180809180C50102965C0124
S113322002C0812C912C1E3651F4F601468157813F
S113323060E070E0202FC4010E94E91673CF1336BA
S1133240A9F401FD02C0FF24F394C6010E94AA1947
S113325097FD60C08114910429F0F4018083C401B6
S113326001964C01FA94F110F0CF50C01B3559F47B
S11332709E01A4016F2DC6010E94C717EC01892B82
S113328009F044C03EC0C6010E941C1797FD42C00D
S11332901F3661F128F4143639F1193651F128C07A
S11332A0133771F0153701F123C08114910429F00B
S11332B0F4016082C40101964C01FA94FF2071F07C
S11332C0C6010E94AA193C0197FD08C00E949619E4
S11332D0892B59F3B601C3010E94E81981149104A2
S11332E0A9F0F401108212C0006203C0006101C0A1
S11332F00064202FA4016F2DC6010E94351781118F
S113330005C0F6018381807329F406C000FD0ACF4D
S1133310539408CF552019F0852D90E002C08FEF0B
S11333209FEFCDB7DEB7EFE00C94001591110C942C
S1133330011A803219F089508550C8F70895FC01AC
S11333400590061621F00020D9F7C00108953197A1
S1133350CF010895CF93DF93EC012B8120FF33C07D
S113336026FF0AC02F7B2B838E819F8101969F832A
S11333708E838A8190E029C022FF0FC0E881F98101
S11333808081082E000C990B009719F420622B837E
S11333901AC03196F983E8830EC0EA85FB85099546
S11333A097FF09C02B81019611F080E201C080E1F2
S11333B0822B8B8308C02E813F812F5F3F4F3F8339
S11333C02E83992702C08FEF9FEFDF91CF9108954D
S11333D0FB01238120FF12C026FD10C08F3F3FEF69
S11333E0930761F082832F7D2064238326813781B4
S11333F02150310937832683992708958FEF9FEF52
S10F34000895992788270895F894FFCFB9
S113340C00E1000000000825662C25662C25752C8F
S113341C25752C25752C25752C25662C25660048C0
S113342C3A25362E326620523A25362E32662050F4
S113343C3A25362E3266202056423A25756D562F83
S113344C25756D56202020436C6966663A257520D7
S113345C25752025752020456E633A2531316C6421
S10D346C2F2531316C640D0A0000B5
S9030000FC
